:200000000080202095280000CB1E0000CB1E00000000000000000000000000000000000091
:20002000000000000000000000000000CB1E00000000000000000000CB1E0000CB1E000005
:20004000CB1E0000CB1E0000CB1E0000CB1E0000CB1E0000CB1E0000CB1E0000CB1E000058
:2000600000000000CB1E0000CB1E00000000000000000000CB1E0000CB1E000015220000A5
:20008000CB1E0000CB1E000055270000CB1E0000CB1E0000CB1E0000000000000000000057
:2000A000CB1E0000CB1E00000000000000000000CB1E000000000000CB1E0000CB1E0000B3
:2000C000F0B58FB0069300920B910E90EE49EF48012674033503812208920A600460046420
:2000E000046005600746304602F034F93846103704610A96304602F02DF9E44B1D610E98AA
:20010000400040B2E04A089911601C600D941C641D61099000280C9700DADC4F0D993960AE
:200120000A9E304602F016F9D84F3D600524204602F010F93D61204602F00CF90E9880062B
:2001400007900C9800D5D1480D990160304602F001F9CE4F3D60204602F0FCF83D61204603
:2001600002F0F8F80E98C00605900C9800D5C7480D990160304602F0EDF8C44F3D602046AA
:2001800002F0E8F83D61204602F0E4F80E98000704900C9800D5BD480D990160304602F08D
:2001A000D9F8BA4F3D60204602F0D4F83D61204602F0D0F80E98400703900C9800D5B348F2
:2001C0000D990160304602F0C5F8B04F3D60204602F0C0F83D61204602F0BCF80E98800770
:2001E00002900C9800D5A9480D990160304602F0B1F8A64E3560204602F0ACF8356120466A
:2002000002F0A8F80E98C007019001D09F480C900C990D9808600A9E304602F09BF89B4FBB
:200220003D60204602F096F83D61204602F092F80D983861304602F08DF83D60204602F09B
:2002400089F83D61204602F085F83D610D9838608D488F4901603D608E48006880040E95BF
:2002600029D50A24651E0120074602F073F8894800680D9908421AD0280618D0A51E0120F7
:2002800002F068F8834800680D9908420FD028060DD0E41E012002F05DF87E4800680D99C1
:2002A000084203D020062546DCD100E0254628060E9D00D1D3E00D98744B1E4610361D61AF
:2002C0007149089A0A60186018640A60186018641D610B9840B20028304600DA6B480D9922
:2002E000016001200C9002F035F8684F3D600524204602F02FF83D61204602F02BF80B9809
:200300004006304600D561480D9901600C9802F021F85E4F3D60204602F01CF83D61204633
:2003200002F018F80B988006304600D557480D9901600C9802F00EF8544F3D60204602F06D
:2003400009F83D61204602F005F80B98C006304600D54E480D9901600C9801F0FBFF4B4F2F
:200360003D60204601F0F6FF3D61204601F0F2FF0B980007304600D544480D9901600C9882
:2003800001F0E8FF414F3D60204601F0E3FF3D61204601F0DFFF0B984007304600D53B4894
:2003A0000D9901600C9801F0D5FF384F3D60204601F0D0FF3D61204601F0CCFF0B98800799
:2003C000304600D531480D9901600C9801F0C2FF2E4F3D60204601F0BDFF3D61204601F0DA
:2003E000B9FF0B98C00700D0284E0D98306006460C9801F0AFFF254F3D60204601F0AAFFC0
:200400003D61204601F0A6FF3D613E601E48204901603D601F480068304242D00A24651E35
:20042000012001F097FF1B480068304235D0280633D0A51E012001F08DFF16480068304208
:200440002BD0280629D0E41E012001F083FF11480068304220D020062546E0D11DE00A4830
:20046000089C04600D980949086008640D6108610D600646384601F06DFF044806600797EE
:20048000384601F067FFA1E28C80424090120A408100040080130A40254628060E9D00D113
:2004A000DFE03446794F384610300B903D617848089901603E603E6401603E603E643E6003
:2004C0003D600C9E304601F045FF3C61304601F041FF3D616E48089901603C603C643D61B6
:2004E0000B9FF04309998142384600DC67480D9901600C9801F02EFF644E35600524204612
:2005000001F028FF3561204601F024FF07980028384600D55D480D9901600C9801F01AFF3F
:200520005A4E3560204601F015FF3561204601F011FF05980028384600D554480D9901605B
:200540000C9801F007FF514E3560204601F002FF3561204601F0FEFE04980028384600D574
:200560004A480D9901600C9801F0F4FE474E3560204601F0EFFE3561204601F0EBFE03987C
:200580000028384600D541480D9901600C9801F0E1FE3E4E3560204601F0DCFE356120468E
:2005A00001F0D8FE02980028384600D537480D9901600C9801F0CEFE344E3560204601F00A
:2005C000C9FE3561204601F0C5FE0198002800D02E4F0D9838600C9E304601F0BBFE2B4F15
:2005E0003D60204601F0B6FE3D61204601F0B2FE0D99396030460E4601F0ACFE3D60204607
:2006000001F0A8FE3D61204601F0A4FE3D613E601F48204A02603D601F480068304243D04C
:200620000A24651E012001F095FEFD480068304235D0280633D0A51E012001F08BFEF84871
:20064000006830422BD0280629D0E41E012001F081FEF3480068304220D020062546E0D1C4
:200660001DE0EE4808990160EE4F3E603E643D613E613D600124204601F06CFE3E60204604
:20068000089C01F067FE022007909FE190120A408C8042408100040080130A4025462806B2
:2006A0000E9DE14A00D1A4E1DE4B1D61DB48089901601E601E64034600210098022807917E
:2006C00000D2C9E0401E0590014606980C900B911A60D44F3D610524204601F03BFE3D60FE
:2006E000204601F037FECE480568204601F032FE0E983861204601F02DFE0E9838602046FF
:2007000001F028FE280B022630400A96C44D29688904C90F08180990204601F01BFE0E9881
:200720003861204601F016FE0E983860204601F011FE2F68204601F00DFEBA480E9901610D
:20074000204601F007FEB7480E990160204601F001FE09988000390B314040182968890494
:20076000C90F0E18204601F0F5FDAE480E990161204601F0EFFDAB480E990160204601F09E
:20078000E9FD2F68204601F0E5FDA6480E990161204601F0DFFDA3480E990160204601F02F
:2007A000D9FDB000390B0A9D294040189C4909688904C90F0E18204601F0CCFD99480E997E
:2007C0000161204601F0C6FD96480E990160204601F0C0FD92480768204601F0BBFD914872
:2007E0000E990161204601F0B5FD8E480E990160204601F0AFFDB000390B8A4F2940401878
:20080000874909688904C90F0D18204601F0A2FD0E98394638610C9F3D700E9E08987F4AEC
:2008200010600D9D0D600D640E610D61204601F091FD7C4805610660204601F08BFD774BCD
:200840000B99794A77480661056035467F1C0C97491E00D03BE7059905911A60714F3D6188
:200860000524204601F076FD3D60204601F072FD6B480568204601F06DFD0E98386120469C
:2008800001F068FD0E983860204601F063FD280B022630400C96624D29688904C90F0818DB
:2008A0000B90204601F056FD0E983861204601F051FD0E983860204601F04CFD2F68204634
:2008C00001F048FD57480E990161204601F042FD54480E990160204601F03CFD0B9880004D
:2008E000390B3140401829688904C90F0E18204601F030FD4B480E990161204601F02AFD31
:2009000048480E990160204601F024FD2F68204601F020FD43480E990161204601F01AFDBA
:2009200040480E990160204601F014FDB000390B0C9D294040183A4909688904C90F0E18E2
:20094000204601F007FD37480E990161204601F001FD34480E990160204601F0FBFC304815
:200960000768204601F0F6FC2E480E990161204601F0F0FC2B480E990160204601F0EAFC45
:20098000B000390B274F29404018254909688904C90F0D18204601F0DDFC0E9838610698B6
:2009A000059945540E9D1D48089901600D9E3E603E643D613E61204601F0CCFC3E603D606C
:2009C0002046089C01F0C6FC3D613E6013480460144F3E603E643D613E613D600124204657
:2009E00001F0B8FC3E60204601F0B4FC07980FB0F0BD0A48089901600A4F3E603E643D6117
:200A00003E613D600124204601F0A4FC3E602046089C01F09FFC03200790D7E78C80424044
:200A200080130A4090120A4081000400F0B589B00193029205910690F148F24F012674031E
:200A4000310307918122039202603C603C643C603960304601F07EFC3D4610353C610096E3
:200A6000304601F077FC07983861E54A039911603C6008943C6404463861069840060495F0
:200A800000D53D4608992960009E304601F062FC25463C600524204601F05CFC3D6120468E
:200AA00001F058FC06988006049800D5384608990160304601F04EFC3D60204601F04AFCF1
:200AC0003D61204601F046FC0698C006049800D5384608990160304601F03CFC3D602046E8
:200AE00001F038FC3D61204601F034FC06980007049800D5384608990160304601F02AFC89
:200B00003D60204601F026FC3D61204601F022FC06984007049800D5384608990160304660
:200B200001F018FC3D60204601F014FC3D61204601F010FC06988007049800D538460899F6
:200B40000160304601F006FC3D60204601F002FC3D61204601F0FEFB0698C00700D004971B
:200B6000049808990160009E304601F0F3FB079D3D60204601F0EEFB3D61204601F0EAFB89
:200B800008983861304601F0E5FB3D60204601F0E1FB3D61204601F0DDFB3D610898386062
:200BA0009748994901603D6098480068800429D50A256E1E0124204601F0CCFB934800686B
:200BC000089908421AD0300618D0AE1E012001F0C1FB8E480068089908420FD030060DD06D
:200BE000ED1E012001F0B6FB884800680899084203D028062E46DCD100E02E463006079DB4
:200C000000D1CAE03E4610363D617D49039A0A600898386038640A60386038643D61059877
:200C200040B20028304600DA3846089901600120069001F08FFB3D600524204601F08AFBF6
:200C40003D61204601F086FB05984006304600D5384608990160069801F07CFB3D60204667
:200C600001F078FB3D61204601F074FB05988006304600D5384608990160069801F06AFBCA
:200C80003D60204601F066FB3D61204601F062FB0598C006304600D53846089901600698E1
:200CA00001F058FB3D60204601F054FB3D61204601F050FB05980007304600D5384608995F
:200CC0000160069801F046FB3D60204601F042FB3D61204601F03EFB05984007304600D555
:200CE000384608990160069801F034FB3D60204601F030FB3D61204601F02CFB0598800757
:200D0000304600D5384608990160069801F022FB3D60204601F01EFB3D61204601F01AFB45
:200D20000598C00700D03E46089830600646069801F010FB3D60204601F00CFB3D612046E6
:200D400001F008FB3D613E60CD49CF4808603D60CC480068304247D00A24651E012001F069
:200D6000F9FAC8480068304239D0280637D0A51E012001F0EFFAC348006830422FD0280688
:200D80002DD0E41E012001F0E5FABE480068304224D020062546E0D121E0B948039901604E
:200DA0002E46089D3D603D643E613D613E60204601F0D0FA3D60204601F0CCFA0398B04992
:200DC00008603D603D643E613D613E60204601F0C1FA3D60204601F0BDFA4EE1254628060D
:200DE000079DA74900D108E13D61039808603E603E64029A002A00D1EFE0002319E0C0463C
:200E00008C80424090120A408100040080130A4025462806079D9A4900D10EE13D610398DD
:200E200008603E603E64049B5B1C029A934200D1D3E0019A0493D25608603E603E6428468F
:200E40003D46103538610692002A284600DA384606600120059001F07DFA079E3E600524B9
:200E6000204601F077FA3E61204601F073FA06984006284600D5384608990160059801F012
:200E800069FA079E3E60204601F064FA3E61204601F060FA06988006284600D53846089921
:200EA0000160059801F056FA079E3E60204601F051FA3E61204601F04DFA0698C0062846FF
:200EC00000D5384608990160059801F043FA079E3E60204601F03EFA3E61204601F03AFAF6
:200EE00006980007284600D5384608990160059801F030FA079E3E60204601F02BFA3E6174
:200F0000204601F027FA06984007284600D5384608990160059801F01DFA079E3E60204663
:200F200001F018FA3E61204601F014FA06988007284600D5384608990160059801F00AFA30
:200F4000079E3E60204601F005FA3E61204601F001FA0698C00700D03D4608992960059888
:200F60000E4601F0F7F9079D3D60204601F0F2F93D61204601F0EEF93D613E60404942488E
:200F800008603D603F480068304200D146E70A24651E012001F0DEF93A480068304200D126
:200FA00037E7280600D134E7A51E012001F0D2F934480068304200D12BE7280600D128E712
:200FC000E41E012001F0C6F92E480068304200D11EE720062546DBD11BE708603E603E6431
:200FE0003D613E613D600124204601F0B3F93E60204601F0AFF900243FE0039808603E606E
:201000003E643D613E613D600124204601F0A2F93E60204601F09EF90398194908603E60AE
:201020003E643D613E613D60204601F093F93E60204601F08FF902241FE0039808603E600E
:201040003E643D613E613D600124204601F082F93E60204601F07EF90398094908603E60BE
:201060003E643D613E613D60204601F073F93E60204601F06FF90498C41C204609B0F0BD8C
:201080008C80424080130A4081000400F0B5FFB08CB0049315460646909800908A91346823
:2010A000204601F0C3FB2018002189910290844244D20022859285A803920273641C0F46F5
:2010C000601E0078002834D0252806D034602946049A90477F1C641CF2E70398C043019030
:2010E0008997601C03903060207885A90873732809D18AA989AA2846049B00F021F88999DD
:20110000039C019A11E005AC85A98AAA204600F035F8024620462946009B9847411C019A7F
:20112000114600D0C1198991039C481C0298BED100E03A4610467FB00CB0F0BD0A46F9E7EA
:20114000F8B504460868051D0D600668002E11D0009414461D46304601F068FB074620682C
:20116000C01920600024BC4207DA305D0099A847641CF8E7002021469847F8BDF0B585B0AA
:2011800001920E4604467F208000251800270397FF210291FE312022204601F039FB0495B9
:2011A0006F70307B252852D06B1C782813D0642811D06F280FD0632820D1019A1068011D9C
:2011C00011600168C8B247424741029A1046FC302018297014E01D4603A904AA3046019BF8
:2011E00000F03BF803980499002803D0481E2D220A7000E00846029A2B4601E02846029A44
:20120000191A0029254601DC611A4D1C411C530000262846324601F035FA002F02D0411C0C
:20122000067000E00146A14206D8481E611A491C202201F0EDFA2670291B2022204601F07D
:20124000E7FA204601F0F2FAC01905B0F0BD00206070252020700120F7E7F8B514460D4611
:201260000646077B194600F014F8317B642904D1002802D50121296040426F2F01D00A2171
:2012800000E00821782F00D11021224600F012F8F8BD007B642805D06F2803D0782801D0CE
:2012A000702804D10868021D0A600068704700207047C046F8B514460D460646002804D129
:2012C0002068411E2160302101700A4F002E0DD03046294600F010F801466943711A795C50
:2012E0002268531E236011700646EFE7206801F09DFAF8BDD428000080B5102903D008299A
:2013000003D1C00880BD000980BD00F0C5FF80BDFEB5002905D03D4C0027072C03D83E46CA
:2013200003E000276FE02646083E8E426BD30197431E08221842074600D01746072800D896
:201340001746C81D029007253148006880473148017800290BD10121092C01D2002203E0BF
:201360002D4A0023936016602C4B1A6001700298A8430290781E7942284C2568002D34D06E
:201380002C46083406190E40B44210D02A4610323346083B9A4201D9F619F9E72A68012393
:2013A0009A43A218029BF3189A42E6D306E02A6801239A43029B9A42DFDB2646284601F0E2
:2013C000E5F9A64216D0301B083829680122D3431940091A286018402F1811430839B960BB
:2013E0000837284601F0FEF805E00D4800688047019F08E02F463846029900F003FD08489A
:201400000068804708373846FEBDC04600080000FC0C2020080D202000002020A80A202048
:20142000000D2020F0B585B00F4606460024E543384800688047384600F0B2FC002863D072
:20144000B8680397F968325D641C002AFBD10095039D6A69072302931A40671E042A019700
:201460000CD10024002F47D0286831193A4601F0E1F8002842D404193F1AF3E70B1A3C46CC
:20148000002C39D09C42274600D31F466969029A11400229049311D1002B07D00021725C40
:2014A0000A2A06D0491C8F42F9D107E000252F4605E0721802D04F1C012500E00025314653
:2014C0003A4601F0D3F903998868C0198860F619E41B002D0D46049B01D1DB1BD0D128467E
:2014E00000F0DAFD002809D1A868E9680B1A696920220A436A61C3E7019D05E06869012151
:20150000890201436961009D034800688047284605B0F0BDFC0C2020000D2020B0B5364AD1
:2015200080184A6842600A78222A56D8930001A4E3589F46D1150000DB150000D1150000AF
:20154000DB150000DB150000DB150000DB150000DB150000DB150000DB150000DB1500000B
:20156000DB150000DB150000DB150000DB150000DB150000C1150000DB150000C11500001F
:20158000DB150000DB150000DB150000DB150000DB150000DB150000DB150000DB150000CB
:2015A000DB150000DB150000DB150000DB150000DB150000C1150000DB150000C1150000DF
:2015C000036803242407A343012464071B1903E0036803242407A34303600B69C360CB68F1
:2015E000C46A064D2540064C1C402B19C362097A11430160B0BDC046041800008888FDFF1B
:2016000077770200F8B5002867D00446334800688047083C324E0022314615463068012762
:201620000246BA43B6180836A1420A46F4D32D4B2B4A072B01D99A18083A964200D900269B
:20164000A14247D1C00745D0002D0AD029683940284600D00020002E06D100292AD10026F5
:201660000BE0002E26D000203178C907314600D0002100280BD00E460546284601F086F8DB
:20168000002E08D100F0B5F9801808300FE0002500292F460ED0304601F078F8002F0DD062
:2016A00000F0A7F933680B408018C018103028602C460CE020680121884307E02068012118
:2016C000C943084032680A40801808302060204600F088FF044800688047F8BDFC0C20202D
:2016E0000000202000080000000D2020F0B585B01E4614460391054600200490C7432F48A9
:20170000006880472868401C4BD00294042C324601D0002A45D001972B1D68686F69002895
:201720000ED0390705D5401E0093FFF76BFF009B3246082087430498186058609860D8605F
:201740000120029C012C00D8044607218F4327436F61FF2A164600D906020398002804D04A
:20176000012A02D0401C18600CE0761C30461C4601F070F82060002819D0401C686008210B
:201780000F436F618119491EA860E96028610C48006880470948006880470A480A49016043
:2017A000049F074800688047384605B0F0BD0120800207436F61019FF3E7C046FC0C2020A3
:2017C000000D2020F00C202005240000F0B581B0324C26262021022730463A462346FEF7F9
:2017E0006FFC2F4D212130463A462B46FEF768FC2078000661780904081829780902401858
:201800006978401827490860222130463A462346FEF756FC232130463A462B46FEF750FCE2
:2018200020780006617809040818297809024018697840181B494860242130463A46234617
:20184000FEF73EFC252130463A462B46FEF738FC20780006617809040818297809024018DB
:20186000697840180F498860304631463A462346FEF726FC272130463A462B46FEF720FC42
:2018800020780006617809040818297809024018697840180349C86001B0F0BDAE0A20209D
:2018A000AC0A20207C0A202082B000F061FF234800F06CFB0024204621462246234600F076
:2018C00023FE6425284600F007FD022000F078FF284600F001FD142000F012FF284600F084
:2018E000FBFC0D2000F01AFF284600F0F5FC144800F05AFF284600F0EFFC1920800100F0D4
:201900001BFF284600F0E8FC012080040D4908600D4908600D4E0E4F0E4D08E0FFF756FF04
:201920000ECF3868009028460C3F00F02FFB30781928F3D300F0CAFA3470EFE7E5280000DD
:201940000000404280E200E000E100E0090D20207C0A2020A0280000002A49D084468B077F
:201960001CD1830722D1102A08D370B4103A78C978C0103AFBD270BC103238D0042A2CD347
:20198000082A05D30C2A01D308C908C008C908C008C908C092072AD0920F22E00B7803703C
:2019A000491C401C521E22D08B07F7D1C30714D18307D8D0121F12D308C903801B0C438075
:2019C000001D121FF8D20AE008C903701B0A43701B0A83701B0AC370001D121FF4D2121D36
:2019E00005D00B780370491C401C521EF9D16046704728680121C943084022680A40704733
:201A0000024670B50A4392072AD11E4DEE0104C808C9541B9443344017D0D0B2D9B2401A79
:201A20002106014310D190B299B2401A210401430AD110021902000A090A401A2102014324
:201A400002D1100E190E401A70BD9A42DFD010BA19BA884201D9012070BD0020C04370BD7D
:201A600002780B7801300131002A09D09A4207D102780B7801300131002A01D09A42EFD059
:201A8000D01A70BD01010101FEB504460025EF430168481C06D002916669204600F0FCFA86
:201AA000002802D03D462846FEBD0120000306400196207D000707D56068401EFFF7A2FD44
:201AC00060690821884360616560A560E560206800F00CFB0546276001980028E3D0064866
:201AE00000688047029800010449081800F0CEFE034800688047D6E7FC0C2020DC0920204F
:201B0000000D2020F8B5451C00780023082B32D02F78C2070CD16A780F241440E41C122CA6
:201B20000BD102242E57F4B2002E08D4EE1C0EE06D1C4A1C0F7011461AE0AE1C08E02E1DBA
:201B4000ED7800957F252C40009DED012C1912343D0112095219094DAA420ED0D243002C40
:201B600005D08D5C4F1C0D70641E3946F7E7354640085B1CCAE72846C5E7F8BDFF0F000018
:201B800010B51549154C204600F030FE1449204600F0D4FA134801680322D20391430160C9
:201BA0000169114A0A40911C016141690B220A4334218A4342614168012211404368934380
:201BC0005918416009490B6894021C430C6001681143016010BDC0460129000000801040E2
:201BE000F4280000009110400000FFFF28901040F8B515460E460746154800688047154C4C
:201C00002770380A6070A670300AE070300C2071300E6071A571280AE071F4200025214666
:201C20002A462B4600F022FC2046294600F004FC2078617809020818A17809044018E1787D
:201C4000090644180448006880472046F8BDC046FC0C20209C0A2020000D202070B59AB093
:201C60000D46064615480068804701AC2046314600F0D5FD304600F0E0FD06462018401CCA
:201C8000294600F0CCFD284600F0D7FD3018831C0B4DF7202946224600F0E8FB002128465B
:201CA00000F0CAFB287869780902081804B205480068804720461AB070BDC046FC0C2020E6
:201CC0009C0A2020000D202070B514460D4606461648006880473068401C1FD0012C08D13D
:201CE000307DC00605D5B068002802D031694019451A304600F0D0F97069052149028843EF
:201D0000706130682946224600F080FC0446084800688047601C06D0002404E00448006840
:201D200080470020C443204670BDC046FC0C2020000D2020FEB5044600680021425C002A39
:201D400017D03A2A01D0491CF8E74618134D22D008290F4600DB0827002912D06A463946A9
:201D600003781370002B06D0521C401C491EF7D107E00A4D0FE0022903D3501C491E00F07A
:201D800063FD68460021C15500F0A4FB002802D0711C216005462846FEBDC046280C202079
:201DA00010B5044601680020491C25D06269D10623D4100605D500210222204600F062FDAE
:201DC0006269900604D4500602D52020024362616168012000290DD1042111400AD10320F0
:201DE00002400120030200212046FFF77FFC014640424841E168216110BD012189020A439F
:201E0000626110BDF8B50446026801251046A843401A102821D366180838B0600836A843ED
:201E2000371808370E4A0F48072A01D910180838009187420DD23878C0070AD1384600F0F9
:201E4000A5FC3068E94308403A680A40801808303060304600F0C6FB009A2A432260F8BD24
:201E600000080000000020208446830706D0002A29D001700130013A8307F8D1042A1CD380
:201E80000906090E0B0219430B041943082A10D30B00102A09D370B40F24161B22400C001C
:201EA0000D003AC0103EFCD870BC082A01D30AC0083A042A01D302C0043A002A03D0013A81
:201EC0008154013AFCD260467047FEE710B5154C207804281DD8C0467844007940008744BD
:201EE0000211070B05004B2080000DE000200BE04B20C0000C4A02E04B20C2000A480146AC
:201F0000134604E00848643001460246034600F013FB2078401CC1B2042900D900202070AD
:201F200010BDC046060D202070FEFFFFF8B514460F460646124800688047124D2C70200AB9
:201F40006870AF70380AE8700023F05C5B1C0028FBD1F0202946324600F088FA002128461E
:201F600000F06AFA287869780902081805B2064800688047002D00D425462846F8BDC04698
:201F8000FC0C20209C0A2020000D202083B01EB505AC0EC401900F48006880470E4A9069D5
:201FA000401C0DD005A902910C48009018320C4B01A8FFF76BF804460A480068804704E071
:201FC0000848006880470020C44320461EBC02BC03B00847FC0C2020B80A20207D2800006C
:201FE00075280000000D2020F8B516460C460746104800688047FF2E01D9012006020E4D3D
:202000002F70380A6870AE70300AE870F22000222946134600F02AFA2846214600F00CFA7C
:20202000287869780902081804B20448006880472046F8BDFC0C20209C0A2020000D20202D
:20204000F8B515460C460746104800688047FF2D01D9012005020E4E3770380A7070B570DA
:20206000280AF070F320314622462B4600F0FEF90021304600F0E0F9307871780902081868
:2020800004B20448006880472046F8BDFC0C20209C0A2020000D202070B504460025EE43B4
:2020A0000068411C18D06168626993060BD5002909D0A3688B4206D05A1A00F0BBFA002875
:2020C0000DD4616862692161A160500605D5302082430025626100E03546284670BD60691C
:2020E00001218A0202433546F4E7704770B50026F44300281AD40546092817D80C48006821
:202100008047E8000B4A115800290CD015180969686888470446401C05D028684189012217
:20212000914341812E60044800688047204670BDFC0C2020A00C2020000D202070B5112294
:202140001302C218C4580125AC43C4500C888D7825438C882C43C558084E2E40084D25402C
:20216000AC19C4508879CB790343087A184351687E23994318400818506070BDE798FDFF18
:2021800018670000B0B505460D48006880470D4C2570280A6070F120002521462A462B461E
:2021A00000F064F92046294600F046F9207861780902081804B20448006880472046B0BD2E
:2021C000FC0C20209C0A2020000D2020B0B504460D48006880470023E05C5B1C0028FBD187
:2021E0000A4DF5202946224600F040F90021284600F022F9287869780902081804B204482B
:20220000006880472046B0BDFC0C20209C0A2020000D20200B480068C0B20B2810D10A48AE
:2022200000680A490A887E2A05D80A88531C0B800749885401E000200880064801210170AA
:202240007047C0462090104024911040040D2020A80B2020070D202010B50948094941601B
:20226000094A5160094B5960094C616009490160116019602160102000F0F2FA10BDC0463A
:2022800000080A40030000B100280A400008864000881040010000261CB50A0017D0002314
:2022A0000124E407A04200D20400944201D95200FBE790425B41904200D3801A914201D21F
:2022C0005208F6E719000200080011001CBD01000020FFF70AFF1CBDB0B50E497D22120252
:2022E00042430B68262006E00D1F2D68E41A6419201890420DD21C460B68A34205D10B6892
:20230000A34202D10B68A342F6D09C42ECD9E41AEEE7B0BD18E000E00C48002101600C4802
:20232000014608390A680323DB4313400B6001680122914301600168130299430160001F06
:20234000016812030A4302607047C04608030B4008010B40B0B50D4940010B68262206E04C
:202360000D1F2D68E41A6419A21882420DD21C460B68A34205D10B68A34202D10B68A342B1
:20238000F6D09C42ECD9E41AEEE7B0BD18E000E070B50A480A4C84420CD00A4D0A4EB542A7
:2023A00008D02A686968501C12789200A25890470835F4E700BF00BF70BDC046782900001F
:2023C0006C290000802900009029000010B50849084C204600F078F907492046FFF79EF893
:2023E000064801680122114301600548026010BDFE28000000008640C02800002810864000
:202400000811864070B50A4C2046FFF73DFB1834084D28680126864209DA2168002903D442
:202420002046FFF731FB2868761C1834F3E770BDB80A2020F80C2020B0B50B4A1368002400
:20244000082C04D015192D790555641CF8E7002909D00C32002B06D010784C1C08705B1EC5
:20246000521C2146F6E7B0BD0008202070B50B4C236020710020082804D00D5C26187571B4
:20248000401CF8E70D34002B06D0501C117821705B1E641C0246F6E700BF70BD00082020E7
:2024A0000446094800688047084D6968002901D0204688472868002800D0804704480068FA
:2024C000804700F0EBF9C046FC0C2020F00C2020000D2020F8B504460078002500280ED0F0
:2024E00000952827074E782F08D0F51928462146FFF786FA002802D02837F4E7009D28468C
:20250000F8BDC046280C2020B0B51C46050A094B1D705870080A9870D970100A18715A713C
:20252000200A9871DC71262007210822FEF77EFAB0BDC0468C0A2020B0B51C46050A094BA3
:202540001D705870080A9870D970100A18715A71200A9871DC71262006210822FEF766FAE9
:20256000B0BDC046940A20201CB5019007480068804701A8FFF7DEFB016A01988847044695
:2025800003480068804720461CBDC046FC0C2020000D202006488221016006494160812103
:2025A00081634163032000030349086008647047548042408200040090120A4080B5FFF7A3
:2025C0004BFEFFF7E7FFFFF7A7FEFFF7FFFEFFF7D7FA00F087F80248B8210022425480BDFA
:2025E00020092020B0B5016801229143064B1C68002C06D0256895438D4202D20834234629
:20260000F5E784601860B0BDA80A2020B0B503460020C043002B0AD4092B08D8DB00044C0A
:20262000E558002D03D0ED69E0184068A847B0BDA00C2020B0B503460020C043002B0AD445
:20264000092B08D8DB00044CE558002D03D0AD69E0184068A847B0BDA00C2020084880F33D
:20266000088800BF00BF00F017F9002801D0FFF78FFE0020FFF718F90120FFF711FFC0467C
:2026800000802020B0B504460020002B08D0D2B20D782570954204D0641C491C5B1EF7D139
:2026A000B0BD601CB0BD704706490A68D20705D00A68D20702D00A68D207F6D1C2B28A6110
:2026C0007047C0460891104010B50122120383180C789C604B7883508978014A815010BDBC
:2026E0000C1100000548042101601F21416000218160016805220A430260704710E000E041
:2027000080B5010A044B19705870262004210222FEF78CF980BDC046B00A202080B5010A53
:20272000044B19705870262003210222FEF77EF980BDC046B20A202080B5010A044B1970A8
:202740005870262002210A46FEF770F980BDC046B40A202004480068C0B2012803D10348EB
:202760000178491C0170704720108640090D202080B5FFF723FF0120C003024908600249D8
:20278000086080BD80E200E000E100E0054A1368002B06D011461A4608328342F7D1806860
:2027A00008607047A80A202080B5044B1860262005210422FEF73AF980BDC046A40A202021
:2027C00080B582B001AB1870262001210A46FEF72DF902B080BD03228058002805D0401E44
:2027E0004A1C00230B701146F7E7704710B50122120383180C789C604978815010BD80B53D
:202800000B4603214258C11D184600F02FF880BD0B4611461A4680B5FFF726FB80BD002266
:202820008B5C8354521C002BFAD170470021425C491C002AFBD1481E70470021425C491C64
:20284000002AFBD1481E70470A46002180B5FFF70BFB80BD80B501460820FEF759FD80BD5A
:20286000811E091F00BFFCD27047000080B5FFF773F880BD80B5FFF717FF80BD80B5FEF7D2
:20288000D1FD80BD80B5FFF71FFA80BD80B5FFF76BFE80BDE2E670470120704700BFFEE7E0
:2028A0004D313A256409204D323A256409204D333A256409204D343A256409200D0A000053
:2028C000020000000F270000010000000000000000000000303132333435363738396162EF
:2028E0006364656600706C6561736520776169742E2E2E0000001800000000300000080716
:082900002704000000000000A4
:20290800005500000F0112014001018F012202C01502030F01240440FF000004BF02017FAB
:202928007EFE013F7802002D1F000085EF210000E90070412000BF00F11B0000CD00F05DD9
:202948001D1C0B9F40280C20061000731DB16800F11CBF02133F1E032400A72600330024B0
:20296800B3FFF000051B0000FF270000D727000002000000B602000008290000B80A20207C
:0829880078290000000820205E
:00000001FF
