:020000040000FA
:10000000B8082020D5000000D9000000DB00000067
:1000100000000000000000000000000000000000E0
:10002000000000000000000000000000DD000000F3
:100030000000000000000000DF000000E100000000
:10004000E3000000E3000000E3000000E300000024
:10005000E3000000E3000000E3000000E300000014
:1000600000000000E3000000E300000000000000CA
:1000700000000000A11A0000E3000000451A000083
:10008000E3000000E3000000251A0000E300000088
:10009000E3000000E300000000000000000000009A
:1000A000E3000000E300000000000000000000008A
:1000B000E300000000000000E3000000E300000097
:1000C0000348854600F0A0FB004800475D1C000087
:1000D000B808202003480047FEE7FEE7FEE7FEE7FA
:1000E000FEE7FEE7C100000003460B439B0703D079
:1000F00009E008C9121F08C0042AFAD203E00B78ED
:100100000370401C491C521EF9D27047D2B201E064
:100110000270401C491EFBD270470022F6E710B562
:1001200013460A4604461946FFF7F0FF204610BD65
:10013000421C0178401C0029FBD1801A70470346FD
:100140000A780270401C491C002AF9D118467047F1
:1001500030B505460020034600E05B1C934205D203
:10016000EC5CC85C201A01D1002CF6D130BD000037
:1001700070B5104D002800D12868002414E00A460C
:1001800002E09E4203D0521C1378002BF9D1DAB260
:10019000224307D0002B06D0002C04D00021017090
:1001A000401C04E00446401C0678002EE7D128607D
:1001B000204670BD0000202070B5064601F0E6FE26
:1001C000046805460A220021304600F0DBF82C6066
:1001D00070BDC20FD207400040080BD0C10D0723ED
:1001E000DB01C91840020905400A1143C208400753
:1001F00011437047002001467047CB0FDB074900D1
:1002000010B5490802460A4307D00A0D072409031E
:10021000E401090B121B002A01DC002010BDC900FB
:10022000440F0C43C100E018D205801800F0E2F83A
:1002300010BD70B50446002903D000202022012300
:1002400010E0002801D00020C043C046C0460DE0A9
:100250002546D5408D4205D30D469540641B1D466D
:10026000954040191546521E002DF1DC214670BD07
:10027000F0B51FB40646002082B005464024019127
:1002800000901BE0019922460F46304600F0DEFA4E
:10029000049A059B801A994110D3104619462246AC
:1002A00000F0C4FA361A8F4101972246012000213E
:1002B000009F00F0BBFA38184D4100902046641EA4
:1002C0000028DFDC019B00982946324607B0F0BDCC
:1002D0000FB400B589B00A460DA9009100230C990E
:1002E000002ACB60234B0693234B079301D00423B2
:1002F00000E00023214A0292214A0892019302461B
:100300006B46002000F063FB09B008BC04B018473E
:10031000F0B585B007460020C04301901E4600207E
:1003200015460C460091029104903B466A463146C0
:1003300004A8FFF7CDFF049902466018002D05D0F0
:10034000002901D0034600E023462B6000290ED08F
:10035000002A02DD0099814209D0001B019000941F
:100360003B466A463146029404A8FFF7B1FF05B048
:10037000F0BD0000250C0000450C0000FFFFFF7FD2
:100380009D080000F7B5009C0F4600262578641CE8
:10039000002D05D000F07EFA0068405DC007F5D161
:1003A0002B2D02D02D2D18D0641E39462046029ADE
:1003B00000F05AFC002F04D03968A14201D1009905
:1003C00039607105022400290BDA4042002803DD60
:1003D00001F0DCFD0460A007FEBD012080020643A1
:1003E000E3E70028F8DA01F0D1FD04600048FEBD23
:1003F000FFFFFF7F002904DA401C490001D14008BB
:100400004000704770B40024050C05D1102400048E
:1004100002D1002921D01124050E01D10002083497
:10042000050F01D10001241D850F01D18000A41CFE
:10043000002801DB4000641C002908D020252E1B69
:100440000D46F540A14000D0012129430843010693
:100450001B1B000ADB1D02D5002070BC7047DB05AA
:10046000181880180029F8DA401C4900F5D170BC32
:100470004008400070470000F0B507460846584065
:1004800087B0C00F049048000E4659004008490844
:10049000BC1A884105D2384631461E4617460B46DF
:1004A00002465800400810434CD0300D03904005E0
:1004B0005900400D490D0590401A0290402872DA0B
:1004C00018030121000B09050843019004980092CC
:1004D000002805D0019952420020884100920190E5
:1004E000029840210A1A0199009800F09FF90546E8
:1004F0000C466B4607CB00F0BAF9C0197141039A5C
:100500000E0D0023D71756401A467A40164344D0A2
:10051000049A002A2DD0029A012A039A15DC1205AA
:10052000C01A914101263605001C7141D20F059E6B
:10053000D2070093019202962A46234600F0F4FB6C
:1005400007B0F0BD38463146FAE71605224A0F4695
:10055000B218C01AB74101210905001C4F4100180B
:100560007F41114618187941E20F10436D1964411B
:1005700013E0E2076D0815436408C2071443039AA9
:1005800001261205C01A91413605001C7141CE07A3
:10059000400830434908C01851412A46234600F01C
:1005A000B6FBCDE7FFE7049801224000C117121AFD
:1005B00000238B4104983146C417381AA141EEE755
:1005C00030B40124E407634030BC55E730B4012463
:1005D000E407614030BC4FE70000E0FFF0B51FB416
:1005E00088B00B990998002448400999C00F490028
:1005F00049080991C0070B990090490049080B91DF
:1006000009990898A64608431CD00B990A980843F4
:1006100018D0099801244000420D4800410D099866
:1006200024050003000B204309900B980003000BE6
:1006300020430B9050181C4940180022019014468A
:10064000104605E0002001460DB0F0BD032801DA98
:10065000034600E003239C46C11A0AAE0AE05F008D
:1006600008ADED5B4F00F75B7D430027AA187C4186
:10067000491C5B1E6145F2DD410004AB5A52210466
:10068000120C0A43240C401C0828DFDB019802905E
:100690000099704601910090059B049A079906986D
:1006A00000F042FBD0E700000DFCFFFFF0B50C4668
:1006B0005C4085B0E40FE40703944C000026640816
:1006C00059009446490802460296224321D06246C8
:1006D0000A431ED06200570D4A000E032303550D36
:1006E000012402462C492405781B1B0B360B4018AD
:1006F00023432643614600901C46501AB44103D35D
:100700000098401C009002E0921800985B4100287D
:1007100003DA0020014605B0F0BD002001210905E3
:100720000746864611E064461D46141BB54106D3B4
:100730006546521BB341744607430C43A646CD079A
:1007400040084908284392185B4105460D43EAD109
:100750001046184313D06046194650407140084374
:1007600006D06046101AB34106D20122002306E0EB
:1007700000220123DB0702E00122D243531000983C
:1007800074460105381C6141029C039D00196941B2
:1007900000F0BDFABFE70000FD0300004A000903B6
:1007A0000123090B1B0519430A4B10B5520D9A4240
:1007B00002DA0020014610BD064B34339A4203DCB6
:1007C0009A1A00F043F810BD034BD21800F02EF82F
:1007D00010BD0000FF030000CDFBFFFF10B5002996
:1007E00004DB0124E40740428C412146002B04DB5A
:1007F0001C460123DB075242A341994200D190429B
:1008000010BD000000000000064C0125064E05E06A
:10081000E36807CC2B430C3C98471034B442F7D321
:10082000FFF752FC382A0000582A000010B5202A91
:1008300004DB0146203A9140002010BD9140202366
:100840009C1A0346E3401943904010BD10B5202A7E
:1008500004DB0846203AD040002110BD0B46D340AF
:10086000D0402024A21A91400843194610BD10B56B
:10087000202A06DBCB170846203A1041C1170B434C
:1008800006E00B461341D0402024A21A91400843B1
:10089000194610BD004870474829000010B50446AD
:1008A000FFF7F8FF0068005DC007C00F10BD000033
:1008B000FFB5087889B01546FF2805D0491C2D28BA
:1008C00004D00022002407E000240BE00122F9E715
:1008D0000A235C430419491C0878FF28F8D1002A30
:1008E00000D06442002004902A7801462D2A01D0CD
:1008F0002B2A0FD16D1C2D2A02D00022049209E070
:100900000122FBE700260A2233466D1C00F05EFA46
:10091000381871412F78FF2FF4D10C9AA218069243
:1009200002460A4304D0FF23069A9133DA4205DADD
:10093000002109980A4606C00DB0F0BD0024B74A50
:10094000B54D2646079200F069FA02900698039189
:10095000002801DA474200E0074639050020AF4A87
:10096000001C51410191009012E0F80707D0224687
:100970002B4630460799FFF731FE0646079122467F
:100980002B4610461946FFF729FE04460D467F10F8
:10099000002FEAD10698019B0028009A039902983B
:1009A00006DAFFF783FE3246079BFFF77FFE05E07E
:1009B000FFF714FE3246079BFFF710FE049A002A49
:1009C00002D00122D2075140099A03C2B4E7FFB511
:1009D00091B0002009900025ED432E209E685C68B0
:1009E0001F460190B9696D1C129888470090396ABA
:1009F00088470028F6D10098401C0AD00D20C0017D
:100A00008443002E12DD00982B2809D02D280DD10B
:100A100003E00020C04315B0F0BD01208002044374
:100A2000B9696D1C12988847761E009003A960056D
:100A300001D52D2000E02B206A461073491C0CA81C
:100A40000F9102900AE0B9696D1C129888470090D6
:100A50000120400204431398761E0560002E02DD3B
:100A600000983028EFD001990098884245D1802025
:100A7000044308E00998401E099001204002044305
:100A80001399681C0860B9696D1C761E1298884716
:100A900000903028EED030E00199884205D1200640
:100AA00003D480200443761E1DE0009801F04CFB27
:100AB000002825D0012149020C43009807AA0F996C
:100AC00003323038761E914208D208700F98401CCD
:100AD0000F90200607D50998401E03E0200602D497
:100AE0000998401C0990A00502D51399681C08605C
:100AF000B9696D1C129888470090002ECCDC59E033
:100B0000002E57DD0098652801D0452852D1A00558
:100B100050D5032000028443B9696D1C761E1298DB
:100B200088470090002E0CDD2B2804D02D2808D1FA
:100B3000FF2001300443B9696D1C12988847761E66
:100B40000090E00501D52D2100E02B2102980170D5
:100B50000298401C0290019025E0012040020443CD
:100B60000EA902980131761E88420ED20098029991
:100B700030380006000E087003D1029901988142B6
:100B80000AD90298401C029006E0E00501D52448ED
:100B900001E0234840420990B9696D1C12988847CA
:100BA000009013980560002E04DD009801F0CCFA47
:100BB0000028D2D1F969129888470F99FF20087050
:100BC000029903AA087000200A900B900CA90AA8A9
:100BD000099BFFF76DFEA00502D40120C0431AE770
:100BE0002420044209D0E00713D138680B9A0A99EF
:100BF000031D3B60006806C00BE00B990A98FFF7E5
:100C0000FCFA0146E00704D13868021D3A6000682A
:100C100001602846FFE60000000014400000F03F9D
:100C2000F1D8FFFF4268002A08D001680B78491C00
:100C3000002B03D0521E06C0184670470121C16028
:100C4000881E70474268002A0BD0C3680168002BD9
:100C500007D183688B4204D0491E521C06C0002075
:100C600070470020C0437047F7B582B0029C002750
:100C70002078641C15460197302802D0002D15D02D
:100C800015E020780127641C782804D0582802D069
:100C9000002D09D00BE0002D01D0102D07D1002729
:100CA00010252078641C02E0082500E00A250026B3
:100CB000009610E00099012769430818020C2946A4
:100CC00080B2714300908E183804864201D301200F
:100CD00001902078641C294600F090F80028E9DA99
:100CE0000398002805D0002F01D0641E00E0029C6C
:100CF00004600198002806D001F048F90221016043
:100D0000C81E05B0F0BD009930040843F9E710B5DE
:100D1000002B08DA0024401C614192185B411A4301
:100D200001D14008400010BDF0B51FB482B00546A7
:100D30000C0003D0084601F011F902E001F00EF9B1
:100D400020300246009021462846FFF76FFD049BA5
:100D5000059A04460F4618431143084314D0184619
:100D600010431BD0009840210A1A18460599FFF736
:100D70006DFD05460E46009A05990498FFF756FD4D
:100D8000084305D0012004E02046394607B0F0BDF5
:100D90000020C11705430E432C43374300990E989A
:100DA0006305401A7905E40A00220C43FD0A0A3063
:100DB00002D500200146E9E70105101969410C9CA4
:100DC0000D9D00196941FFF7A2FFDFE730B54343EE
:100DD00051435C18010C130C0D465D432C1980B275
:100DE00092B20546554351430A0C09044D1962411C
:100DF0005843010C00044019514130BD3A2800D23B
:100E00003038202302469A43412A01D3104637380E
:100E1000884201D30020C043704700000EB5054A48
:100E200002920022009213460192FFF77DFF03B069
:100E300000BD00003304000080B582B02348007874
:100E40000190042834D80198810001A040588746B9
:100E5000650E0000750E0000830E0000930E00006A
:100E6000A30E00004B208300184619461A4600F0D6
:100E70005DF81DE0174B184619461A4600F056F863
:100E800016E04B20C100124B08461A4600F04EF8FF
:100E90000EE04B20C3000E4908461A4600F046F803
:100EA00006E00023184619461A4600F03FF8FFE70F
:100EB00006480178491C01700078052804DBFFE72B
:100EC000024900200870FFE702B080BD100020201A
:100ED00070FEFFFFD4FEFFFF10B58AB01C460392E0
:100EE0000A46039904920346049809AA138008ABA2
:100EF000188007A8018006A90C800024125F1B5FE0
:100F0000005F095F019100901C480590064901F0BF
:100F100011F80598FFF70CF90146059889B200F021
:100F200055FD0AB010BDC046C429000010B58AB0F6
:100F30001C4603920A46039904920346049809AAA0
:100F4000138008AB188007A8018006A90C80002434
:100F5000125F1B5F005F095F0191009007480590D9
:100F6000074900F0E7FF0598FFF7E2F8014605980A
:100F700089B200F02BFD0AB010BDC04684042020C9
:100F8000B229000082B001900199881E001F00BFA5
:100F9000FCD2009002B0704784B00390029101929D
:100FA0000398006800900098019988430090009889
:100FB0000299019A114008430399086004B07047F0
:100FC00084B0039002910192039800680090009809
:100FD00001998843009000980299019A11400843B2
:100FE0000399086004B0704784B0039002910192A5
:100FF0000398006800900098019988430090009839
:101000000299019A114008430399086004B070479F
:1010100081B0009000990120C202DF48885001B0E1
:101020007047C04682B00190009100980349084380
:1010300001998900084A885002B070478000040076
:1010400082B00190009100988021084301998900A5
:10105000014A885002B070470480424081B000903D
:101060000099804A8048885001B070470649086856
:101070000122904308607047034908680122120268
:10108000904308607047C04608010B400349086858
:1010900001221203104308607047C04604010B4050
:1010A00081B001466846017000780249086001B0CD
:1010B0007047C04608030B4080B582B0014601A8C6
:1010C0000170017802480322FFF766FF02B080BD7D
:1010D00000010B4009490868052210430860704769
:1010E00081B000900549042008600098401E044922
:1010F000086004490020086001B0704710E000E07B
:1011000014E000E018E000E081B000900099C84AC7
:101110000120885001B0704782B001900091009B7F
:101120000199974A88581843885002B07047C046C2
:1011300081B0009000990120C2029748885001B008
:101140007047C04681B00090009881214901405805
:10115000C0B201B07047000080B584B00390029126
:1011600003980299496800F0DDF802980078019030
:10117000222856D80198810001A040588746C046D1
:10118000191200002312000019120000231200009F
:10119000231200002312000023120000231200007B
:1011A000231200002312000023120000231200006B
:1011B000231200002312000023120000231200005B
:1011C0000D120000231200000D1200002312000077
:1011D000231200002312000023120000231200003B
:1011E000231200002312000023120000231200002B
:1011F000231200002312000023120000231200001B
:101200000D120000231200000D12000003980121AE
:10121000490700F077F805E00398002100F072F824
:1012200000E0FFE70398029909690022009200F0AC
:101230003BF8009B03980299C9681A4600F016F81B
:1012400002990878097A08430399354A885004B00E
:1012500080BDC04681B000900099834A8348885081
:1012600001B0704704080000030000B110B586B05B
:1012700005900491039202A803700599084A891801
:101280000191017801988900401801900198049912
:10129000039A1143034AFFF793FE06B010BDC04600
:1012A000301800007777020084B00390029101A803
:1012B00002700399064A8918009101780098890004
:1012C0004018009002980099086004B07047C0462A
:1012D0001018000082B001900091009800780199E8
:1012E0007E4A885000984078019901221203885064
:1012F000009880780199024A885002B07047C04631
:101300000C11000080B582B0019000910198044951
:101310004018009903221207FFF752FE02B080BD69
:101320000418000082B00190009100980199024ACF
:10133000885002B07047C0460818000081B0009085
:10134000009911200202885801239843885001B067
:10135000704781B000900099112002028858012343
:101360001843885001B0704782B001900091009BF3
:101370000199034A88581843885002B07047C04604
:101380002810000081B0009000990120C20202489C
:10139000885001B07047C0460100002681B000901F
:1013A0000098812149014058C0B201B0704781B016
:1013B00000900098812149014058C0B201B07047A7
:1013C00080B582B0019000910198FFF7B7FF0198B6
:1013D000112109024018009A1188937819439288C4
:1013E0001143084AFFF700FE019833494018009A5C
:1013F0009179D3791943127A11437E22FFF7F4FDD4
:1014000002B080BD1867020081B0009000980849C2
:1014100040580121084001B07047C04681B000909B
:101420000098034940580121084001B07047C04668
:101430000811000081B00090009806494058C0B2E1
:1014400001B0704781B00090009802494058C0B286
:1014500001B070472411000081B000900099024A49
:101460000248885001B0704704080000030000B132
:1014700080B584B003900291019203980B49401803
:1014800002990B4AFFF788FD03980A494018019911
:101490003F22FFF781FD0399074A881889580122E6
:1014A0001140FFF779FD04B080BDC0461011000067
:1014B000FFFF0000141100000411000082B0019031
:1014C0000091009800780199044A8850009840786B
:1014D000019901221203885002B0704708100000E1
:1014E00080B582B001900091019811210902401845
:1014F00000990322D203FFF74FFD02B080BD82B0F6
:101500000190684601700078019989225201885043
:1015100002B0704782B0019068460170007801996E
:1015200089225201885002B07047000080B582B015
:10153000014601A80170007824280DD1FFE7224858
:101540000078002808D1FFE71F48012101702048DA
:101550000902FEF7E2FD35E01B480078012830D192
:10156000FFE701A8007823280ED1FFE716490020E5
:10157000087016490880174801220270A4481449CF
:101580001202FEF7B1FD1BE010480088FF21023176
:1015900088420BDBFFE70C49002008700B490880EC
:1015A0000B4801210902FEF7B8FD08E00198074940
:1015B0000B88074AD0540888401C0880FFE7FFE7E3
:1015C000FFE7FFE702B080BD1100202012002020BD
:1015D000000220200004202080B5D0B04FA90020B8
:1015E00008708A488A490422FEF7B2FD002852D1C9
:1015F000FFE78748FEF79CFD401F4FA908704EA9E2
:1016000000200870FFE74EA800784FA909788842AB
:101610000DDAFFE74EA802787D48101840797F491F
:101620008854FFE74E98401C4EA90870EBE74FA87E
:1016300002787A490B9100200C9088543AA828210E
:10164000FEF76BFD0B99764A44A800F03FFC0C981E
:101650003990FFE7399803281CDCFFE739990A2203
:1016600009924A433AA80A9080188A0044A98958E6
:10167000FEF765FD09990A98399A51434018FEF71B
:101680009BFD39998A0069498850FFE73998401CC9
:101690003990DFE7B7E05F485D490422FEF758FD67
:1016A000002852D1FFE75A48FEF742FD401F4FA9DC
:1016B000087038A900200870FFE738A800784FA903
:1016C000097888420DDAFFE738A8027850481018E8
:1016D000407952498854FFE73898401C38A908706F
:1016E000EBE74FA802784D490791002008908854F5
:1016F00024A82821FEF711FD0799494A2EA800F0D9
:10170000E5FB08982390FFE7239803281CDCFFE7FC
:1017100023990A2205924A4324A8069080188A0039
:101720002EA98958FEF70BFD05990698239A514377
:101730004018FEF741FD23998A003B498850FFE796
:101740002398401C2390DFE75CE0334830490422B3
:10175000FEF7FEFC002854D1FFE72D48FEF7E8FC19
:10176000401F4FA9087022A900200870FFE722A897
:1017700000784FA9097888420DDAFFE722A802789D
:1017800023481018407925498854FFE72298401CC7
:1017900022A90870EBE74FA80278204903910020A6
:1017A000049088540EA82821FEF7B7FC03991C4A20
:1017B00018A800F08BFB04980D90FFE70D98032804
:1017C0001EDCFFE70D990A2201924A430EA80290FF
:1017D00080188A0018A98958FEF7B1FC019902986F
:1017E0000D9A5143401801F058F8FEF706FD0D9987
:1017F0008A000C498850FFE70D98401C0D90DDE7EA
:10180000FFE7FFE7FFE750B080BDC046332A000086
:10181000000320202E2A0000292A00001400202086
:10182000AF290000F00120202401202014012020F5
:1018300080B582B0142002210191FFF701FC0199CB
:101840001520FFF7EFFB01991620FFF7F9FB01992F
:101850001720FFF7E7FB02B080BD80B582B0002003
:101860000190FFF71DFC0198FFF726FCFFF7FEFB38
:10187000FFF702FCFFF70AFC02B080BD80B5202014
:10188000FFF72EFCFFF726FC80BD000080B582B07C
:1018900008496B480190FFF71DFD01980649FFF7C5
:1018A0005BFC01980121FFF737FC0198FFF72CFC46
:1018B00002B080BD4C2900005029000080B582B0E4
:1018C0000D49E5480190FFF7F9FD01980B49FFF735
:1018D00077FD01980021FFF703FE019802210B22FA
:1018E000FFF7C6FD019801218902FFF73DFD019830
:1018F000FFF72FFD02B080BD6429000066290000BB
:1019000080B582B00D4972480190FFF7D7FD01986C
:101910000B49FFF755FD01980021FFF7E1FD019804
:1019200002210B22FFF7A4FD019801218902FFF794
:101930001BFD0198FFF70DFD02B080BD702900006E
:101940007229000080B500F013F8FFF771FFFFF770
:1019500084FFFFF79BFFFFF7B1FFFFF7D1FFFFF712
:101960008DFF0249B8220020885480BD3401202018
:1019700080B586B013480190FFF770FB12480290C3
:10198000FFF76CFB2E480390FFF764FCB24804900D
:10199000FFF762FD4E480590FFF75EFD0198FFF7E7
:1019A00037FB0298FFF734FB0398FFF7C1FB04985D
:1019B000FFF7E8FC0598FFF7E5FC1020FFF7E2FAD7
:1019C00006B080BD00000A4000200A4080B582B009
:1019D000019068460180FFE76A461088411E118029
:1019E000002808D0FFE70198007800F007F8019878
:1019F000401C0190F0E702B080BD000080B582B0CD
:101A000001A90870FFE73248FFF708FD002801D060
:101A1000FFE7F8E701A801782D48FFF77BFD02B04A
:101A200080BDC04680B50648FFF78CFB012805D174
:101A3000FFE7D2490878401C087000E0FFE780BD4E
:101A40000000864080B582B001A90020087082485D
:101A5000FFF7A4FC0B281AD1FFE77F48FFF7EAFC49
:101A600001A908700B4800887E2808DCFFE7019870
:101A7000084B1A88511C19800749885403E005490E
:101A800000200880FFE705490120087000E0FFE71B
:101A900002B080BD82042020010420208104202087
:101AA00080B582B001A9002008700948FFF77FFCCB
:101AB0000B280AD1FFE70648FFF7C4FC014601A83E
:101AC00001700078FFF732FD00E0FFE702B080BD53
:101AD0000000104080B582B0FFF734FF0F20009067
:101AE00000F020F80D20019000F01CF8009800F0A4
:101AF00043F8019800F040F802B080BD81B0014683
:101B00006846017000214056002809D4FFE7684666
:101B100001781F200140012088400C490860FFE740
:101B200001B0704781B001466846017000214056FF
:101B3000002809D4FFE7684601781F2001400120F2
:101B4000884002490860FFE701B0704780E200E08A
:101B500081B001466846017000214056002809D432
:101B6000FFE7684601781F200140012088400C49AA
:101B70000860FFE701B0704781B001466846017018
:101B800000214056002809D4FFE7684601781F204D
:101B900001400120884002490860FFE701B070471A
:101BA00000E100E080B582B0019001997D20C00085
:101BB000484300F003F802B080BD000085B00490F7
:101BC0002620009004984001039017480068029076
:101BD000FFE71548006801900198029988421FD0DC
:101BE000FFE701980299884207D2FFE7029801991E
:101BF000411A00984018009009E00C4800680199CB
:101C0000401A02994118009840180090FFE7019887
:101C1000029000980399884201D3FFE701E0FFE7B3
:101C2000D7E705B07047C04618E000E014E000E0D8
:101C300080B582B001900091FFE70748FFF7E4FB11
:101C4000002801D0FFE7F8E701A801780248FFF774
:101C500056FC019802B080BD00801040F0B591B0F4
:101C600000200D901090FFF735FF424800F052F928
:101C70000D9B184619461A46FFF72EF964200C9062
:101C8000FFF790FF0D9A1046114600F0DFF80A208A
:101C90000E90FFF787FF022000F090F80C98FFF7F6
:101CA00081FF142000F0BAF80C98FFF77BFF0D209D
:101CB00000F09CF80C98FFF775FF2F4800F0EAF849
:101CC0000C98FFF76FFF1920800100F05FF80C9867
:101CD000FFF768FF0D990122084600F0B7F80E984B
:101CE000FFF760FF12200F90FFF708FF0F98FFF734
:101CF0002FFFFFE721480078192806DBFFE7FFF7F1
:101D00009BF81E4900200870FFE71D480078012855
:101D10002ED1FFE71A4900200870FFF75DFC194833
:101D200007900068FEF755FA024607980892099155
:101D30004068FEF74EFA024607980A920B918068B7
:101D4000FEF747FA044607980D46C068FEF741FAC9
:101D5000089A099B06460A980F460B990597049620
:101D60000395029401910090074800F0D3F8FFE733
:101D7000C0E7C0467C29000000004042B604202095
:101D800000042020F00120208D29000080B582B0C1
:101D9000014601A8018002884A480090064900F0E7
:101DA000C9F80098FEF7C4F90146009889B2FFF718
:101DB0000DFE02B080BDC046F329000080B582B0A0
:101DC000014601A8017002783E480090064900F0E3
:101DD000B1F80098FEF7ACF90146009889B2FFF718
:101DE000F5FD02B080BDC046012A000080B582B07A
:101DF000014601A80180028832480090064900F09F
:101E000099F80098FEF794F90146009889B2FFF717
:101E1000DDFD02B080BDC046E829000080B582B07B
:101E2000014601A80180028826480090064900F07A
:101E300081F80098FEF77CF90146009889B2FFF717
:101E4000C5FD02B080BDC0460C2A000080B586B03A
:101E500001910346019805A90B7004AB187003A803
:101E600002700A7801210A401B780B400078084074
:101E7000009014480290064900F05CF80298FEF7C2
:101E800057F90146029889B2FFF7A0FD06B080BD60
:101E9000D629000080B582B001900198FEF799F92B
:101EA00002460B4607480090074900F043F80098A7
:101EB000FEF73EF90146009889B2FFF787FD02B0B0
:101EC00080BDC04684042020182A000080B586B05A
:101ED00005900491039204980399FEF749F9029042
:101EE00002980599086001200190FFE702980028F8
:101EF0000ED0FFE703990020FEF73AF9029002980E
:101F00000599019A920088500198401C0190EDE7D4
:101F100006B080BD0FB410B503A9044B044A029863
:101F200000F01AF910BC08BC04B01847311C0000BE
:101F3000040020200FB410B504A9074B02AA03988F
:101F400000F00AF9044602A9002000F0A1FC204696
:101F500010BC08BC04B01847912800002021020CD6
:101F600001D010211046020A01D01046083902099A
:101F700001D01046091F820801D01046891E420870
:101F800001D0881E7047081A70470000004870474B
:101F90000800202001480068704700000800202049
:101FA00002E008C8121F08C1002AFAD170470000D9
:101FB0007047000000000000002001E001C1121F76
:101FC000002AFBD1704700000149086070470000FB
:101FD00008002020F0B51FB486B00998089A030DB8
:101FE0000021024314D05148514A18185043051497
:101FF0001198012810981AD0281A401C00264D4F1D
:102000004D49009601910490002812DA444211E0F3
:102010001198012449A3012801D11098C1430698C1
:10202000119A84600360C26041600BB0F0BD404211
:10203000E4E70446210500203F4A001C514103917A
:10204000029012E0E00707D032463B460199009823
:10205000FEF7C4FA0191009032463B4610461946FD
:10206000FEF7BCFA06460F466410002CEAD104982D
:10207000039B0028029A0999089806DAFEF7AEFA3F
:10208000019B009AFEF7AAFA05E0FEF70FFB019B01
:10209000009AFEF70BFB04460E460022284BFEF783
:1020A0009DFB03D80020C043014607E00022254BDA
:1020B00020463146FEF7E0F9FEF770FB102409E0F8
:1020C000002C0ADB0A220023FEF7D2F8079B3032ED
:1020D0001A55641E02460A43F2D11122641C079B62
:1020E000121B1C19119B012B03D0012308430ED195
:1020F0000AE0084304D0112010900020119077E7E7
:102100001098151A6D1E0BE01098824202DD002314
:102110006D1C03E0824201DA00236D1E002BEED01D
:10212000069811998260C16030C07EE701FCFFFF14
:10213000104D0000000014400000F03F300000008F
:102140000000F0430000E03F30380A2801D20120AF
:102150007047002070470000FFB597B00646002585
:1021600018E2252877D100242746FD49049400E091
:102170000443761C32780120203A90400842F7D17F
:1021800030782A280ED002223078014630390929C9
:1021900016D804990A235943303940181443761C41
:1021A0000490F1E7189802C804911890002904DA05
:1021B0000120400304434842049002200443761C5B
:1021C00030782E2814D1042004437078761C2A28F5
:1021D00009D11898761C80C8189009E00A214F434D
:1021E000303FC719761C3078014630390929F5D9B6
:1021F00030786C2810D006DC4C281AD068280ED015
:102200006A2817D104E0742813D07A2812D110E07C
:102210000120400504430CE00121090501E00321F0
:1022200009050C437178814203D10120000524186F
:10223000761C761C3078119066280BD013DC582859
:102240007DD009DC00287BD04528F6D04628F4D084
:1022500047281AD1A5E118E0632835D0642870D04A
:10226000652812D19DE170286CD008DC6728F1D078
:1022700069287BD06E280DD06F2806D1BAE073286C
:102280002ED0752871D0782859D01A9A199990476C
:102290006D1C7EE16002400F022809D003280DD09A
:1022A0000428189801680DD00D60001D189070E189
:1022B0001898EA1701680D604A60F6E718980168F7
:1022C0000D80F2E70D70F0E718986A4601781172F8
:1022D000001D18900020507202A80090012005E017
:1022E000189802C8189000200091C04361070DD5CE
:1022F000002101E00199491C0191B94212DA8142A1
:10230000F8DB009A515C0029F4D10BE0002101E0D8
:102310000199491C01918142FADB019A0099895C7B
:102320000029F5D1019904981A9B471A214638468D
:10233000199A00F097FA0199401945180BE04FE0FF
:102340002CE113E04EE0009800990078491C0091C0
:102350001A9A199990470198401E0190401CF2D199
:10236000214638461A9B199A10E137E00A200021CD
:10237000009001916002410F022907D0189A01CA0A
:102380001892C2179446032908D00AE01898C01D75
:10239000C108C90005C91891944607E000B2C217E8
:1023A0009446042902D140B2C1178C4600226146EE
:1023B000944506DA0A460021404291418C462D217F
:1023C00002E0210504D52B216A461173012103E0A7
:1023D000E10701D02021F7E7029155E00A200AE049
:1023E000102008E0102000900021042004430191F7
:1023F000082703E008200021019100906002410FAE
:10240000022907D0189A01CA18920022944603297B
:1024100008D008E01898C01DC108C90005C9189166
:10242000944603E080B2042900D1C0B20021029199
:10243000210729D51199702906D0009A1021019BF6
:102440004A401A4305D00EE040216A46117301212B
:1024500008E06146014306D030216A4611731199A4
:10246000517302210291009A0821019B4A401A43AC
:102470000AD16146014301D1610705D530216A4681
:10248000117301217F1E02911199582904D035A1A1
:102490000E910DA90D910DE037A1F9E76146019B61
:1024A000009AFDF7E5FE0E9B8C469B5C0D9A521E32
:1024B0000D92137061460143F0D10D9805A9081AD9
:1024C00020300190600703D501200004844300E020
:1024D00001270198874201DD381A00E000200199A8
:1024E00000904118029809180498401A0490E003DB
:1024F00006D421461A9B199A049800F0B3F945199D
:10250000002706E003A81A9AC05D199990476D1C30
:102510007F1C02988742F5DBE0030CD521461A9B0D
:10252000199A049800F09EF9451904E01A9A30208F
:10253000199990476D1C0099481E00900029F5DC00
:1025400008E00D980D990078491C0D911A9A199977
:1025500090476D1C0199481E01900029F1DC63E150
:102560000928010030313233343536373839616269
:10257000636465660000000030313233343536372D
:1025800038394142434445460000000000F05AF902
:102590004519761C3078002800D0E2E528461BB0AB
:1025A000F0BD600700D406271898C01DC108C900F7
:1025B00048680A680831C30FDB071891190001D079
:1025C0009CA108E0210501D59BA104E0E10701D011
:1025D0009AA100E09AA1430011985B081091652828
:1025E0000CD006DC452809D046281DD0472841D10B
:1025F00041E0662818D067283CD13CE00021112F2B
:1026000001DB112000E0781C0191009008A911A8BD
:10261000FFF7E0FC139905910021119A15927F1C98
:1026200012980197009150E00120C007039001200B
:10263000019008A9009711A8FFF7CCFC139A1499F0
:1026400005920022119B009212981593059A01920F
:10265000002901D0104602E0791C40180190381A78
:1026600001D5019804E04042401E0090781C019082
:10267000C01B029043E0012F00DA01270021112F37
:1026800001DD112000E038460191009008A911A851
:10269000FFF7A0FC13990591119A00211298159249
:1026A0000091019721070CD40599B94201DB0199EA
:1026B00000E00191012904DD159A491E515C302981
:1026C00006D0B84201DA011D05DA0121029115E0B8
:1026D0000199491EEDE7002805DC00994118009199
:1026E0000199091A03E0019A411C914200DD019110
:1026F0000099401A401C02900120C0070390200757
:1027000006D402990198814202DB0020C043029066
:1027100000206946C87707AF012103980337C9072E
:10272000884224D0022011902B2012900398002878
:102730000CDA404203902D20129007E00A21039802
:10274000FDF777FD30317F1E039039701199481ED7
:1027500011900029F2DC03980028EFD1791E12981D
:1027600008703078202108404530BF1E387006A818
:10277000C01BC01D039010980078002800D00120D5
:10278000019941180298C01709180398091804986C
:10279000401A401E0490E00306D421461A9B199A61
:1027A000049800F05FF8451910980078002803D0CD
:1027B0001A9A199990476D1CE00324D521461A9B5B
:1027C000199A049800F04EF845191CE0009800286A
:1027D00007DB00990598884203DD1598405C19993C
:1027E00001E0199930201A9A904700986D1C401CFE
:1027F00000900298401E0290002804D11A9A2E20C0
:10280000199990476D1C0199481E01900029DDDC43
:1028100005E038781A9A7F1C199990476D1C039926
:10282000481E03900029F4DC21461A9B199A04984B
:10283000ACE600002D0000002B000000200000008E
:1028400000000000F8B5044600251E46174688041F
:1028500004D405E039462020B0476D1C641EF9D52C
:102860002846F8BDFFB50446002581B01E46C803C2
:1028700001D5302700E02027880404D505E038463C
:102880000399B0476D1C641EF9D5284605B0F0BD0C
:102890000A68531C0B601070704730B583B0044653
:1028A000FFF778FB054600200090024601900123C7
:1028B00021466846FDF72CFD2846FFF785FB019968
:1028C000009803B030BD0040404040404040404090
:1028D00041414141414040404040404040404040F3
:1028E0004040404040404005020202020202020213
:1028F00002020202020202202020202020202020AA
:102900002002020202020202909090909090101019
:1029100010101010101010101010101010101010B7
:10292000101002020202020288888888888808083B
:102930000808080808080808080808080808080817
:102940000808020202024000C7280000080727000A
:10295000020000000F27000001000000000000003E
:10296000000000000400000018000000003000001B
:1029700004000000180000000030000070656C6169
:10298000736520776169742E2E2E0D0A004D313A41
:10299000252E32662C4D323A252E32662C4D333A96
:1029A000252E32662C4D343A252E32660D0A002C27
:1029B0002000247370643A25642C25642C25642C33
:1029C000256423002470776D3A25642C25642C251A
:1029D000642C256423002475706C6F61643A25644F
:1029E0002C25642C25642300246D6C696E653A25C2
:1029F00064230024646561647A6F6E653A256423FC
:102A000000246D747970653A25642300246D706824
:102A10006173653A2564230024776469616D657488
:102A200065723A252E336623004D535044004D54B1
:102A30004550004D416C6C00582A000000002020D9
:102A400010000000A01F0000682A000010002020D5
:102A5000A8080000B81F00000000000000000000EF
:082A600000000000000000006E
:04000005000000C136
:00000001FF
