:020000040800F2
:1000000078040020490100087106000889030008EF
:100010006D060008BD0100082B0E0008000000005E
:100020000000000000000000000000008908000837
:100030007102000800000000E50600082D0A000813
:100040006301000863010008630100086301000800
:1000500063010008630100086301000863010008F0
:1000600063010008630100086301000863010008E0
:1000700063010008630100086301000863010008D0
:1000800063010008630100086301000863010008C0
:1000900063010008630100086301000863010008B0
:1000A00063010008630100086301000863010008A0
:1000B00063010008910A0008630100086301000859
:1000C0006301000863010008630100086301000880
:1000D000630100082D0C000863010008630100089B
:1000E0006301000863010008630100086301000860
:1000F0006301000863010008630100086301000850
:10010000630100086301000863010008630100083F
:10011000630100086301000863010008630100082F
:10012000630100086301000863010008630100081F
:10013000DFF810D000F030F8004800471D1200082A
:10014000AFF3008078040020064880470648004747
:10015000FEE7FEE7FEE7FEE7FEE7FEE7FEE7FEE777
:10016000FEE7FEE7310A00083101000830B50B4612
:10017000014600202022012409E021FA02F59D42D7
:1001800005D303FA02F5491B04FA02F52844151EAB
:10019000A2F10102F1DC30BD064C074D06E0E0683B
:1001A00040F0010394E8070098471034AC42F6D3BE
:1001B000FFF7C2FF90130008B013000800BFFEE76E
:1001C00010B51E48007805282AD2DFE800F0030B9E
:1001D000121A22004FF496731A461946184600F078
:1001E00021FF1DE0164B1A461946184600F01AFF6B
:1001F00016E0144B1A464FF49671084600F012FFB1
:100200000EE04FF496731A460E49084600F00AFFB6
:1002100006E000231A461946184600F003FF00BF07
:1002200000BF06480078401C044908700846007862
:10023000042801DD0020087010BD0000010000202E
:10024000D4FEFFFFA8FDFFFF0146072323EA0102BA
:100250001202054B18684FF6FF031840034B184372
:100260001043014B186070470CED00E00000FA05E8
:1002700070472DE9F04102460025002600200023AA
:100280000024002791F803C00CF00F0591F803C07B
:100290000CF0100CBCF1000F03D091F802C04CEA36
:1002A000050591F800C0BCF1000F31D014680020A2
:1002B0002BE04FF0010C0CFA00F3B1F800C00CEA8F
:1002C00003069E4220D183004FF00F0C0CFA03F777
:1002D000BC4305FA03FC4CEA040491F803C0BCF1EA
:1002E000280F06D14FF0010C0CFA00FCC2F814C024
:1002F0000AE091F803C0BCF1480F05D14FF0010CA2
:100300000CFA00FCC2F810C0401C0828D1D31460BD
:10031000B1F800C0BCF1FF0F34DD546800202EE0BE
:1003200000F1080C4FF0010808FA0CF3B1F800C016
:100330000CEA03069E4221D183004FF00F0C0CFA09
:1003400003F7BC4305FA03FC4CEA040491F803C02C
:10035000BCF1280F05D100F1080C08FA0CF8C2F81E
:10036000148091F803C0BCF1480F07D100F1080CCC
:100370004FF0010808FA0CF8C2F81080401C082859
:10038000CED35460BDE8F08100BFFEE710B5002079
:100390000E4908600E48006820F470400C4908605F
:1003A0000846006840F44050086000200949C1F840
:1003B000AC01012000F098FE01200449086000F023
:1003C00093FE00200349C1F8A80110BDA881214275
:1003D000040C01400080214208B50121082000F0F2
:1003E00093F94FF44060ADF8000010208DF8030041
:1003F00003208DF8020069460148FFF73AFF08BD67
:10040000000C014010B500200E4908600E4800683D
:1004100020F470400C4908600846006840F44050E1
:10042000086001200949C1F8AC0100F05DFE01201F
:100430000449086000F058FE00200449C1F8A801F2
:1004400010BD0000A8812142040C0140008021421F
:1004500070B5054600241748006820F4704015491F
:1004600008600846006840F400400860002616E076
:10047000002011490860022000F036FE01200F49DB
:10048000C1F8A8016006040E0B487C38006808B16A
:10049000601CC4B2022000F027FE701CC6B2082EF9
:1004A000E6DB15B1FFF772FF01E0FFF7ABFF204677
:1004B00070BD0000040C0140A8812142008021424F
:1004C00070B504461448006820F470401249086072
:1004D0000846006840F44050086000200F4908605A
:1004E000002516E0E0090D49091D08606006040EAC
:1004F000012000F0F9FD01200949C1F8A80100F030
:10050000F3FD002005490860012000F0EDFD681CA6
:10051000C5B2082DE6DB70BD040C0140A881214264
:100520000080214210B51648006820F4704014493C
:1005300008600846006840F44050086001201149F6
:1005400008601148D0F82C0108B9002010BD012026
:100550000C49091F086000F0C7FD00200A49C1F8D6
:10056000AC0108488038006808B10020EEE701209F
:1005700000F0BAFD00200349091F08600120E5E7EB
:10058000040C0140AC8121420080214210B50E488C
:10059000006820F470400C4908600846006840F488
:1005A000405008600020094908600949C1F8AC01C1
:1005B000012000F099FD0120044908600449C1F8B8
:1005C000AC0100F091FD10BD040C0140A881214256
:1005D0000080214210B500241548006820F47040C6
:1005E000134908600846006840F400400860012094
:1005F0001049086000F078FD01200F49C1F8A801FA
:1006000000F072FD0AE0601CC4B2322C03DDFFF77B
:10061000BDFF002010BD012000F066FD05488038B8
:1006200000680028EFD10349091F08600120F1E7A5
:10063000040C0140AC812142008021420146490660
:10064000084A926942F00102064B9A61064A5268D2
:1006500022F0E062044B5A601A4652680A435A601C
:1006600070470000001002400000014000BFFEE79C
:100670007047000070B5002100230F22C47804B336
:10068000154C246804F4E064C4F5E064210AC1F167
:100690000403CA40447804FA03F1847814402143E7
:1006A00009010E4C0678A155047804F01F050124B9
:1006B000AC4005786D11AD0005F1E025C5F80041AD
:1006C00009E0047804F01F050124AC40044D0678CD
:1006D000761145F8264070BD0CED00E000E400E026
:1006E00080E100E07047000029B1064AD269024368
:1006F000044BDA6104E0034AD2698243014BDA61B8
:10070000704700000010024029B1064A9269024376
:10071000044B9A6104E0034A92698243014B9A6157
:10072000704700000010024030B500210022002474
:1007300000232D4D6D6805F00C0121B1042905D071
:10074000082923D105E0294D056022E0274D0560E9
:100750001FE0254D6D6805F47012234D6D6805F49A
:100760008034022505EB92421CB9214D55430560AA
:100770000BE01D4D6D6805F400351DB11C4D554352
:10078000056002E0194D5543056002E0174D056014
:1007900000BF00BF144D6D6805F0F0010909154D4B
:1007A0006B5C0568DD4045600F4D6D6805F4E061E8
:1007B000090A104D6B5C4568DD4085600A4D6D6827
:1007C00005F46051C90A0B4D6B5C4568DD40C5609E
:1007D000054D6D6805F44041890B074D6B5CC5689C
:1007E000B5FBF3F5056130BD0010024000127A0040
:1007F00000093D00180000202800002010B5204B03
:1008000002221021262000F09DFC1D4890F90100D5
:100810001B4991F9001040EA01201A490860184B61
:1008200002221121262000F08DFC154890F90100CC
:10083000134991F9001040EA012012494860104B19
:1008400002221221262000F07DFC0D4890F90100C3
:100850000B4991F9001040EA01200A498860084BD1
:1008600002221321262000F06DFC054890F90100BA
:10087000034991F9001040EA01200249C86010BD07
:100880005000002058000020704710B500F002F81A
:1008900010BD00000CB500200190009033480068A6
:1008A00040F480303149086000BF3048006800F4EF
:1008B000003000900198401C0190009818B90198F0
:1008C000B0F5A06FF1D12948006800F4003010B1F4
:1008D0000120009001E0002000900098012843D101
:1008E0002348006840F0100021490860084600686D
:1008F00020F0030008600846006840F0020008602D
:100900001A484068194948600846406848600846E7
:10091000406840F4806048600846406820F47C10DD
:1009200048600846406840F4E8104860084600689F
:1009300040F08070086000BF0C48006800F0007054
:100940000028F9D00948406820F0030007494860B2
:100950000846406840F00200486000BF0348406815
:1009600000F00C000828F9D10CBD00000010024076
:100970000020024010B50446200A054908704C705A
:100980000B4602220421262000F017FC10BD0000B7
:100990003A00002010B50446200A054908704C7042
:1009A0000B4602220321262000F007FC10BD0000A8
:1009B0003800002010B504460549204600F0B2FB7F
:1009C000034B04220521262000F0F7FB10BD000098
:1009D0003C00002010B50446200A054908704C7000
:1009E0000B4602221146262000F0E7FB10BD000056
:1009F0003600002001B56B4602220121262000F0BE
:100A0000DCFB08BD042808D14FF0E021096941F062
:100A100004014FF0E022116107E04FF0E021096985
:100A200021F004014FF0E02211617047704700008F
:100A300010B51348006840F00100114908600846ED
:100A40004068104908400E494860084600680E4951
:100A500008400B4908600846006820F480200860C0
:100A60000846406820F4FE0048604FF41F0088608C
:100A7000FFF70BFF4FF000600449086010BD000055
:100A8000001002400000FFF8FFFFF6FE08ED00E056
:100A900010B501210B4800F05DF888B1012109482B
:100AA00000F049F808480078401C074908700748DA
:100AB0000088002804DD05480088401E034908809E
:100AC00010BD0000000400400000002034000020A1
:100AD0001FB501210220FFF707FE41F61F40ADF8C8
:100AE00004006320ADF8080001A9104800F04CF89C
:100AF00001210E4800F01CF8012211460B4800F0BD
:100B00003AF81D208DF8000004208DF80100022025
:100B10008DF8020001208DF803006846FFF7AAFD5A
:100B20000121024800F00AF81FBD00000004004047
:100B3000CA4302827047CA430282704721B10288C9
:100B400042F00102028004E002884FF6FE731A4070
:100B50000280704730B50246002000230024158A29
:100B600005EA0103958905EA010413B10CB10120DE
:100B700000E0002030BD1AB183890B43838102E07D
:100B800083898B4383817047002202881D4B9842E2
:100B90000ED01D4B98420BD0B0F1804F08D01B4BAC
:100BA000984205D01A4B984202D01A4B984204D171
:100BB0004FF68F731A404B881A43174B984207D051
:100BC000164B984204D04FF6FF431A40CB881A4385
:100BD00002808B8883850B8803850A4B98420BD053
:100BE000094B984208D00E4B984205D00D4B9842C5
:100BF00002D00D4B984201D10B7A038601238382E8
:100C000070470000002C0140003401400004004007
:100C100000080040000C004000100040001400409C
:100C200000400140004401400048014010B500244C
:100C300040F22551054800F034F830B1034800F087
:100C4000EBF8C4B2204600F003F810BD00380140B4
:100C500010B5044600BF8021044800F015F80028B4
:100C6000F9D02146014800F0DCF810BD0038014001
:100C700021B1828942F40052828104E082894DF6DA
:100C8000FF731A408281704702460020B1F5007F51
:100C900000D100BF13880B400BB1012000E0002001
:100CA000704770B50246002400230025002040F65E
:100CB0006A16B14200D100BFC1F3421501F01F0313
:100CC000012606FA03F3012D02D19689334006E08E
:100CD000022D02D1168A334001E0968A33400C126D
:100CE000012606FA04F41688344013B10CB1012031
:100CF00000E0002070BDF0B503460024002600256A
:100D0000002040F66A17B94200D100BF1846C1F36F
:100D1000421401F01F06012707FA06F5012C01D144
:100D20000C3004E0022C01D1103000E014301AB174
:100D300007682F43076002E00768AF430760F0BD14
:100D40002DE9F04786B005460E460024A24600BFB6
:100D5000A1460027B08900B100BF2F462C8A4CF66F
:100D6000FF700440F08804432C82AC894EF6F310E7
:100D70000440B08831890843718908430443AC8139
:100D8000AC8A4FF6FF400440B0890443AC8201A80E
:100D9000FFF7CAFC1F48874202D1DDF810A001E02E
:100DA000DDF80CA0A88900F4004040B10AEBCA00AD
:100DB00000EB0A1031684900B0FBF1F807E00AEBDC
:100DC000CA0000EB0A1031688900B0FBF1F864201A
:100DD000B8FBF0F004012009642101FB1089A88907
:100DE00000F4004040B1322000EBC900B0FBF1F04C
:100DF00000F00700044308E0322000EB09106421F2
:100E0000B0FBF1F000F00F0004432C8106B0BDE808
:100E1000F08700000038014001468888C0F30800D0
:100E20007047C1F308028280704700BFFEE70000F0
:100E30000FB4054B10B503A9044A029800F018F846
:100E400010BC5DF814FB00002911000830000020E0
:100E500002E008C8121F08C1002AFAD17047704783
:100E6000002001E001C1121F002AFBD170470000E1
:100E70002DE9FF4F89B09B460446002506E0252852
:100E80000BD05A460B999047641C6D1C20780028A3
:100E9000F5D10DB02846BDE8F08F0027B8460122F5
:100EA000474900E0074314F8013F203B02FA03F0F2
:100EB0000842F7D120782E2819D114F8010F47F0F5
:100EC00004072A280ED06FF02F022078A0F13001FD
:100ED00009290CD808EB880102EB410100EB01085D
:100EE000641CF2E70A98641C50F8048B0A9020787E
:100EF0000028CED0642808D0692806D075281ED0D6
:100F00005A460B9990476D1C58E00A994FF00A0910
:100F100001C90A91002802DA40422D2102E0390578
:100F200004D52B218DF82010012103E0F90704D00E
:100F30002021F7E78A4608AE0DE00021FAE70A997A
:100F40004FF00A0901C90A91F7E74946FFF70EF980
:100F5000303106F8011D0028F7D1ADEB060000F195
:100F60002009780701D44FF00108C84502DDA8EB3D
:100F7000090000E000208046002706E008A85A4645
:100F8000C05D0B9990476D1C7F1C5745F6DB04E054
:100F900030205A460B9990476D1CB8F10001A8F11A
:100FA0000108F5DC05E016F8010B5A460B9990474D
:100FB0006D1CB9F10001A9F10109F4DC641C65E7BD
:100FC0000928010010B50220FFF73EF900F048F8AB
:100FD0000220FFF733FB0120FFF730FB4FF4E13035
:100FE00000F086F910BD00002DE9F04107460C46DF
:100FF00015461E46380A0A4908704F70200A887044
:10100000CC70280A08714D71300A8871CE710B4678
:1010100008220721262000F0D0F8BDE8F08100006A
:10102000480000202DE9F04107460C4615461E46B3
:10103000380A0A4908704F70200A8870CC70280A54
:1010400008714D71300A8871CE710B460822062155
:10105000262000F0B2F8BDE8F0810000400000203A
:1010600010B50E4800680E49B0FBF1F0C4B26FF045
:101070000400FFF7C7FCE11704EB5171C910094ADE
:1010800011701046007800EB4001C1EBC0104FF624
:10109000FF7101EAC0000449088010BD040000206F
:1010A00040420F002C0000202E00002001460D4A77
:1010B00012884A434FF0E0235A6100229A610122CC
:1010C0001A6100BF4FF0E022106900F001021AB16E
:1010D00000F48032002AF5D000224FF0E0231A619C
:1010E0009A6170472E00002001460D4A12784A434B
:1010F0004FF0E0235A6100229A6101221A6100BF79
:101100004FF0E022106900F001021AB100F48032C1
:10111000002AF5D000224FF0E0231A619A6170474F
:101120002C0000200860704700BF054A128802F0BA
:101130004002002AF9D0C2B2014B1B1D1A80704731
:10114000003801402DE9F04106460F4614461D4681
:10115000FFF7E8F910B90120BDE8F0817106080E2B
:10116000FFF7AEF9FFF736FA18B9FFF70FFA0120CB
:10117000F2E73846FFF7A4F9FFF72CFAFFF7D2F9A8
:10118000012101EB4601C8B2FFF79AF9FFF722FAF5
:101190000DE0012C04D10020FFF75AF9287003E07C
:1011A0000120FFF755F928706D1C601EC4B2002C99
:1011B000EFD1FFF7EBF90020CEE72DE9F04105462E
:1011C0000E4617469846FFF7ADF910B90120BDE865
:1011D000F0816906080EFFF773F9FFF7FBF918B9FC
:1011E000FFF7D4F90120F2E73046FFF769F9FFF77E
:1011F000F1F900240BE018F80400FFF761F9FFF79C
:10120000E9F918B9FFF7C2F90020E0E7641CBC4215
:10121000F1DBFFF7BBF90020D9E7000008B5FFF7C5
:10122000D1FEFFF755FCFFF7D7F821A0FFF700FE2E
:1012300000231A4619461846FFF7D6FE6420FFF72A
:1012400035FF0220FFF7D6FB6420FFF72FFF1420A5
:10125000FFF790FB6420FFF729FF0D20FFF79AFBB3
:101260006420FFF723FF1748FFF7A4FB6420FFF774
:101270001DFF4FF4C860FFF7ADFB6420FFF716FFBA
:1012800014E011480078FA2804DBFEF799FF0020EB
:101290000D490870FFF7B2FA0C48C06800900B487F
:1012A0008368426801680AA0FFF7C2FDE9E7000011
:1012B00070656C61736520776169742E2E2E0D0A3E
:1012C0000000000000004042000000205800002004
:1012D0004D313A256409204D323A256409204D33B9
:1012E0003A256409204D343A256409200D0A00008E
:1012F00010B586B00446012144F20400FFF704FA59
:101300004FF40070ADF8140003208DF8160018207B
:101310008DF8170005A91C48FEF7ABFF4FF480605D
:10132000ADF8140004208DF8170005A91648FEF743
:10133000A0FF01940020ADF80800ADF80A00ADF858
:101340000C00ADF810000C20ADF80E0001A90F48FC
:10135000FFF7F6FC002240F225510C48FFF7CBFCCA
:1013600001210A48FFF784FC25208DF800000020A9
:101370008DF8010001208DF802008DF80300684609
:10138000FFF778F906B010BD0008014000380140B1
:10139000B01300080000002058000000500E0008A4
:1013A000081400085800002020040000600E000807
:1013B0000000000000A24A0400000000000000003D
:1013C00001020304060708090000000001020304EB
:1013D00001020304060708090204060800000000D1
:1013E00000000000000000000000000000000000FD
:1013F00000000000000000000000000000000000ED
:081400000000000000000000E4
:0400000508000131BD
:00000001FF
