:020000040800F2
:10000000D8050020490100087D1300089D12000852
:10001000D1120008FD0D00087F1A00080000000042
:1000200000000000000000000000000009150008AA
:100030008511000800000000F1130008591600089F
:100040006301000863010008630100086301000800
:1000500063010008630100086301000863010008F0
:1000600063010008630100086301000863010008E0
:1000700063010008630100086301000863010008D0
:1000800063010008630100086301000863010008C0
:1000900063010008630100086301000863010008B0
:1000A00063010008630100086301000863010008A0
:1000B00063010008BD160008630100086301000821
:1000C0006301000863010008630100086301000880
:1000D00063010008591800089D1800086301000812
:1000E0006301000863010008630100086301000860
:1000F0006301000863010008630100086301000850
:10010000630100086301000863010008630100083F
:10011000630100086301000863010008630100082F
:10012000630100086301000863010008630100081F
:10013000DFF810D000F07AFB00480047A124000847
:10014000AFF30080D80500200648804706480047E6
:10015000FEE7FEE7FEE7FEE7FEE7FEE7FEE7FEE777
:10016000FEE7FEE75D1600083101000840EA0103E2
:100170009B0703D009E008C9121F08C0042AFAD25D
:1001800003E011F8013B00F8013B521EF9D2704721
:10019000D2B201E000F8012B491EFBD270470022C9
:1001A000F6E710B513460A4604461946FFF7F0FF76
:1001B000204610BD421C10F8011B0029FBD1801AFB
:1001C0007047034611F8012B00F8012B002AF9D1E2
:1001D0001846704730B505460020034600E05B1C1A
:1001E000934205D2EC5CC85C201A01D1002CF6D1F8
:1001F00030BD000070B50F4D00B92868002412E032
:100200000A4602E09E4203D0521C1378002BF9D11B
:10021000DAB2224305D02BB124B1002100F8011B32
:1002200004E00446401C0678002EE9D128602046F0
:1002300070BD00003C00002070B5064601F046FC91
:10024000046805460A220021304600F0C7F82C60F9
:1002500070BD00F0004230F000400AD0C10D01F541
:100260006071C0F3160042EA0151C2084007114311
:10027000704700200146704701F0004330B421F080
:10028000004150EA010206D00A0DA2F56072C1F3E6
:100290001301002A02DC30BC00207047440F44EAFE
:1002A000C104C100E01830BC00EBC25000F0CEB871
:1002B00030B50B46014600202022012409E021FA36
:1002C00002F59D4205D303FA02F5491B04FA02F533
:1002D0002844151EA2F10102F1DC30BD2DE9F05FCA
:1002E0000546002092469B468846064681464024A5
:1002F0001BE0284641464746224600F0B8FA5346DE
:100300005A46C01A914110D311461846224600F0B1
:100310009FFA2D1A67EB01084F4622460120002163
:1003200000F096FA17EB00094E41201EA4F10104DB
:10033000DFDC484631462A464346BDE8F09F0000D0
:100340000FB4002300B589B00CA900910B996FF090
:100350000042CB601E4B06931E4B07930423CDE94E
:1003600001321D4A089202466B46002000F044FB11
:1003700009B05DF814FB70B586B006464FF0FF304B
:100380000091CDE90101002015460C46049032464B
:10039000694604A8FFF7D4FF02460498211825B146
:1003A00008B1084600E020462860049800280DD0D7
:1003B000002A02DD0098884208D0081B0094CDE98D
:1003C00001043246694604A8FFF7BAFF06B070BDC3
:1003D000310C00084F0C0008BD0800082DE9F0475B
:1003E00091460F4680460446002614F8015B2DB165
:1003F00000F060FA0068405DC007F6D12B2D02D0F6
:100400002D2D18D0641E4A463946204600F030FC97
:1004100027B13968A14201D1C7F8008071054FF0BA
:1004200002040BD54042002803DD01F04FFB0460BD
:10043000A007BDE8F08746F48066E4E70028F8DA14
:1004400001F044FB04606FF00040F2E70029A8BF10
:100450007047401C490008BF20F00100704710B4ED
:10046000B0FA80FC00FA0CF050EA010404BF10BCA2
:10047000704749B1CCF1200421FA04F411FA0CF1CF
:1004800018BF012121430843A3EB0C01CB1D4FEA08
:1004900000614FEA102042BF002010BC704700EB03
:1004A000C35010440029A4BF10BC7047401C490031
:1004B00008BF20F0010010BC70472DE9FE4F8046B8
:1004C00081EA0300C00F0C46009021F0004123F0A8
:1004D0000045B8EB0200A94105D2404621469046AE
:1004E0001C460B46024623F00040104347D0270D20
:1004F000C7F30A00C3F30A510290401A0190402842
:100500006BDAC3F3130040F4801B0098924620B1CD
:100510000023D2EB030A63EB0B0B01985946C0F1A1
:100520004002504600F094F906460D4650465946A2
:10053000019A00F0ACF910EB08006141002487EA51
:10054000115284EAE7731A4340D0009A62B3019AC9
:10055000012A4FEA075215DC001B61EB02014FF044
:10056000004202EA0752CDE90042001C41F5801129
:1005700032462B4600F0DAFB03B0BDE8F08F404670
:100580002146F9E7001B61EB0201001C41F58013D5
:1005900000185B412018A2F5001747EB030140EA61
:1005A000D570B6196D4111E06D084FEA360645EA7F
:1005B000C0754FEA0752001B61EB0201001C41F5B8
:1005C000801149084FEA30000019514132462B464C
:1005D00003B0BDE8F04F00F09ABB00980122400044
:1005E0000023D0EB020263EBE073009821464FEA50
:1005F000E074B8EB000061EB0401E9E783F000432D
:100600005BE781F0004158E72DE9FE4F81EA0304E2
:1006100004F0004421F0004100944FF0000B23F05F
:10062000004350EA01045ED052EA03045BD0C3F3F6
:100630000A54C1F30A552C44A4F2F3340194A0FBEC
:100640000254C1F3130141F48011C3F3130343F4C3
:10065000801301FB024400FB034E840A970A44EA1C
:10066000815447EA8357A4FB076802958D0A05FB6E
:1006700007854FEA932C04FB0C542705029D4FEA93
:10068000065847EA1637B5EB08056EEB070C870EE0
:10069000920E47EA811742EA8312A7FB0201B6EBEA
:1006A0000B0164EB00042B0D43EA0C335E1844EBA2
:1006B0001C50DA465146E7FB0201C5F313044FEA2A
:1006C0000B3343EA14534FEA0432019C43EA060316
:1006D000A4F10C040294009CCDE900B400F026FBC8
:1006E00003B0BDE8F08F00200146F9E72DE9F04D99
:1006F00081EA030404F0004B21F0004514464FF05A
:10070000000A23F0004150EA050220D054EA010219
:100710001DD0C5F30A570246C5F31303C1F31300F6
:10072000C1F30A5640F4801543F48013A7EB060882
:10073000101BD64608F2FD3873EB050002D308F112
:10074000010801E092185B41B8F1000F03DA0020C4
:100750000146BDE8F08D00204FF480110646844626
:100760000EE0171B73EB050705D3121B63EB0503A4
:1007700006434CEA010C49084FEA300092185B41ED
:1007800050EA0107EDD152EA030012D082EA0400D8
:1007900083EA0501084305D0101BAB4106D20122B4
:1007A000002306E000224FF0004302E06FF0010258
:1007B00053101AEB06004CEB085110EB0A0041EB0A
:1007C0000B01BDE8F04D00F0A2BAC1F30A52C1F32B
:1007D000130140F2FF3341F480119A4202DA002003
:1007E0000146704740F233439A42A2F2334202DCA0
:1007F000524200F03CB800F02BB8000030B5041EA7
:1008000071F1000404DB4FF00044404264EB01014D
:10081000141E73F1000405DB1C464FF000435242E6
:1008200063EB0403994208BF904230BD064C074D6C
:1008300006E0E06840F0010394E8070098471034B0
:10084000AC42F6D3FFF778FC482800086828000877
:10085000202A04DB203A00FA02F100207047914080
:10086000C2F1200320FA03F3194390407047202A75
:1008700004DB203A21FA02F00021704721FA02F34A
:10088000D040C2F120029140084319467047202A07
:1008900006DBCB17203A41FA02F043EAE07306E0A8
:1008A00041FA02F3D040C2F12002914008431946B8
:1008B00070470000004870474428000810B50446FF
:1008C000FFF7F8FF0068005D00F0010010BD0000B8
:1008D0002DE9FF4F087883B09946FF2805D0491CC1
:1008E0002D2804D00024002008E000200BE0012483
:1008F000F9E700EB800003EB4000491C0B78FF2B6D
:10090000F7D104B1404200230293147819461D46E2
:100910002D2C01D02B2C04D1521C2D2C13D00024B3
:100920000294AA461478FF2C0FD00A25A3FB057861
:1009300001FB05814FF0000C03FB0C11521CE31965
:100940004AEB0101EEE70124EAE7814453EA0100A2
:1009500002D019F5C87F06DA03980021C0E900111A
:1009600007B0BDE8F08F0025AE4E2F46DFF8B88205
:10097000184600F037FACDE90001B9F1000002DABB
:10098000C9F1000400E004460023A74A1AEB030B58
:1009900042EB045A12E0E00707D02A4633463846B5
:1009A0004146FFF731FE074688462A463346104641
:1009B0001946FFF729FE05460E466410002CEAD1C1
:1009C000DDE90001B9F1000F5A46534606DAFFF798
:1009D0008DFE3A464346FFF789FE05E0FFF714FE19
:1009E0003A464346FFF710FE029A0AB181F00041F1
:1009F000039AC2E90001B3E72DE9FF4F1F468DB00E
:100A0000D7E901464FF0FF382E2045464FF0000948
:100A10000B90B9696D1C0E988847396A82468847E1
:100A20000028F6D1BAF1FF3F0AD024F4D064002E9A
:100A300011DDBAF12B0F08D0BAF12D0F0BD102E066
:100A4000404611B08DE744F48064B9696D1C0E987E
:100A500088478246761E6946600501D52D2000E054
:100A60002B208DF8000001F1010B0DF1200809E0A9
:100A7000B9696D1C0E98884782460F9844F400743B
:100A8000761E0560002E02DDBAF1300FF0D00B9912
:100A90008A453ED144F0800406E00F99681CA9F114
:100AA000010944F400740860B9696D1C761E0E9843
:100AB000884782463028F0D02BE00B998A4505D133
:100AC000200603D444F08004761E18E0504601F05E
:100AD000DFF808B30DF11301761E44F400748B4562
:100AE00008D2AAF130000BF8010B200607D5A9F1B6
:100AF000010003E0200602D409F101008146A005AF
:100B000002D50F99681C0860B9696D1C0E9888475A
:100B10008246002ED1DC53E0002E51DDBAF1650F84
:100B200002D0BAF1450F4BD1A00549D5B9696D1C6A
:100B300024F44074761E0E9888478246002E0CDD01
:100B40002B2804D0BAF12D0F07D144F48074B96971
:100B50006D1C0E9888478246761EE00501D52D2132
:100B600000E02B2108F8011BCDF82C8021E00DF1CD
:100B70002901761E44F4007488450CD2AAF1300095
:100B800010F0FF0088F8000002D10B99884509D9C0
:100B900008F1010806E0E00501D5244801E042F231
:100BA0000F708146B9696D1C0E98884782460F9870
:100BB0000560002E04DD504601F06AF80028D6D109
:100BC000F9690E988847FF208BF8000088F800002C
:100BD0000020069007904B466A4608A906A8FFF732
:100BE00077FEA00502D46FF001002AE714F0240F6D
:100BF0000AD0E00714D1DDE906123868031D3B6016
:100C00000068C0E900120BE0DDE90601FFF734FBE4
:100C10000146E00704D13868021D3A6000680160AF
:100C200028460EE7000014400000F03FF1D8FFFF17
:100C3000426842B1016811F8013B23B1521EC0E97C
:100C40000012184670470121C160881E7047426833
:100C50005AB1C368016843B983688B4205D0491E05
:100C6000521CC0E90012002070474FF0FF3070475F
:100C70002DE9F05F82460078002715468B460AF181
:100C80000104B946302801D09DB113E014F8010BDE
:100C90000127782803D0582801D045B10AE00DB1CA
:100CA000102D07D10027102514F8010B02E00825AC
:100CB00000E00A250026B0460EE005FB080005FB13
:100CC00006F1012701EB10461FFA80F8B6F5803FC8
:100CD00000D3B94614F8010B294600F075F8002836
:100CE000EBDABBF1000F05D00FB1641E00E05446F3
:100CF000CBF80040B9F1000F06D000F0E7FE02216A
:100D00000160C81EBDE8F09F48EA0640FAE710B54A
:100D1000141E73F1000408DA401C41F1000192181E
:100D20005B411A4301D120F0010010BD2DE9F04DC7
:100D300092469B4611B1B1FA81F202E0B0FA80F21C
:100D400020329046FFF784FD04460F4640EA0A0031
:100D500041EA0B0153465A46084313D0114653EA61
:100D6000010019D0C8F140025046FFF780FD05464A
:100D70000E46504659464246FFF76AFD084305D0E5
:100D8000012004E020463946BDE8F08D00200543EF
:100D900046EAE0762C4337430A986305E40AA0EB61
:100DA00008000022FD0A44EA47540A3002D5002018
:100DB0000146E9E7010510196941DDE90845001917
:100DC0006941BDE8F04DA2E73A2800D2303820F062
:100DD0002002412A01D3A2F13700884201D34FF00B
:100DE000FF3070470EB540F2334202920022CDE947
:100DF00000221346FFF79AFF03B000BD00BFFEE7D5
:100E000010B51F48007805282CD2DFE800F0030B4E
:100E1000121B24004FF4C8731A461946184600F0F6
:100E200059F81FE0174B1A461946184600F052F8B9
:100E300018E0144BC83B1A464FF4C871084600F03E
:100E400049F80FE04FF4C8731A460E49C8390846EE
:100E500000F040F806E000231A461946184600F054
:100E600039F800BF00BF06480078401C04490870EC
:100E700008460078042801DD0020087010BD00003D
:100E80000100002070FEFFFF2DE9FC4104460D46E5
:100E900016461F462B46224608A10D48CDE900679D
:100EA00000F000FE0A48FFF785F91FFA80F8414676
:100EB000074800F02AFBBDE8FC8100002470776D34
:100EC0003A25642C25642C25642C2564230000001D
:100ED000440000202DE9FC4104460D4616461F46FD
:100EE0002B46224608A10D48CDE9006700F0DAFD47
:100EF0000A48FFF75FF91FFA80F84146074800F0FB
:100F000004FBBDE8FC810000247370643A25642C66
:100F100025642C25642C2564230000004400002057
:100F20000146072323EA01021202054B18684FF617
:100F3000FF031840034B18431043014B18607047E0
:100F40000CED00E00000FA0510B50446242C0AD18F
:100F50001B48007838B901201949087064211948E4
:100F6000FFF71DF92AE016480078012826D1232C26
:100F70000DD100201249087013490870012013494F
:100F8000087064220F491248FFF7F0F816E00E4887
:100F90000078642809DD0020094908700A490870B2
:100FA00064210848FFF7FBF808E00648064909787D
:100FB000445405480078401C0349087010BD0000E7
:100FC00038000020A8000020370000203600002054
:100FD0000C010020F0B595B0002404225D495EA00C
:100FE000FFF7F8F8002835D15A48FFF7E3F8401F1B
:100FF000C4B2002006E0574A411D515C584A1154C2
:10100000411CC8B2A042F6DB0020554908552821F2
:1010100001A8FFF7C4F853A251490BA801F064FBE3
:10102000002514E00BAA52F8251005EB850201AB50
:1010300003EB4200FFF7C5F805EB850101AA02EBBF
:101040004100FFF7F9F8484941F825006D1C042DCF
:10105000E8DB7CE004223F4944A0FFF7BBF800280E
:1010600035D13C48FFF7A6F8401FC4B2002006E087
:10107000384A411D515C3A4A1154411CC8B2A04241
:10108000F6DB002036490855282101A8FFF787F82C
:1010900034A233490BA801F027FB002514E00BAA6A
:1010A00052F8251005EB850201AB03EB4200FFF778
:1010B00088F805EB850101AA02EB4100FFF7BCF8B7
:1010C0002C4941F825006D1C042DE8DB3FE004228B
:1010D000204929A0FFF77EF8002838D11D48FFF7E6
:1010E00069F8401FC4B2002006E01A4A411D515C55
:1010F0001B4A1154411CC8B2A042F6DB002018491B
:101100000855282101A8FFF74AF816A214490BA890
:1011100001F0EAFA002517E00BAA52F8251005EBBA
:10112000850201AB03EB4200FFF74BF805EB8501AD
:1011300001AA02EB410001F03BF90646FFF79CF8DB
:101140000F4941F825006D1C042DE5DB00BF15B0EB
:10115000F0BD00000C0100204D416C6C000000004F
:10116000700100202C200000980000204D544550B4
:1011700000000000880000204D5350440000000093
:101180007800002070472DE9F04102460025002636
:10119000002000230024002791F803C00CF00F0565
:1011A00091F803C00CF0100CBCF1000F03D091F8C3
:1011B00002C04CEA050591F800C0BCF1000F31D027
:1011C000146800202BE04FF0010C0CFA00F3B1F88A
:1011D00000C00CEA03069E4220D183004FF00F0CA2
:1011E0000CFA03F7BC4305FA03FC4CEA040491F83B
:1011F00003C0BCF1280F06D14FF0010C0CFA00FC23
:10120000C2F814C00AE091F803C0BCF1480F05D140
:101210004FF0010C0CFA00FCC2F810C0401C08286A
:10122000D1D31460B1F800C0BCF1FF0F34DD5468B5
:1012300000202EE000F1080C4FF0010808FA0CF332
:10124000B1F800C00CEA03069E4221D183004FF0A2
:101250000F0C0CFA03F7BC4305FA03FC4CEA040438
:1012600091F803C0BCF1280F05D100F1080C08FA71
:101270000CF8C2F8148091F803C0BCF1480F07D1F4
:1012800000F1080C4FF0010808FA0CF8C2F81080C1
:10129000401C0828CED35460BDE8F08100BFFEE7B3
:1012A00001464906084A926942F00102064B9A61DA
:1012B000064A526822F0E062044B5A601A465268AD
:1012C0000A435A60704700000010024000000140CD
:1012D00000BFFEE700B587B00121042000F09AF8B6
:1012E0000121480400F086F80420ADF81800182009
:1012F0008DF81B0003208DF81A0006A91D48FFF782
:1013000042FF0820ADF8180004208DF81B0006A944
:101310001848FFF738FF26208DF8040001208DF8CB
:10132000050002208DF8060001208DF8070001A8B5
:1013300000F026F84FF4E13002900020ADF80C00E8
:10134000ADF80E00ADF81000ADF814000C20ADF8AB
:10135000120002A9084800F01DFB012240F22551AD
:10136000054800F0F2FA0121034800F0ABFA07B09B
:1013700000BD00000008014000440040704700002C
:1013800070B5002100230F22C47804B3154C2468E3
:1013900004F4E064C4F5E064210AC1F10403CA4026
:1013A000447804FA03F184781440214309010E4C77
:1013B0000678A155047804F01F050124AC40057897
:1013C0006D11AD0005F1E025C5F8004109E0047894
:1013D00004F01F050124AC40044D0678761145F851
:1013E000264070BD0CED00E000E400E080E100E08C
:1013F0007047000029B1064AD2690243044BDA6102
:1014000004E0034AD2698243014BDA61704700006D
:101410000010024029B1064A92690243044B9A61C6
:1014200004E0034A92698243014B9A6170470000CD
:101430000010024030B500210022002400232D4D71
:101440006D6805F00C0121B1042905D0082923D1CC
:1014500005E0294D056022E0274D05601FE0254D80
:101460006D6805F47012234D6D6805F48034022513
:1014700005EB92421CB9214D554305600BE01D4D13
:101480006D6805F400351DB11C4D5543056002E043
:10149000194D5543056002E0174D056000BF00BFC0
:1014A000144D6D6805F0F0010909154D6B5C056878
:1014B000DD4045600F4D6D6805F4E061090A104D8F
:1014C0006B5C4568DD4085600A4D6D6805F46051D0
:1014D000C90A0B4D6B5C4568DD40C560054D6D6804
:1014E00005F44041890B074D6B5CC568B5FBF3F50E
:1014F000056130BD0010024000127A0000093D0075
:101500001800002028000020704770B504460D46E2
:1015100003E0207800F008F8641C281EA5F1010102
:101520008DB2F6D170BD000010B5044600BF802119
:10153000044800F0D3F90028F9D02146014800F012
:101540009AFA10BD0044004010B500F001F810BD3B
:101550000CB50020019000903348006840F48030C2
:101560003149086000BF3048006800F40030009046
:101570000198401C0190009818B90198B0F5A06F2F
:10158000F1D12948006800F4003010B1012000902A
:1015900001E0002000900098012843D12348006812
:1015A00040F01000214908600846006820F0030060
:1015B00008600846006840F0020008601A48406869
:1015C000194948600846406848600846406840F449
:1015D000806048600846406820F47C1048600846F7
:1015E000406840F4E81048600846006840F08070A9
:1015F000086000BF0C48006800F000700028F9D0B7
:101600000948406820F003000749486008464068E0
:1016100040F00200486000BF0348406800F00C0042
:101620000828F9D10CBD0000001002400020024043
:10163000042808D14FF0E021096941F004014FF07E
:10164000E022116107E04FF0E021096921F0040177
:101650004FF0E022116170477047000010B5134849
:10166000006840F0010011490860084640681049D0
:1016700008400E494860084600680E4908400B497A
:1016800008600846006820F480200860084640682A
:1016900020F4FE0048604FF41F008860FFF754FFFD
:1016A0004FF000600449086010BD000000100240C7
:1016B0000000FFF8FFFFF6FE08ED00E010B5012185
:1016C0000B4800F05DF888B10121094800F049F8A5
:1016D00008480078401C074908700748008800281F
:1016E00004DD05480088401E0349088010BD000045
:1016F0000004004000000020340000201FB501213C
:101700000220FFF777FE41F61F40ADF8040063208A
:10171000ADF8080001A9104800F04CF801210E486E
:1017200000F01CF8012211460B4800F03AF81D2089
:101730008DF8000004208DF8010002208DF80200D1
:1017400001208DF803006846FFF71AFE01210248C8
:1017500000F00AF81FBD000000040040CA430282E6
:101760007047CA430282704721B1028842F00102E9
:10177000028004E002884FF6FE731A400280704730
:1017800030B50246002000230024158A05EA010333
:10179000958905EA010413B10CB1012000E0002095
:1017A00030BD1AB183890B43838102E083898B4367
:1017B00083817047002202881D4B98420ED01D4B3A
:1017C00098420BD0B0F1804F08D01B4B984205D007
:1017D0001A4B984202D01A4B984204D14FF68F739D
:1017E0001A404B881A43174B984207D0164B984221
:1017F00004D04FF6FF431A40CB881A4302808B88EF
:1018000083850B8803850A4B98420BD0094B98427D
:1018100008D00E4B984205D00D4B984202D00D4B8C
:10182000984201D10B7A038601238382704700001E
:10183000002C01400034014000040040000800403A
:10184000000C004000100040001400400040014027
:10185000004401400048014010B5002440F22551E9
:10186000054800F048F830B1034800F0FFF8C4B272
:10187000204600F003F810BD0038014010B50446C2
:1018800000BF8021044800F029F80028F9D0214643
:10189000014800F0F0F810BD0038014010B50024F8
:1018A00000BF2021064800F019F80028F9D00448AC
:1018B00000F0DCF8C4B22046FFF746FB10BD000084
:1018C0000044004021B1828942F40052828104E048
:1018D00082894DF6FF731A408281704702460020CC
:1018E000B1F5007F00D100BF13880B400BB1012080
:1018F00000E00020704770B5024600240023002558
:10190000002040F66A16B14200D100BFC1F3421573
:1019100001F01F03012606FA03F3012D02D1968977
:10192000334006E0022D02D1168A334001E0968A48
:1019300033400C12012606FA04F41688344013B121
:101940000CB1012000E0002070BDF0B5034600247A
:1019500000260025002040F66A17B94200D100BFDA
:101960001846C1F3421401F01F06012707FA06F5D5
:10197000012C01D10C3004E0022C01D1103000E028
:1019800014301AB107682F43076002E00768AF43BD
:101990000760F0BD2DE9F04786B005460E460024ED
:1019A000A24600BFA1460027B08900B100BF2F4664
:1019B0002C8A4CF6FF700440F08804432C82AC89DA
:1019C0004EF6F3100440B08831890843718908430A
:1019D0000443AC81AC8A4FF6FF400440B089044315
:1019E000AC8201A8FFF726FD1F48874202D1DDF82F
:1019F00010A001E0DDF80CA0A88900F4004040B17F
:101A00000AEBCA0000EB0A1031684900B0FBF1F89C
:101A100007E00AEBCA0000EB0A1031688900B0FB4E
:101A2000F1F86420B8FBF0F004012009642101FB07
:101A30001089A88900F4004040B1322000EBC900B1
:101A4000B0FBF1F000F00700044308E0322000EBA7
:101A500009106421B0FBF1F000F00F0004432C8169
:101A600006B0BDE8F08700000038014001468888D4
:101A7000C0F308007047C1F308028280704700BFBE
:101A8000FEE700000FB4054B10B503A9044A029805
:101A900000F006F910BC5DF814FB00008524000876
:101AA000300000200FB4084B10B504A902AA039817
:101AB00000F0F6F8044602A9002000F074FC20466D
:101AC00010BC5DF814FB0000A72300080048704715
:101AD00040000020014800687047000040000020DE
:101AE00002E008C8121F08C1002AFAD170477047E7
:101AF000002001E001C1121F002AFBD17047000045
:101B00000149086070470000400000202DE9FF5F98
:101B100082B00021DDE90430020DDDF840B003435E
:101B200018D044F61050A2F2FF3242431514119817
:101B300001281FD0A5EB0B00401C5FEA000A4FF004
:101B400000064E4FDFF83891B046504615D5CAF121
:101B5000000413E0119801244AA3012801D16FEA7F
:101B60000B010298119AC0E90031C0E9024206B0A7
:101B7000BDE8F09FCBF10000DFE704460021404ABA
:101B8000491842EB0450CDE9001012E0E00707D0FD
:101B900032463B4640464946FEF736FD804689467A
:101BA00032463B4610461946FEF72EFD06460F46C6
:101BB0006410002CEAD1DDE90401DDE90023BAF16B
:101BC000000F06DAFEF720FD42464B46FEF71CFDED
:101BD00005E0FEF78BFD42464B46FEF787FD0446C7
:101BE0000E460022284BFEF709FE03D84FF0FF30C7
:101BF000014607E00022254B20463146FEF75DFCFA
:101C0000FEF7E3FD102409E0002C0ADB0A22002382
:101C1000FEF764FB039B30321A55641E50EA010242
:101C2000F2D1641C039AC4F111031444119A012ADD
:101C300003D0012208430DD10AE0084304D000205C
:101C40004FF0110B119072E7A3EB0B056D1E0DE029
:101C50005B4504DD4FF0000205F1010504E003DA05
:101C60004FF00002A5F10105002AECD0029811996D
:101C7000C0E90231C0E9004579E7000000001440E6
:101C80000000F03F300000000000F0430000E03FA3
:101C900030380A2801D20120704700207047000028
:101CA0002DE9FF4F95B09A46884606460025EEE19D
:101CB000252877D100242746F94A0121039400E022
:101CC000044316F8013F203B01FA03F01042F7D11C
:101CD00030782A2811D06FF02F033078A0F130022D
:101CE000092A16D8039A44F0020402EB820203EB9D
:101CF00042021044761C0390EFE758F8042B03923D
:101D0000002A03DA504244F40054039044F00204E1
:101D1000761C30782E2816D116F8010F44F00404F2
:101D20002A280DD06FF02F023078A0F13003092B54
:101D300009D807EB870302EB4303C718761CF3E7C8
:101D400058F8047B761C30786C280FD006DC4C28C1
:101D500017D068280DD06A2814D104E0742810D058
:101D60007A280FD10DE044F400140AE044F4801402
:101D700001E044F440147278824202D104F58014E8
:101D8000761C761C307866280BD013DC582877D068
:101D900009DC002875D04528F6D04628F4D047281D
:101DA0001AD193E118E0632835D0642879D06528EA
:101DB00012D18BE1702873D008DC6728F1D0692834
:101DC0006FD06E280DD06F2806D1ACE073282CD0D0
:101DD000752874D0782853D05246179990476D1CB7
:101DE00054E1C4F30250022809D003280DD0D8F8DA
:101DF000001004280DD00D6008F1040846E1D8F861
:101E00000010EA17C1E90052F6E7D8F800100D807B
:101E1000F2E70D70F0E718F8041B8DF800100020B1
:101E20008DF80100EB46012003E058F804BB4FF0A9
:101E3000FF3061074FF0000102D40DE009F101010C
:101E40008946B9420FDA8145F8DB1BF809100029F1
:101E5000F4D108E009F1010189468142FADB1BF85F
:101E600009100029F6D103985346A0EB0907214633
:101E70003846179A00F080FA284400EB090507E07D
:101E800044E008E10DE01BF8010B5246179990471A
:101E9000B9F10109F7D2534621463846179AF2E0C4
:101EA00039E00A21C4F302524FF0000B0091022ADC
:101EB00006D058F8040BC117032A09D00AE023E022
:101EC00008F1070020F00702F2E80201904605E061
:101ED00000B2C117042A01D140B2C117002906DAA5
:101EE0000A460021404261EB02012D2202E0220558
:101EF00004D52B228DF80420012203E0E20701D053
:101F00002022F7E7914657E00A2100E010214FF028
:101F1000000B00910BE010214FF0000B44F0040483
:101F20000827009103E008204FF0000B0090C4F355
:101F30000252022A05D058F8040B0021032A08D0C7
:101F400008E008F1070020F00702F2E802019046DD
:101F500003E080B2042A00D1C0B24FF0000922078A
:101F60002AD53278702A07D0DDF800C08CF0100C2A
:101F70005CEA0B0C05D00EE040228DF80420012213
:101F800008E050EA010306D030238DF804308DF8C4
:101F9000052002229146009B83F0080353EA0B03BD
:101FA0000AD150EA010201D1620705D530228DF82D
:101FB00004204FF001097F1E3278582A04D039A23C
:101FC0000C920CAA02920BE03BA2F9E75B46009A46
:101FD000FEF784F90C9B9B5C029A521E02921370CE
:101FE00050EA0102F2D1029804A9081A00F1200B6C
:101FF000600702D524F4803400E001275F4502DD4C
:10200000A7EB0B0000E0002000EB0B010090039811
:102010004944401A0390E00306D453462146179AD8
:10202000039800F0A9F90544002706E001A85246EC
:10203000C05D179990476D1C7F1C4F45F6DBE00390
:102040000CD553462146179A039800F095F905449C
:1020500004E030205246179990476D1C0099481EA5
:1020600000900029F5DC08E00298029952460078B9
:10207000491C0291179990476D1CBBF10001ABF10F
:10208000010BF1DC5BE100F065F90544761C30786A
:1020900000287FF40DAE19B02846BDE8F08F00008F
:1020A000092801003031323334353637383961622E
:1020B00063646566000000003031323334353637F2
:1020C000383941424344454600000000600700D4CF
:1020D000062708F1070020F00700F0E802238046F9
:1020E00003F0004C5FEA0C0001D097A009E0200546
:1020F00001D596A005E0E00701D095A001E0AFF280
:102100004C001390307823F0004365280CD006DC97
:10211000452809D046281DD047287FD13BE06628B6
:1021200018D067287AD136E00021112F01DB112069
:1021300000E0781CCDE9000104A90CA8FFF7E6FC3B
:10214000DDE90D010C9A4FF0000B07F10109109227
:1021500000914EE04FF000400097CDE9011004A936
:102160000CA8FFF7D3FCDDE90D020C9B0F994FF093
:10217000000B91461093009211B9791C00EB0109F4
:10218000B7EB090003D4C0F1FF3B07F10109A9EB4C
:102190000700019042E0012F00DA01270021112FF2
:1021A00001DD112000E03846CDE9000104A90CA8AA
:1021B000FFF7ACFCDDE90D010C9A00914FF0000B2C
:1021C000B946109221070FD4009A4A4503DA914686
:1021D00001E0A9F10109B9F1010F05DD109AA9F19A
:1021E0000101515C3029F4D0B84202DA10F1040F39
:1021F00003DA0121CDE9011010E0002803DC83445B
:10220000A9EB000102E0411C494500DD8946A0EB35
:102210000B00401C01904FF000400290200705D4B5
:102220000198484502DB4FF0FF30019000208DF807
:102230004B0002980DF14B07B0F1004F25D0022062
:102240000C902B200D90029800280CDA404202904E
:102250002D200D9007E00A210298FEF729F8303171
:10226000029007F8011D0C99481E0C900029F2DC21
:1022700002980028EFD1791E0D980870307800F090
:10228000200040F0450007F8020D11A8C01BC01D3A
:1022900002901398007800B1012000EB0901019829
:1022A00001EBE071029801440398401A401E03902C
:1022B000E00306D453462146179A039800F05CF8D1
:1022C00005441398007818B15246179990476D1C31
:1022D000E00323D553462146179A039800F04CF8A3
:1022E00005441BE0BBF1000F07DB0098584504DDF7
:1022F0001098179910F80B0001E0179930205246FA
:10230000904701980BF1010B401E05F1010501906A
:1023100004D12E205246179990476D1CB9F1000147
:10232000A9F10109DEDC05E017F8010B5246179907
:1023300090476D1C0299481E02900029F4DC534618
:102340002146179A03989EE62D0000002B000000FE
:10235000200000002DE9F041044600251E461746E6
:10236000880404D405E039462020B0476D1C641E63
:10237000F9D52846BDE8F0812DE9F0410446002555
:102380001E469046C80301D5302700E02027880468
:1023900004D505E041463846B0476D1C641EF9D5AA
:1023A0002846BDE8F0810A68531C0B601070704726
:1023B00030B583B00446FFF78DFB05460020CDE91C
:1023C0000000024621466846FDF7D5FF2846FFF784
:1023D00097FBDDE9000103B030BD10B50220FEF728
:1023E0009FFD00F00BF80220FEF75AFF0120FEF7D8
:1023F00057FF4FF4E13000F093F910BD10B50E48CF
:1024000000680E49B0FBF1F0C4B26FF00400FFF7B2
:102410000FF9E11704EB5171C910094A1170104608
:10242000007800EB4001C1EBC0104FF6FF7101EAEC
:10243000C0000449088010BD0400002040420F0085
:102440002C0000202E00002001460D4A12884A432D
:102450004FF0E0235A6100229A6101221A6100BF05
:102460004FF0E022106900F001021AB100F480324E
:10247000002AF5D000224FF0E0231A619A617047DC
:102480002E00002000BF054A128802F04002002AF8
:10249000F9D0C2B2014B1B1D1A80704700380140B1
:1024A00008B5FFF79AFFFFF729F92DA0FFF7EAFA21
:1024B00000231A4619461846FEF7E6FC6420FFF78B
:1024C000C3FFFEF707FF00221146104600F0CAF8CE
:1024D0000A20FFF7B9FF022000F07CF86420FFF724
:1024E000B3FF142000F0A6F86420FFF7ADFF0D2025
:1024F00000F088F86420FFF7A7FF1E4800F0D2F82C
:102500006420FFF7A1FF4FF4C86000F049F8642091
:10251000FFF79AFF00220121104600F0A3F80A20DD
:10252000FFF792FF1BE014480078FA2804DBFEF75F
:1025300067FC0020104908701048007801280ED16F
:1025400000200E490870FEF745FD0D48C068009058
:102550000B488368426801680AA0FFF793FAE2E734
:1025600070656C61736520776169742E2E2E0D0A7B
:102570000000000000004042000000203600002063
:10258000880000204D313A25642C4D323A25642CC8
:102590004D333A25642C4D343A25640D0A00000071
:1025A00070B50446224606A10948FFF77BFA0848A1
:1025B000FDF700FE85B229460548FEF7A6FF70BD6F
:1025C00024646561647A6F6E653A256423000000B7
:1025D0004400002070B50446224606A10848FFF7D3
:1025E00061FA0748FDF7E6FD85B229460448FEF783
:1025F0008CFF70BD246D747970653A2564230000EA
:102600004400002070B50446224606A10848FFF7A2
:1026100049FA0748FDF7CEFD85B229460448FEF782
:1026200074FF70BD246D6C696E653A2564230000EB
:102630004400002070B50446224606A10848FFF772
:1026400031FA0748FDF7B6FD85B229460448FEF782
:102650005CFF70BD246D70686173653A256423006A
:1026600044000020F8B504460D4616462B46224687
:1026700006A10B480096FFF715FA0948FDF79AFDE9
:1026800087B239460648FEF740FFF8BD2475706CE6
:102690006F61643A25642C25642C256423000000B6
:1026A0004400002070B504462046FDF7D2FD0546E3
:1026B0002A460B4606A10B48FFF7F4F90948FDF737
:1026C00079FD85B229460748FEF71FFF70BD00005F
:1026D00024776469616D657465723A252E336623CB
:1026E00000000000440000202DE9F04104460E46A1
:1026F000174639463046FDF77DFD054625604FF00B
:10270000010808E039460020FDF774FD054644F84D
:10271000285008F10108002DF4D1BDE8F081000037
:1027200010B586B00446012144F20400FEF772FEA3
:102730004FF40070ADF8140003208DF81600182037
:102740008DF8170005A91C48FEF71DFD4FF48060A9
:10275000ADF8140004208DF8170005A91648FEF7FF
:1027600012FD01940020ADF80800ADF80A00ADF8A4
:102770000C00ADF810000C20ADF80E0001A90F48B8
:10278000FFF708F9002240F225510C48FFF7DDF869
:1027900001210A48FFF796F825208DF80000002057
:1027A0008DF8010001208DF802008DF803006846C5
:1027B000FEF7E6FD06B010BD0008014000380140FC
:1027C0000040404040404040404041414141414044
:1027D00040404040404040404040404040404040F9
:1027E0004005020202020202020202020202020288
:1027F000022020202020202020202002020202028D
:1028000002029090909090901010101010101010E4
:1028100010101010101010101010101002020202F0
:102820000202888888888888080808080808080834
:102830000808080808080808080808080202020230
:1028400040000000C12700086828000800000020A0
:1028500044000000E01A0008AC28000844000020F2
:1028600094050000F01A00080000000000A24A04CD
:102870000000000000000000010203040607080930
:102880000000000001020304010203040607080916
:102890000204060800000000000000000000000024
:0C28A0000000000000000000000000002C
:0400000508000131BD
:00000001FF
