:020000040000FA
:1000000080032020D5000000D9000000DB000000A4
:1000100000000000000000000000000000000000E0
:10002000000000000000000000000000DD000000F3
:100030000000000000000000DF000000E100000000
:10004000E3000000E3000000E3000000E300000024
:10005000E3000000E3000000E3000000E300000014
:1000600000000000E3000000E300000000000000CA
:1000700000000000E3000000E3000000991300000E
:10008000E3000000E300000075130000E30000003F
:10009000E3000000E300000000000000000000009A
:1000A000E3000000E300000000000000000000008A
:1000B000E300000000000000E3000000E300000097
:1000C0000348854600F028FA00480047AD170000B5
:1000D0008003202003480047FEE7FEE7FEE7FEE737
:1000E000FEE7FEE7C100000070B50446002903D01A
:1000F00000202022012310E0002801D00020C0436E
:10010000C046C0460DE02546D5408D4205D30D467C
:100110009540641B1D46954040191546521E002D02
:10012000F1DC214670BDF0B51FB40646002082B058
:1001300005464024019100901BE0019922460F469C
:10014000304600F00BFA049A059B801A994110D3AF
:1001500010461946224600F0F1F9361A8F410197F0
:10016000224601200021009F00F0E8F938184D4197
:1001700000902046641E0028DFDC019B0098294681
:10018000324607B0F0BD0000F0B5074608465840BB
:1001900087B0C00F049048000E4659004008490837
:1001A000BC1A884105D2384631461E4617460B46D2
:1001B00002465800400810434CD0300D03904005D3
:1001C0005900400D490D0590401A0290402872DAFE
:1001D00018030121000B09050843019004980092BF
:1001E000002805D0019952420020884100920190D8
:1001F000029840210A1A0199009800F09FF90546DB
:100200000C466B4607CB00F0BAF9C0197141039A4E
:100210000E0D0023D71756401A467A40164344D095
:10022000049A002A2DD0029A012A039A15DC12059D
:10023000C01A914101263605001C7141D20F059E5E
:10024000D2070093019202962A46234600F0B7F99E
:1002500007B0F0BD38463146FAE71605224A0F4688
:10026000B218C01AB74101210905001C4F410018FE
:100270007F41114618187941E20F10436D1964410E
:1002800013E0E2076D0815436408C2071443039A9C
:1002900001261205C01A91413605001C7141CE0796
:1002A000400830434908C01851412A46234600F00F
:1002B00079F9CDE7FFE7049801224000C117121A2F
:1002C00000238B4104983146C417381AA141EEE748
:1002D00030B40124E407634030BC55E730B4012456
:1002E000E407614030BC4FE70000E0FFF0B51FB409
:1002F00088B00B990998002448400999C00F49001B
:1003000049080991C0070B990090490049080B91D1
:1003100009990898A64608431CD00B990A980843E7
:1003200018D0099801244000420D4800410D099859
:1003300024050003000B204309900B980003000BD9
:1003400020430B9050181C4940180022019014467D
:10035000104605E0002001460DB0F0BD032801DA8B
:10036000034600E003239C46C11A0AAE0AE05F0080
:1003700008ADED5B4F00F75B7D430027AA187C4179
:10038000491C5B1E6145F2DD410004AB5A52210459
:10039000120C0A43240C401C0828DFDB0198029051
:1003A0000099704601910090059B049A0799069860
:1003B00000F005F9D0E700000DFCFFFFF0B50C469A
:1003C0005C4085B0E40FE40703944C000026640809
:1003D00059009446490802460296224321D06246BB
:1003E0000A431ED06200570D4A000E032303550D29
:1003F000012402462C492405781B1B0B360B4018A0
:1004000023432643614600901C46501AB44103D34F
:100410000098401C009002E0921800985B41002870
:1004200003DA0020014605B0F0BD002001210905D6
:100430000746864611E064461D46141BB54106D3A7
:100440006546521BB341744607430C43A646CD078D
:1004500040084908284392185B4105460D43EAD1FC
:100460001046184313D06046194650407140084367
:1004700006D06046101AB34106D20122002306E0DE
:1004800000220123DB0702E00122D243531000982F
:1004900074460105381C6141029C039D00196941A5
:1004A00000F080F8BFE70000FD0300004A000903E8
:1004B0000123090B1B0519430A4B10B5520D9A4233
:1004C00002DA0020014610BD064B34339A4203DCA9
:1004D0009A1A00F043F810BD034BD21800F02EF822
:1004E00010BD0000FF030000CDFBFFFF10B5002989
:1004F00004DB0124E40740428C412146002B04DB4D
:100500001C460123DB075242A341994200D190428D
:1005100010BD000000000000064C0125064E05E05D
:10052000E36807CC2B430C3C98471034B442F7D314
:10053000FFF7CAFDE02100000022000010B5202ACC
:1005400004DB0146203A9140002010BD9140202359
:100550009C1A0346E3401943904010BD10B5202A71
:1005600004DB0846203AD040002110BD0B46D340A2
:10057000D0402024A21A91400843194610BD10B55E
:10058000202A06DBCB170846203A1041C1170B433F
:1005900006E00B461341D0402024A21A91400843A4
:1005A000194610BD10B5002B08DA0024401C61412B
:1005B00092185B411A4301D14008400010BDF0B5CC
:1005C0001FB482B005460C0003D0084601F05AF96A
:1005D00002E001F057F920300246009021462846FB
:1005E000FFF7ACFF049B059A04460F4618431143DE
:1005F000084314D0184610431BD0009840210A1A13
:1006000018460599FFF7AAFF05460E46009A059978
:100610000498FFF793FF084305D0012004E020462B
:10062000394607B0F0BD0020C11705430E432C43E7
:10063000374300990E986305401A7905E40A0022B1
:100640000C43FD0A0A3002D500200146E9E7010506
:10065000101969410C9C0D9D00196941FFF7A2FF1B
:10066000DFE7000080B582B02348007801900428BD
:1006700034D80198810001A04058874691060000B7
:10068000A1060000AF060000BF060000CF06000074
:100690004B208300184619461A4600F037FF1DE02C
:1006A000174B184619461A4600F030FF16E04B204B
:1006B000C100124B08461A4600F028FF0EE04B20FE
:1006C000C3000E4908461A4600F020FF06E000234A
:1006D000184619461A4600F019FFFFE70648017848
:1006E000491C01700078052804DBFFE7024900205F
:1006F0000870FFE702B080BD0800202070FEFFFFF9
:10070000D4FEFFFF82B001900199881E001F00BF38
:10071000FCD2009002B0704784B003900291019225
:100720000398006800900098019988430090009811
:100730000299019A114008430399086004B0704778
:1007400084B0039002910192039800680090009891
:1007500001998843009000980299019A114008433A
:100760000399086004B0704784B00390029101922D
:1007700003980068009000980199884300900098C1
:100780000299019A114008430399086004B0704728
:1007900082B00190009100980199952252018850F1
:1007A00002B0704782B00190009100980199074A09
:1007B000885002B07047C04682B001900091009806
:1007C0000199024A885002B07047C046D01200001A
:1007D00081B0009000990120C2026B48885001B09E
:1007E0007047C04681B00090009881001A4A0248C4
:1007F000885001B07047C0468100040081B000906D
:1008000000988100144A8120885001B07047C0468A
:1008100081B00090009881000F4A8120885001B07B
:100820007047C04682B00190009100980349084388
:1008300001998900084A885002B07047800004007E
:1008400082B00190009100988021084301998900AD
:10085000014A885002B070470480424082B0019043
:10086000009101982721C90140580099084002B021
:100870007047000081B0009000998C4A8C488850E5
:1008800001B0704782B00190009100980199074A29
:10089000885002B07047C04682B001900091009825
:1008A0000199024A885002B07047C0469012000079
:1008B00006490868012290430860704703490868A8
:1008C00001221202904308607047C04608010B40A5
:1008D0000349086801221203104308607047C046AC
:1008E00004010B4081B0014668460170007802495E
:1008F000086001B07047C04608030B4080B582B065
:10090000014601A80170017802480322FFF704FFA5
:1009100002B080BD00010B40094908680522104360
:100920000860704781B00090054904200860009875
:10093000401E0449086004490020086001B0704767
:1009400010E000E014E000E018E000E081B000906A
:100950000099C04A0120885001B0704782B00190D0
:100960000091009B0199984A88581843885002B01A
:100970007047C04681B0009000990120C20298489B
:10098000885001B07047C0460100002681B0009039
:100990000098812149014058C0B201B07047000061
:1009A00080B584B00390029103980299496800F0E1
:1009B000DDF8029800780190222856D8019881002D
:1009C00001A040588746C046610A00006B0A00003B
:1009D000610A00006B0A00006B0A00006B0A00004D
:1009E0006B0A00006B0A00006B0A00006B0A000033
:1009F0006B0A00006B0A00006B0A00006B0A000023
:100A00006B0A00006B0A0000550A00006B0A000028
:100A1000550A00006B0A00006B0A00006B0A000018
:100A20006B0A00006B0A00006B0A00006B0A0000F2
:100A30006B0A00006B0A00006B0A00006B0A0000E2
:100A40006B0A00006B0A0000550A00006B0A0000E8
:100A5000550A000003980121490700F077F805E0E6
:100A60000398002100F072F800E0FFE70398029974
:100A700009690022009200F03BF8009B039802995C
:100A8000C9681A4600F016F802990878097A0843EE
:100A90000399354A885004B080BDC04681B00090AB
:100AA0000099764A7648885001B0704704080000E3
:100AB000030000B110B586B005900491039202A81E
:100AC00003700599084A89180191017801988900F5
:100AD0004018019001980499039A1143034AFFF7C3
:100AE0002FFE06B010BDC046301800007777020018
:100AF00084B00390029101A802700399064A8918F4
:100B0000009101780098890040180090029800999F
:100B1000086004B07047C0461018000082B0019011
:100B20000091009800780199714A885000984078A7
:100B30000199012212038850009880780199024A95
:100B4000885002B07047C0460C11000080B582B0DA
:100B5000019000910198044940180099032212075E
:100B6000FFF7EEFD02B080BD0418000082B00190D6
:100B7000009100980199024A885002B07047C0461F
:100B80000818000081B000900099112002028858D6
:100B900001239843885001B0704781B000900099BC
:100BA00011200202885801231843885001B0704771
:100BB00082B001900091009B0199034A8858184324
:100BC000885002B07047C0462810000081B00090E5
:100BD00000990120C2020248885001B07047C04607
:100BE0000100002681B00090009881214901405801
:100BF000C0B201B07047000080B582B00190009192
:100C00000198FFF7BFFF0198112109024018009ACF
:100C100011889378194392881143084AFFF7A4FD7D
:100C200001982A494018009A9179D3791943127A88
:100C300011437E22FFF798FD02B080BD18670200C5
:100C400081B000900098034940580121084001B04C
:100C50007047C0460811000081B00090009802491A
:100C60004058C0B201B070472411000081B000901C
:100C70000099024A0248885001B0704704080000F9
:100C8000030000B180B584B00390029101920398F3
:100C90000B49401802990B4AFFF73EFD03980A4999
:100CA000401801993F22FFF737FD0399074A88183A
:100CB000895801221140FFF72FFD04B080BDC046C6
:100CC00010110000FFFF00001411000004110000CB
:100CD00082B001900091009800780199044A8850F0
:100CE00000984078019901221203885002B07047A1
:100CF0000810000080B582B0019000910198112188
:100D00000902401800990322D203FFF705FD02B043
:100D100080BD82B0019068460170007801998922F7
:100D20005201885002B0704780B588B006A90020F3
:100D3000059008702220FFF755FD059807A9087057
:100D4000FFE707A80078072837DCFFE701200390BA
:100D500001030191CA480490FFF71AFD0520029093
:100D600000F008FC01990498FFF796FD029800F046
:100D700001FC03990498069A520006AB1A704903C5
:100D8000FFF76CFD8004002804D5FFE70120002850
:100D900004D109E00120002806D1FFE706980121CF
:100DA000084306A90870FFE7052000F0E3FBFFE712
:100DB0000798401C07A90870C3E701200103F84801
:100DC000FFF7E6FC06A8007808B080BD80B588B0C3
:100DD00007A9069108702220FFF71AFD0120039051
:100DE00041030591EE480490FFF756FD04980599DC
:100DF000FFF7E2FC039904980903FFF7C9FC049884
:100E00000599FFF7C5FC052000F0B4FB06980078B3
:100E1000002806D1FFE701204103E148FFF7B8FCB5
:100E200005E001204103DE48FFF736FDFFE7012022
:100E3000019001030091DA480290FFF72DFD052093
:100E400000F098FB00990298FFF7A2FC0199029824
:100E50004903FFF721FD08B080BDC04680B58AB0C8
:100E600009A908700020079008902220FFF7D0FC05
:100E70000120059041030491C9480690FFF70CFD3D
:100E800004990698FFF798FC059906980903FFF75F
:100E90007FFC07980890FFE70898072831DCFFE7F8
:100EA00009A80078C009002806D0FFE70120410307
:100EB000BB48FFF7F1FC05E001204103B848FFF70C
:100EC00067FCFFE70120009000F054FB009801034D
:100ED0000291F9480190FFF7DFFC0520039000F034
:100EE00049FB01980299FFF753FC039800F042FB7D
:100EF0000998400009A90870FFE70898401C08906D
:100F0000CAE70AB080BDC04680B586B02220FFF790
:100F10007FFC0120029041030191E7480390FFF715
:100F2000BBFC01990398FFF747FC01990398FFF771
:100F3000B3FC0299039809030491FFF7ADFC0298F2
:100F400000F018FB01990398FFF722FC029800F0CB
:100F500011FB03980499FFF71BFC059806B080BDB0
:100F600080B584B02220FFF753FC01200390410399
:100F70000291D1480190FFF78FFC01980299FFF789
:100F80001BFC0198039909030091FFF701FC0198EC
:100F90000299FFF7FDFB00990198FFF77DFC03988C
:100FA00000F0E8FA01980299FFF776FC039800F048
:100FB000E1FA04B080BDC04680B58CB00AA900201B
:100FC000087009A90A200870012006900103089101
:100FD000B9480790FFF7DCFB069907984903FFF72C
:100FE0005BFC2220FFF7FEFB07980899FFF754FCF3
:100FF000FFE7012041030491AF48FFF72FFC04995C
:101000000840410B00200129059006D1FFE709A8FF
:101010000078411E88410590FFE70598C007002829
:1010200008D0FFE70998401E09A90870012000F0C8
:10103000A1FADEE709A80078002805DCFFE7FFF742
:101040008FFF01200B9018E00120019001039A48C6
:101050000290FFF79DFB2220FFF7DAFB019902982F
:1010600049030391FFF718FC02980399FFF7A4FBCB
:10107000FFE70AA800780B90FFE70B980CB080BD43
:1010800000000A4070B586B0334B039326200290CF
:1010900020210222019200F0CDFA019A02982F4DF0
:1010A000049521212B4600F0C5FA019A039B029872
:1010B000197809065C78240409192C782402091986
:1010C0006C780919264C05942160222100F0B2FAAF
:1010D000019A029823212B4600F0ACFA019A039B57
:1010E0000298197809065E78360489192E78360236
:1010F00089196E7889196160242100F09BFA019AA0
:10110000029825212B4600F095FA0299019A039B3B
:10111000187800065E78360480192E783602801919
:101120006D784019A060084600F084FA019A049B8B
:101130000298272100F07EFA039B049A05991878FB
:1011400000065B781B04C01813781B02C018527885
:101150008018C86006B070BD1C0020201E00202032
:101160000C00202080B584B0142002210191FFF7EB
:1011700067FB01991520FFF755FB2220FFF73EFB87
:101180002120FFF73BFB0320010303914A48029013
:10119000FFF778FB02980399FFF704FB04B080BDCA
:1011A00000000A4080B582B000200190FFF79AFB52
:1011B0000198FFF7A3FBFFF77BFBFFF77FFBFFF730
:1011C00087FB02B080BD80B52020FFF7ABFBFFF7A7
:1011D000A3FB80BD80B582B008496D480190FFF740
:1011E0009DFC01980649FFF7DBFB01980121FFF701
:1011F000B5FB0198FFF7AAFB02B080BD8C2100006F
:101200009021000080B582B00D4977480190FFF72A
:101210005FFD01980B49FFF7EFFC01980021FFF7F4
:1012200069FD019802210B22FFF72CFD0198012195
:101230008902FFF7BDFC0198FFF7AFFC02B080BD4B
:10124000A4210000A621000080B500F011F8FFF7EE
:1012500089FFFFF7A7FFFFF7BDFFFFF7D3FFFFF7FA
:10126000B2FF0249B8220020885480BD3C002020F3
:1012700080B584B010480090FFF7FCFA0F48019049
:10128000FFF7F8FA42480290FFF708FCE84803909D
:10129000FFF7ECFC0098FFF79BFA0198FFF798FA2C
:1012A0000298FFF767FB0398FFF790FC1020FFF709
:1012B00029FA04B080BDC04600000A4000200A4060
:1012C00080B582B0014601A801804078054B1870B6
:1012D0000198587026200421022200F011FA02B071
:1012E00080BDC0462000202080B582B0014601A804
:1012F00001804078054B1870019858702620032112
:10130000022200F0FDF902B080BDC046220020207C
:1013100080B582B0019001980549009100F064F910
:10132000009B26200521042200F0EAF902B080BDCE
:101330002400202080B582B0014601A801804078B9
:10134000054B18700198587026200222114600F0B3
:10135000D7F902B080BDC0462800202080B582B0F9
:1013600001AB187026200122114600F0C9F902B025
:1013700080BD000080B50648FFF708FB012805D1B5
:10138000FFE704490878401C087000E0FFE780BDD3
:10139000000086407C01202080B582B001A9002099
:1013A0000870A348FFF71EFC0B281AD1FFE7A048DE
:1013B000FFF752FC01A908700C4800887E2808DC61
:1013C000FFE70198094B1A88511C19800849885475
:1013D00003E0064900200880FFE706490120087065
:1013E00000E0FFE702B080BD008010407A012020BD
:1013F000F80020207801202080B582B0FFF724FF7C
:101400000F20019000F01AF8019800F041F802B0A6
:1014100080BD000081B00146684601700021405641
:10142000002809D4FFE7684601781F200140012009
:1014300088400C490860FFE701B0704781B0014661
:101440006846017000214056002809D4FFE768462D
:1014500001781F2001400120884002490860FFE711
:1014600001B0704780E200E081B00146684601703B
:1014700000214056002809D4FFE7684601781F2064
:101480000140012088400C490860FFE701B0704727
:1014900081B001466846017000214056002809D4F9
:1014A000FFE7684601781F2001400120884002497B
:1014B0000860FFE701B0704700E100E010B586B0BA
:1014C0001C4601920246019805AB1A8004AA1180BD
:1014D00003A9088002A804805C780B4B1C70059C53
:1014E0005C7052789A70049ADA704978197103998D
:1014F0005971407898710298D871262007210822E6
:1015000000F0FEF806B010BD2A00202010B586B00D
:101510001C4601920246019805AB1A8004AA11806C
:1015200003A9088002A804805C780B4B1C70059C02
:101530005C7052789A70049ADA704978197103993C
:101540005971407898710298D87126200621082296
:1015500000F0D6F806B010BD3200202080B582B071
:10156000019001997D20C000484300F003F802B0CB
:1015700080BD000085B004902620009004984001B2
:101580000390174800680290FFE715480068019033
:101590000198029988421FD0FFE70198029988427A
:1015A00007D2FFE702980199411A0098401800906D
:1015B00009E00C4800680199401A02994118009806
:1015C00040180090FFE70198029000980399884224
:1015D00001D3FFE701E0FFE7D7E705B07047C0465A
:1015E00018E000E014E000E082B001900091009962
:1015F00001A8C278CA7082788A70407848700198D1
:10160000087002B07047000080B582B00190009170
:10161000FFE70748FFF714FB002801D0FFE7F8E7D2
:1016200001A801780248FFF774FB019802B080BD61
:101630000080104010B586B004AC207003A8017083
:1016400002A802700193FFF75FFC04984000C0B24B
:10165000FFF704FCFFF7B0FC012805D1FFE7FFF717
:101660007FFC0120059048E003A80078FFF7F6FB17
:10167000FFF7A2FC012805D1FFE7FFF771FC02206C
:1016800005903AE0FFF740FC04984000401CC0B2CF
:10169000FFF7E4FBFFF790FC012805D1FFE7FFF718
:1016A0005FFC0320059028E0694600200870FFE7F2
:1016B0006846007802A90978491E88420FDAFFE7D8
:1016C000FFF732FB01996A46127888540020FFF731
:1016D0007DFBFFE70098401C69460870E8E7FFF7CC
:1016E00023FB01996A46127888540120FFF76EFBAC
:1016F000FFF736FC00200590FFE7059806B010BD07
:1017000010B586B004AC207003A8017002A8027066
:101710000193694600200880FFF7F6FB0498400615
:10172000000EFFF79BFBFFF747FC012805D1FFE701
:10173000FFF716FC0120059035E003A80078FFF7BD
:101740008DFBFFF739FC012805D1FFE7FFF708FC07
:101750000220059027E0694600200880FFE76846E0
:10176000008802A90978884218DAFFE701986946DB
:101770000988405CFFF772FBFFF71EFC012807D1C8
:10178000FFE7FFF7EDFB68460088C01C05900AE004
:10179000FFE70098401C69460880E0E7FFF7E0FBA0
:1017A00000200590FFE7059806B010BD80B586B013
:1017B000002002900590FFF71FFE254800F052F828
:1017C000029B184619461A46FFF778FE64200390DC
:1017D000FFF7C4FE0220FFF7C1FD0398FFF7BEFE2E
:1017E0001420FFF76DFD0398FFF7B8FE0D20FFF7FB
:1017F0007BFD0398FFF7B2FE1648FFF789FD0398BB
:10180000FFF7ACFE19208001FFF794FD0398FFF766
:10181000A5FE12200490FFF7FDFD0498FFF724FEBB
:10182000FFE70D480078192806DBFFE7FEF71AFFEF
:10183000094900200870FFE7FFF724FC074801680A
:1018400042688368C0680090054800F00BF8E8E73C
:10185000CF210000000040427C0120200C0020200D
:10186000B02100000FB410B503A9044B044A02983C
:1018700000F0F0F810BC08BC04B0184709160000CE
:10188000000020202021020C01D010211046020A65
:1018900001D010460839020901D01046091F8208FC
:1018A00001D01046891E420801D0881E7047081AD0
:1018B000704700000000000002E008C8121F08C1C5
:1018C000002AFAD1704700007047000000000000B5
:1018D000002001E001C1121F002AFBD17047000067
:1018E000F0B51FB486B00998089A030D0021024391
:1018F00014D05148514A1818504305141198012822
:1019000010981AD0281A401C00264D4F4D490096B9
:1019100001910490002812DA444211E01198012448
:1019200049A3012801D11098C1430698119A8460F7
:101930000360C26041600BB0F0BD4042E4E7044682
:10194000210500203F4A001C51410391029012E002
:10195000E00707D032463B4601990098FEF7C6FCE7
:101960000191009032463B4610461946FEF7BEFCF8
:1019700006460F466410002CEAD10498039B002809
:10198000029A0999089806DAFEF7B0FC019B009AC2
:10199000FEF7ACFC05E0FEF711FD019B009AFEF797
:1019A0000DFD04460E460022284BFEF79FFD03D88E
:1019B0000020C043014607E00022254B2046314667
:1019C000FEF7E2FBFEF772FD102409E0002C0ADBB3
:1019D0000A220023FEF7A7FB079B30321A55641E2C
:1019E00002460A43F2D11122641C079B121B1C19E8
:1019F000119B012B03D0012308430ED10AE00843B9
:101A000004D0112010900020119077E71098151A3B
:101A10006D1E0BE01098824202DD00236D1C03E076
:101A2000824201DA00236D1E002BEED00698119938
:101A30008260C16030C07EE701FCFFFF104D0000F6
:101A4000000014400000F03F300000000000F043B0
:101A50000000E03FFFB597B00646002518E22528B4
:101A600077D100242746FD49049400E00443761C06
:101A700032780120203A90400842F7D130782A2865
:101A80000ED00222307801463039092916D804993F
:101A90000A235943303940181443761C0490F1E767
:101AA000189802C804911890002904DA0120400314
:101AB00004434842049002200443761C30782E28C8
:101AC00014D1042004437078761C2A2809D1189870
:101AD000761C80C8189009E00A214F43303FC7198F
:101AE000761C3078014630390929F5D930786C28D0
:101AF00010D006DC4C281AD068280ED06A2817D1DE
:101B000004E0742813D07A2812D110E00120400597
:101B100004430CE00121090501E0032109050C4300
:101B20007178814203D1012000052418761C761CAF
:101B30003078119066280BD013DC58287DD009DC52
:101B400000287BD04528F6D04628F4D047281AD163
:101B5000A5E118E0632835D0642870D0652812D13B
:101B60009DE170286CD008DC6728F1D069287BD013
:101B70006E280DD06F2806D1BAE073282ED07528B4
:101B800071D0782859D01A9A199990476D1C7EE126
:101B90006002400F022809D003280DD004281898AD
:101BA00001680DD00D60001D189070E11898EA17BB
:101BB00001680D604A60F6E7189801680D80F2E749
:101BC0000D70F0E718986A4601781172001D1890A0
:101BD0000020507202A80090012005E0189802C869
:101BE000189000200091C04361070DD5002101E04D
:101BF0000199491C0191B94212DA8142F8DB009A3D
:101C0000515C0029F4D10BE0002101E00199491C4D
:101C100001918142FADB019A0099895C0029F5D192
:101C2000019904981A9B471A21463846199A00F0E0
:101C300097FA0199401945180BE04FE02CE113E0A9
:101C40004EE0009800990078491C00911A9A199961
:101C500090470198401E0190401CF2D12146384621
:101C60001A9B199A10E137E00A2000210090019197
:101C70006002410F022907D0189A01CA1892C217B0
:101C80009446032908D00AE01898C01DC108C9006D
:101C900005C91891944607E000B2C217944604297A
:101CA00002D140B2C1178C4600226146944506DA43
:101CB0000A460021404291418C462D2102E0210537
:101CC00004D52B216A461173012103E0E10701D0FD
:101CD0002021F7E7029155E00A200AE0102008E0F1
:101CE000102000900021042004430191082703E004
:101CF00008200021019100906002410F022907D0C5
:101D0000189A01CA189200229446032908D008E0C4
:101D10001898C01DC108C90005C91891944603E070
:101D200080B2042900D1C0B200210291210729D537
:101D30001199702906D0009A1021019B4A401A433C
:101D400005D00EE040216A461173012108E061468A
:101D5000014306D030216A46117311995173022153
:101D60000291009A0821019B4A401A430AD1614618
:101D7000014301D1610705D530216A461173012164
:101D80007F1E02911199582904D035A10E910DA9F9
:101D90000D910DE037A1F9E76146019B009AFEF72E
:101DA000C2F90E9B8C469B5C0D9A521E0D921370CD
:101DB00061460143F0D10D9805A9081A2030019021
:101DC000600703D501200004844300E00127019847
:101DD000874201DD381A00E0002001990090411887
:101DE000029809180498401A0490E00306D421468A
:101DF0001A9B199A049800F0B3F94519002706E0D8
:101E000003A81A9AC05D199990476D1C7F1C02980F
:101E10008742F5DBE0030CD521461A9B199A0498FA
:101E200000F09EF9451904E01A9A3020199990475C
:101E30006D1C0099481E00900029F5DC08E00D9803
:101E40000D990078491C0D911A9A199990476D1CAB
:101E50000199481E01900029F1DC63E10928010085
:101E60003031323334353637383961626364656610
:101E700000000000303132333435363738394142D2
:101E8000434445460000000000F05AF94519761C0D
:101E90003078002800D0E2E528461BB0F0BD60078E
:101EA00000D406271898C01DC108C90048680A68F0
:101EB0000831C30FDB071891190001D09CA108E07D
:101EC000210501D59BA104E0E10701D09AA100E022
:101ED0009AA1430011985B08109165280CD006DC8C
:101EE000452809D046281DD0472841D141E0662821
:101EF00018D067283CD13CE00021112F01DB1120D4
:101F000000E0781C0191009008A911A8FFF7E8FCF7
:101F1000139905910021119A15927F1C129801972F
:101F2000009150E00120C00703900120019008A912
:101F3000009711A8FFF7D4FC139A14990592002278
:101F4000119B009212981593059A0192002901D0D5
:101F5000104602E0791C40180190381A01D501980A
:101F600004E04042401E0090781C0190C01B02908B
:101F700043E0012F00DA01270021112F01DD11209C
:101F800000E038460191009008A911A8FFF7A8FCCD
:101F900013990591119A00211298159200910197B9
:101FA00021070CD40599B94201DB019900E00191A8
:101FB000012904DD159A491E515C302906D0B8422A
:101FC00001DA011D05DA0121029115E00199491E8E
:101FD000EDE7002805DC0099411800910199091AE4
:101FE00003E0019A411C914200DD01910099401AE1
:101FF000401C02900120C0070390200706D40299DC
:102000000198814202DB0020C04302900020694613
:10201000C87707AF012103980337C907884224D046
:10202000022011902B201290039800280CDA4042D5
:1020300003902D20129007E00A210398FEF754F830
:1020400030317F1E039039701199481E119000297C
:10205000F2DC03980028EFD1791E129808703078CE
:10206000202108404530BF1E387006A8C01BC01D87
:10207000039010980078002800D0012001994118A1
:102080000298C0170918039809180498401A401EAE
:102090000490E00306D421461A9B199A049800F094
:1020A0005FF8451910980078002803D01A9A1999FA
:1020B00090476D1CE00324D521461A9B199A049879
:1020C00000F04EF845191CE00098002807DB009945
:1020D0000598884203DD1598405C199901E019992B
:1020E00030201A9A904700986D1C401C009002986E
:1020F000401E0290002804D11A9A2E201999904768
:102100006D1C0199481E01900029DDDC05E038783E
:102110001A9A7F1C199990476D1C0399481E0390C9
:102120000029F4DC21461A9B199A0498ACE60000B9
:102130002D0000002B000000200000000000000027
:10214000F8B5044600251E461746880404D405E069
:1021500039462020B0476D1C641EF9D52846F8BDCD
:10216000FFB50446002581B01E46C80301D53027BF
:1021700000E02027880404D505E038460399B047DD
:102180006D1C641EF9D5284605B0F0BD0807270070
:10219000020000000F270000010000000000000006
:1021A00000000000040000001800000000300000E3
:1021B0004D313A256409204D323A256409204D33CA
:1021C0003A256409204D343A256409200D0A00702F
:1021D0006C6561736520776169742E2E2E00000096
:1021E000002200000000202008000000B8180000B5
:1021F000082200000800202078030000D01800000A
:082200000000000000000000D6
:04000005000000C136
:00000001FF
