:020000040800F2
:10000000781100204901000839340008892A0008C5
:10001000992E0008291400088B48000800000000F1
:100020000000000000000000000000004D38000843
:100030004B1F000800000000D1360008393A0008C4
:100040006301000863010008630100086301000800
:1000500063010008630100086301000863010008F0
:1000600063010008630100086301000863010008E0
:1000700063010008630100086301000863010008D0
:1000800063010008630100086301000863010008C0
:1000900063010008630100086301000863010008B0
:1000A00063010008630100086301000863010008A0
:1000B0006301000863010008630100086301000890
:1000C00063010008CD2A00088D2A0008630100089A
:1000D000630100089D440008B5450008630100085D
:1000E0006301000863010008630100086301000860
:1000F0006301000863010008630100086301000850
:10010000630100086301000863010008630100083F
:100110006301000863010008DD3C0008630100087A
:10012000630100086301000863010008630100081F
:10013000DFF810D000F0FEFC00480047AD53000887
:10014000AFF300807811002006488047064800473A
:10015000FEE7FEE7FEE7FEE7FEE7FEE7FEE7FEE777
:10016000FEE7FEE73D3A00083101000840EA0103DE
:100170009B0703D009E008C9121F08C0042AFAD25D
:1001800003E011F8013B00F8013B521EF9D2704721
:10019000D2B201E000F8012B491EFBD270470022C9
:1001A000F6E710B513460A4604461946FFF7F0FF76
:1001B000204610BD421C10F8011B0029FBD1801AFB
:1001C0007047034611F8012B00F8012B002AF9D1E2
:1001D0001846704730B505460020034600E05B1C1A
:1001E000934205D2EC5CC85C201A01D1002CF6D1F8
:1001F00030BD000070B50F4D00B92868002412E032
:100200000A4602E09E4203D0521C1378002BF9D11B
:10021000DAB2224305D02BB124B1002100F8011B32
:1002200004E00446401C0678002EE9D128602046F0
:1002300070BD00009800002070B5064604F04CFB2D
:10024000046805460A220021304600F061FA2C605D
:1002500070BDF0B480EA0102D40F4200B2EB410F4E
:1002600002D20246084611464A0042D0C30DDDB212
:10027000C1F3C752AD1A202D35DAC1F3160141F48E
:10028000000204B15242C5F1200602FA06F12A41E9
:100290001044B3EBD05F23D0C4B1012DA0EBC35009
:1002A00009DCF0BC4FF0004202EAC352DBB200F5B9
:1002B000000000F06EBA400000F1807000EBC35007
:1002C000A0F1807040EAD170490009E0490841EA94
:1002D000C071A0EBC35000F50000400800EBC35014
:1002E000F0BC00F04DBA6142012202EB4101001B5B
:1002F000F6E7F0BC704781F00041AAE780F00040CB
:10030000A7E780EA010210B502F00043400022D0C6
:100310004A001FD0010E01EB1261C0F35600C2F378
:10032000560240F4000042F40002A0FB0220000448
:100330007F39140400D0401C50EA124001D4400020
:10034000491EC2B20C0604EBD010401C4008802AA3
:1003500002D003E0002010BD20F00100002900DAE7
:100360000020184310BD30B480EA010202F00045BD
:1003700030F0004221F0004013D090B1C30DD40DF5
:10038000C2F31601C0F31600E41A41F4000140F470
:1003900000027D34914201D3641C00E04900002C2E
:1003A00002DA30BC002070474FF400000023914275
:1003B00001D3891A034340084FEA4101F7D151B1F3
:1003C000914202D14FF0004105E002D24FF001010D
:1003D00001E06FF0010103EBC450284430BC00F091
:1003E000CFB92DE9FE4F81EA030404F0004421F067
:1003F000004100944FF0000B23F0004350EA010449
:100400005ED052EA03045BD0C3F30A54C1F30A5529
:100410002C44A4F2F3340194A0FB0254C1F3130161
:1004200041F48011C3F3130343F4801301FB02442E
:1004300000FB034E840A970A44EA815447EA835733
:10044000A4FB076802958D0A05FB07854FEA932CEC
:1004500004FB0C542705029D4FEA065847EA16375D
:10046000B5EB08056EEB070C870E920E47EA811775
:1004700042EA8312A7FB0201B6EB0B0164EB000416
:100480002B0D43EA0C335E1844EB1C50DA46514600
:10049000E7FB0201C5F313044FEA0B3343EA14539D
:1004A0004FEA0432019C43EA0603A4F10C040294CF
:1004B000009CCDE900B400F0A9F903B0BDE8F08FCD
:1004C00000200146F9E7C10F80EAE0700844CA073E
:1004D0009623002100F05DB996230022114600F01A
:1004E00058B90EB5C10F80EAE0700844CA07002170
:1004F00040F233438DE80E000A460B4600F086F9C1
:1005000003B000BD00F0004220F00040C10DC0F378
:10051000160040F400007F2901DA00207047962978
:1005200003DCC1F19601C84001E096398840002AF9
:10053000F4D04042704720F00040C10DC0F31600D7
:1005400040F400007F2901DA00207047962903DC7F
:10055000C1F19601C840704796398840704700F055
:10056000004230F000400AD0C10D01F56071C0F3C7
:10057000160042EA0151C2084007114370470020AB
:100580000146704701F0004330B421F0004150EAC9
:10059000010206D00A0DA2F56072C1F31301002A10
:1005A00002DC30BC00207047440F44EAC104C100A3
:1005B000E01830BC00EBC25000F0E2B8002801DBCC
:1005C000C0F10040002901DBC1F1004181427047C8
:1005D000002801DBC0F10040002901DBC1F100412E
:1005E0008842704730B50B46014600202022012486
:1005F00009E021FA02F59D4205D303FA02F5491BF1
:1006000004FA02F52844151EA2F10102F1DC30BD06
:100610002DE9F05F0546002092469B468846064637
:10062000814640241BE0284641464746224600F0CA
:10063000A2FA53465A46C01A914110D311461846A1
:10064000224600F089FA2D1A67EB01084F46224630
:100650000120002100F080FA17EB00094E41201E16
:10066000A4F10104DFDC484631462A464346BDE892
:10067000F09F00000FB4002300B589B00CA90091D1
:100680000B996FF00042CB601E4B06931E4B0793F5
:100690000423CDE901321D4A089202466B46002030
:1006A00000F02EFB09B05DF814FB70B586B006466D
:1006B0004FF0FF300091CDE90101002015460C46B6
:1006C00004903246694604A8FFF7D4FF0246049816
:1006D000211825B108B1084600E02046286004989A
:1006E00000280DD0002A02DD0098884208D0081B9F
:1006F0000094CDE901043246694604A8FFF7BAFF29
:1007000006B070BD390F0008570F0008C50B000870
:100710002DE9F04791460F4680460446002614F81E
:10072000015B2DB100F04AFA0068405DC007F6D1C8
:100730002B2D02D02D2D18D0641E4A463946204656
:1007400000F01AFC27B13968A14201D1C7F8008036
:1007500071054FF002040BD54042002803DD04F080
:10076000BBF80460A007BDE8F08746F48066E4E7C4
:100770000028F8DA04F0B0F804606FF00040F2E707
:100780000029A8BF7047401C490008BF20F00100A5
:10079000704710B4B0FA80FC00FA0CF050EA010483
:1007A00004BF10BC704749B1CCF1200421FA04F415
:1007B00011FA0CF118BF012121430843A3EB0C01EE
:1007C000CB1D4FEA00614FEA102042BF002010BC51
:1007D000704700EBC35010440029A4BF10BC704701
:1007E000401C490008BF20F0010010BC704710B544
:1007F000141E73F1000408DA401C41F10001921844
:100800005B411A4301D120F0010010BD2DE9F04DEC
:1008100092469B4611B1B1FA81F202E0B0FA80F241
:100820002032904600F098F904460F4640EA0A004C
:1008300041EA0B0153465A46084313D0114653EA86
:10084000010019D0C8F14002504600F094F9054665
:100850000E4650465946424600F07EF9084305D000
:10086000012004E020463946BDE8F08D0020054314
:1008700046EAE0762C4337430A986305E40AA0EB86
:1008800008000022FD0A44EA47540A3002D500203D
:100890000146E9E7010510196941DDE9084500193C
:1008A0006941BDE8F04DA2E72DE9FE4F804681EA9F
:1008B0000300C00F0C46009021F0004123F00045DA
:1008C000B8EB0200A94105D24046214690461C469D
:1008D0000B46024623F00040104347D0270DC7F3D4
:1008E0000A00C3F30A510290401A019040286BDAC3
:1008F000C3F3130040F4801B0098924620B10023FC
:10090000D2EB030A63EB0B0B01985946C0F140028E
:10091000504600F021F906460D4650465946019AC8
:1009200000F039F910EB08006141002487EA115208
:1009300084EAE7731A4340D0009A62B3019A012A0D
:100940004FEA075215DC001B61EB02014FF0004239
:1009500002EA0752CDE90042001C41F580113246FF
:100960002B46FFF753FF03B0BDE8F08F404621460A
:10097000F9E7001B61EB0201001C41F58013001830
:100980005B412018A2F5001747EB030140EAD57040
:10099000B6196D4111E06D084FEA360645EAC0759B
:1009A0004FEA0752001B61EB0201001C41F5801168
:1009B00049084FEA30000019514132462B4603B036
:1009C000BDE8F04FFFF713BF00980122400000235D
:1009D000D0EB020263EBE073009821464FEAE0742B
:1009E000B8EB000061EB0401E9E783F000435BE74B
:1009F00081F0004158E72DE9F04D81EA030404F04D
:100A0000004B21F0004514464FF0000A23F000414E
:100A100050EA050220D054EA01021DD0C5F30A575E
:100A20000246C5F31303C1F31300C1F30A5640F4A1
:100A3000801543F48013A7EB0608101BD64608F276
:100A4000FD3873EB050002D308F1010801E09218AC
:100A50005B41B8F1000F03DA00200146BDE8F08DDC
:100A600000204FF48011064684460EE0171B73EBFE
:100A7000050705D3121B63EB050306434CEA010C83
:100A800049084FEA300092185B4150EA0107EDD166
:100A900052EA030012D082EA040083EA0501084307
:100AA00005D0101BAB4106D20122002306E0002234
:100AB0004FF0004302E06FF0010253101AEB060002
:100AC0004CEB085110EB0A0041EB0B01BDE8F04D77
:100AD000FFF78DBEC1F30A52C1F3130140F2FF3399
:100AE00041F480119A4202DA00200146704740F238
:100AF00033439A42A2F2334202DC524200F03BB846
:100B000000F02AB830B5041E71F1000404DB4FF088
:100B10000044404264EB0101141E73F1000405DB44
:100B20001C464FF00043524263EB0403994208BF56
:100B3000904230BD064C074D06E0E06840F00103EE
:100B400094E8070098471034AC42F6D3FFF7F4FA64
:100B5000A85A0008C85A0008202A04DB203A00FAE4
:100B600002F1002070479140C2F1200320FA03F304
:100B7000194390407047202A04DB203A21FA02F002
:100B80000021704721FA02F3D040C2F120029140C7
:100B9000084319467047202A06DBCB17203A41FA52
:100BA00002F043EAE07306E041FA02F3D040C2F1FA
:100BB00020029140084319467047000000487047E2
:100BC000A45A000810B50446FFF7F8FF0068005D5E
:100BD00000F0010010BD00002DE9FF4F087883B040
:100BE0009946FF2805D0491C2D2804D00024002058
:100BF00008E000200BE00124F9E700EB800003EBA4
:100C00004000491C0B78FF2BF7D104B14042002370
:100C10000293147819461D462D2C01D02B2C04D19B
:100C2000521C2D2C13D000240294AA461478FF2CB9
:100C30000FD00A25A3FB057801FB05814FF0000CBE
:100C400003FB0C11521CE3194AEB0101EEE70124EE
:100C5000EAE7814453EA010002D019F5C87F06DAB9
:100C600003980021C0E9001107B0BDE8F08F00250E
:100C7000AE4E2F46DFF8B882184600F0DAF9CDE91B
:100C80000001B9F1000002DAC9F1000400E00446F5
:100C90000023A74A1AEB030B42EB045A12E0E007C9
:100CA00007D02A46334638464146FFF79AFB0746A7
:100CB00088462A46334610461946FFF792FB0546FA
:100CC0000E466410002CEAD1DDE90001B9F1000FF5
:100CD0005A46534606DAFFF78EFE3A464346FFF77A
:100CE0008AFE05E0FFF77DFB3A464346FFF779FBB6
:100CF000029A0AB181F00041039AC2E90001B3E708
:100D00002DE9FF4F1F468DB0D7E901464FF0FF3860
:100D10002E2045464FF000090B90B9696D1C0E98C6
:100D20008847396A824688470028F6D1BAF1FF3FE2
:100D30000AD024F4D064002E11DDBAF12B0F08D0B4
:100D4000BAF12D0F0BD102E0404611B08DE744F40B
:100D50008064B9696D1C0E9888478246761E694684
:100D6000600501D52D2000E02B208DF8000001F159
:100D7000010B0DF1200809E0B9696D1C0E98884738
:100D800082460F9844F40074761E0560002E02DD42
:100D9000BAF1300FF0D00B998A453ED144F080046F
:100DA00006E00F99681CA9F1010944F40074086079
:100DB000B9696D1C761E0E98884782463028F0D09F
:100DC0002BE00B998A4505D1200603D444F080041A
:100DD000761E18E0504603F061FE08B30DF11301D2
:100DE000761E44F400748B4508D2AAF130000BF84B
:100DF000010B200607D5A9F1010003E0200602D46B
:100E000009F101008146A00502D50F99681C086010
:100E1000B9696D1C0E9888478246002ED1DC53E0DC
:100E2000002E51DDBAF1650F02D0BAF1450F4BD15A
:100E3000A00549D5B9696D1C24F44074761E0E983E
:100E400088478246002E0CDD2B2804D0BAF12D0FE6
:100E500007D144F48074B9696D1C0E9888478246A6
:100E6000761EE00501D52D2100E02B2108F8011B9D
:100E7000CDF82C8021E00DF12901761E44F4007498
:100E800088450CD2AAF1300010F0FF0088F800006D
:100E900002D10B99884509D908F1010806E0E0055F
:100EA00001D5244801E042F20F708146B9696D1CFA
:100EB0000E98884782460F980560002E04DD504644
:100EC00003F0ECFD0028D6D1F9690E988847FF2081
:100ED0008BF8000088F800000020069007904B4631
:100EE0006A4608A906A8FFF777FEA00502D46FF0AE
:100EF00001002AE714F0240F0AD0E00714D1DDE93D
:100F000006123868031D3B600068C0E900120BE060
:100F1000DDE90601FFF736FB0146E00704D138683A
:100F2000021D3A600068016028460EE70000144088
:100F30000000F03FF1D8FFFF426842B1016811F8AC
:100F4000013B23B1521EC0E900121846704701212F
:100F5000C160881E704742685AB1C368016843B9CE
:100F600083688B4205D0491E521CC0E90012002044
:100F700070474FF0FF3070472DE9F05F82460078F0
:100F8000002715468B460AF10104B946302801D0E6
:100F90009DB113E014F8010B0127782803D05828DD
:100FA00001D045B10AE00DB1102D07D10027102561
:100FB00014F8010B02E0082500E00A250026B046DF
:100FC0000EE005FB080005FB06F1012701EB1046CA
:100FD0001FFA80F8B6F5803F00D3B94614F8010B2C
:100FE000294600F018F80028EBDABBF1000F05D015
:100FF0000FB1641E00E05446CBF80040B9F1000F79
:1010000006D003F069FC02210160C81EBDE8F09F14
:1010100048EA0640FAE73A2800D2303820F02002A9
:10102000412A01D3A2F13700884201D34FF0FF30AB
:1010300070470EB540F2334202920022CDE9002201
:101040001346FFF7E3FB03B000BD21B1826842F015
:101050000102826003E0826822F001028260704730
:1010600010B504461248844208D10121401502F00F
:101070006DFB0021601502F069FB17E00D4884420A
:1010800008D10121001502F061FB0021201502F0BA
:101090005DFB0BE00848844208D10121C80302F03F
:1010A00055FB00214FF4004002F050FB10BD000042
:1010B0000024014000280140003C0140014600207E
:1010C0008A6802F004020AB1012000E000207047A3
:1010D0000146C86C80B270470246002013680B407E
:1010E0000BB1012000E000207047014600208A6813
:1010F00002F008020AB1012000E000207047000061
:1011000030B502460020002350680F4C20400D7976
:101110000C6844EA05242043506090680B4C204042
:10112000D1E902542C434D7944EA450420439060B0
:10113000D06A20F470000C7C641EE4B2234340EAC1
:101140000350D06230BD0000FFFEF0FFFDF7F1FF5D
:10115000F0B504460D4600200021092D11DDE068A0
:10116000A5F10A0606EB4607072606FA07F18843AB
:10117000A5F10A0606EB460603FA06F10843E0600D
:101180000CE0206905EB4507072606FA07F18843BE
:1011900005EB450603FA06F108432061072A0FDA3A
:1011A000606B561E06EB86071F2606FA07F188437A
:1011B000561E06EB860605FA06F10843606322E038
:1011C0000D2A0FDA206BD61F06EB86071F2606FABC
:1011D00007F18843D61F06EB860605FA06F1084399
:1011E000206310E0E06AA2F10D0606EB86071F26D9
:1011F00006FA07F18843A2F10D0606EB860605FA0A
:1012000006F10843E062F0BD816841F008018160A9
:10121000704721B1826842F4A002826003E08268D4
:1012200022F4A00282607047816841F0040181606D
:101230007047000010B502F001FC4FF4A06002F00E
:1012400035F904F04BF801F0DDFD01F03BF901F058
:10125000EFFD00214FF4616001F0A0FF02F0DCF926
:1012600000F08AFE00F038F84FF4E13003F046F960
:101270004FF4E13003F0B2F901F0BEFD02F06EFD73
:101280000121084602F052FA0121024801F08EFBCA
:1012900010BD00000002300070B504464FF47A75AE
:1012A0000723012221460B48FFF752FF012109487D
:1012B000FFF7AFFF00BF02210648FFF70DFF20B97F
:1012C000281EA5F101018DB2F5D10248FFF700FFFC
:1012D00070BD00000024014000B587B001214FF42B
:1012E000047002F023FA4FF4004002F0F3F91020EA
:1012F000ADF8040000208DF8070001A9174801F09F
:10130000C9FA1748FFF7ACFE002002908DF80C00D8
:101310008DF80D004FF4602004900020059001200E
:101320008DF8180002A90E48FFF7EAFE01210C48CB
:10133000FFF78BFE0A48FFF767FF00BF0848FFF77B
:10134000D4FE0028FAD10648FFF76EFF00BF04481C
:10135000FFF7B4FE0028FAD107B000BD001001402D
:10136000002401401D480088401C1C490880084694
:101370000088B0F5967F01DB0020088017480088C0
:101380000A2807DB15480088282803DA01201449B9
:10139000086022E011480088282807DB0F480088F1
:1013A000462803DA00200E49086016E00B48008842
:1013B000462807DB09480088642803DA0120084929
:1013C00008600AE005480088642806DB03480088B6
:1013D000822802DA00200249086070474A00002093
:1013E000B40122420AA003F053FA012080F31388CB
:1013F00000BF00BF0A48006800F4E06009490843E4
:10140000001D07490860BFF34F8F00BF00BFFEE714
:101410000D0A5265736574204D43550D0A00000096
:101420000CED00E00000FA0500BFFEE7F0B599B052
:1014300000240522FB49FCA0FEF7CCFE30B10522BA
:10144000F849FBA0FEF7C6FE00284DD1F548FEF78F
:10145000B1FE801FC4B2002006E0F24A811D515C3B
:10146000F54A1154411CC8B2A042F6DB0020F249F3
:1014700008550846FEF7E0FE85B2052D1FDA002D5F
:101480001DDDEE480078A84204D0EC490D70E8B2AA
:1014900001F0ACF9EAA1EE4803F00AFAEC48FEF7D5
:1014A00089FE86B23146EA4803F00AF8E848FEF7BA
:1014B00081FE86B23146E64803F0E2F813E0E5A18A
:1014C000E34803F0F5F9E248FEF774FE86B23146D0
:1014D000DF4802F0F5FFDE48FEF76CFE86B23146CB
:1014E000DB4803F0CDF879E20B22CE49DEA0FEF70F
:1014F00071FE28B10B22CB49DEA0FEF76BFEC0B90E
:1015000001F06EF8DEA1D24803F0D2F9D048FEF720
:1015100051FE85B22946CE4802F0D2FFCC48FEF7F4
:1015200049FE85B22946CA4803F0AAF8FFF75AFFD8
:10153000D9E70A22BB49D7A0FEF74CFE28B10A2200
:10154000B849D7A0FEF746FEB0B9D8A1C04803F00D
:10155000AFF9BF48FEF72EFE85B22946BC4802F01F
:10156000AFFFBB48FEF726FE85B22946B84803F018
:1015700087F804F02BF8B6E70822AA49D0A0FEF7B6
:1015800029FE28B10822A749D0A0FEF723FED8B92A
:10159000D1480068FEF7E3FF05462A460B46CFA177
:1015A000AB4803F085F9AA48FEF704FE85B2294648
:1015B000A74802F085FFA648FEF7FCFD85B2294644
:1015C000A34803F05DF8E2E308229649C8A0FEF7BD
:1015D00001FE30B108229349C8A0FEF7FBFD0028A8
:1015E0004DD19048FEF7E6FD0938C4B2002007E06F
:1015F0008C4A00F10901515C8F4A1154411CC8B258
:10160000A042F5DB00208C4908550846FEF714FE81
:1016100085B2B5F5616F1DDCBB480088A84204D0D7
:10162000B9480580284601F0D7F8B8A1884803F0EA
:101630003FF98748FEF7BEFD86B23146844802F086
:101640003FFF8348FEF7B6FD86B23146804803F07F
:1016500017F813E0B2A17E4803F02AF97C48FEF7A0
:10166000A9FD86B231467A4802F02AFF7848FEF793
:10167000A1FD86B23146764803F002F887E30522E1
:101680006849ADA0FEF7A6FD28B105226549ACA0CA
:10169000FEF7A0FDA0BB6348FEF78CFD801FC4B21F
:1016A000002006E05F4A811D515C634A1154411CD1
:1016B000C8B2A042F6DB00205F4908550846FEF795
:1016C000BBFD85B2A0480088A84204D09E48058092
:1016D000284601F0ABF89DA15D4803F0E9F85C48AD
:1016E000FEF768FD86B23146594802F0E9FE5848D7
:1016F000FEF760FD86B23146554802F0C1FF46E371
:10170000FFE70622474995A0FEF764FD28B10622AF
:10171000444994A0FEF75EFDA0BB4248FEF74AFD97
:10172000C01FC4B2002006E03E4AC11D515C424ABF
:101730001154411CC8B2A042F6DB00203E490855B6
:101740000846FEF779FD85B288480088A84204D093
:1017500086480580284601F073F885A13C4803F0CF
:10176000A7F83B48FEF726FD86B23146384802F01E
:10177000A7FE3748FEF71EFD86B23146344802F018
:101780007FFF04E3FFE7092226497EA0FEF722FD42
:1017900030B1092223497EA0FEF71CFD00283FD16D
:1017A0002048FEF707FD0A38C4B2002007E01D4AB2
:1017B00000F10A01515C204A1154411CC8B2A042F8
:1017C000F5DB00201C490855084603F0F7FC0646E7
:1017D000FEF7D8FE054600212846FEF7F9FE20D880
:1017E00029466E480068FEF7E9FE04D06B480560A4
:1017F000284601F045F86AA1154803F059F8144845
:10180000FEF7D8FC86B23146114802F059FE104866
:10181000FEF7D0FC86B231460D4802F031FFDDE024
:10182000DDE0C7E0B00200206D7479706500000053
:101830004D5459504500000014030020780000204A
:10184000536574206D747970653A4F4B210D0A0011
:10185000E20200206661696C2C7479706520657203
:10186000726F72210D0A0000666C6173685F7265A9
:1018700073657400464C4153485F524553455400CC
:1018800066616C73685F72657365743A4F4B210DC6
:101890000A000000726561645F666C617368000035
:1018A000524541445F464C415348000072656164B3
:1018B0005F666C6173683A4F4B210D0A00000000AF
:1018C000726561645F766F6C0000000052454144B0
:1018D0005F564F4C0000000000000020244261745D
:1018E000746572793A252E316656230D0A00000080
:1018F000646561647A6F6E65000000004445414490
:101900005A4F4E45000000007A00002053657420B5
:10191000646561647A6F6E653A4F4B210D0A000071
:101920006661696C2C646561647A6F6E65206572AE
:10193000726F72210D0A00006D6C696E6500000007
:101940004D4C494E450000007C000020536574203A
:101950006D6C696E653A4F4B210D0A006D706861C0
:10196000736500004D504841534500007E00002043
:10197000536574206D70686173653A4F4B210D0A91
:1019800000000000776469616D6574657200000095
:10199000574449414D455445520000008000002005
:1019A00053657420776469616D657465723A4F4B55
:1019B000210D0A00F8A1FE4802F07AFFFC48FEF76C
:1019C000F9FB86B23146FA4802F07AFDF848FEF794
:1019D000F1FB86B23146F64802F052FED7E104220E
:1019E000F449F5A0FEF7F6FB30B10422F149F4A06A
:1019F000FEF7F0FB00287DD1EE48FEF7DBFB401F31
:101A0000C4B2002006E0EB4A411D515CEE4A11547D
:101A1000411CC8B2A042F6DB0020EB49085520214A
:101A200007A8FEF7BCFB0020049005900690E7A2F3
:101A3000E5490FA803F0EAFE002517E00FAA52F8C7
:101A4000251005EB850207AB03EB4200FEF7B9FB5F
:101A500005EB850107AA02EB410003F0AFFB064648
:101A6000FEF790FD04A941F825006D1C032DE5DB70
:101A700000210498FEF7ACFD41D800210598FEF73F
:101A8000A7FD3CD800210698FEF7A2FD37D8D04923
:101A900004980968FEF792FD0BD1CE4905980968B4
:101AA000FEF78CFD05D1CC4906980968FEF786FD46
:101AB0000ED0C74904980860C64905980860C64911
:101AC0000698086004A807C800F0C4FEFFF78AFC67
:101AD000C2A1B74802F0ECFEB548FEF76BFB85B239
:101AE0002946B34802F0ECFCB148FEF763FB85B22F
:101AF000294600E018E0AE4802F0C2FD13E0BBA1A9
:101B0000AB4802F0D5FEAA48FEF754FB85B2294641
:101B1000A74802F0D5FCA648FEF74CFB85B2294643
:101B2000A34802F0ADFD32E10622A249B4A0FEF7BF
:101B300051FB28B106229F49B1A0FEF74BFB70BBB9
:101B40009C48FEF737FBC01FC4B2002006E0994A4C
:101B5000C11D515C9C4A1154411CC8B2A042F6DB25
:101B600000209949085508460078312806D1A64832
:101B7000007840F00400A449087005E0A24800780D
:101B800020F00400A04908708F488078312807D1E0
:101B90009D48007840F002009B49087006E017E07D
:101BA0009948007820F0020097490870864800792B
:101BB000312806D19448007840F00100924908701D
:101BC000E5E09148007820F001008F490870DEE0E0
:101BD000032278498DA0FEF7FDFA28B1032275494A
:101BE0008BA0FEF7F7FAE8BB7248FEF7E3FA001F96
:101BF000C4B2002006E06F4A011D515C724A1154C4
:101C0000411CC8B2A042F6DB00206F4908552821CC
:101C100005A8FEF7C4FA0020039004906BA26A495D
:101C20000FA803F0F3FD002521E00FAA52F82510BC
:101C300005EB850205AB03EB4200FEF7C2FA05EBAC
:101C4000850105AA02EB4100FEF7F6FA00B203A9EE
:101C500021F8150031F915004FF47A72514203F062
:101C60009DFB00E010E003A921F815006D1C042D78
:101C7000DBDBBDF91230BDF91020BDF90E10BDF946
:101C80000C0001F045FA82E003224A4961A0FEF708
:101C9000A1FA28B1032247495FA0FEF79BFAE8BBEF
:101CA0004448FEF787FA001FC4B2002006E0414A0C
:101CB000011D515C444A1154411CC8B2A042F6DBDC
:101CC000002041490855282105A8FEF768FA0020A0
:101CD00001900290039004903CA23B490FA803F0AE
:101CE00095FD002521E00FAA52F8251005EB85028D
:101CF00005AB03EB4200FEF764FA05EB850105AA8C
:101D000002EB4100FEF798FA01A941F8250031F8ED
:101D1000251008B24FF46162514200E023E003F065
:101D20003DFB01A941F825006D1C042DDBDB03F010
:101D30005FFD3A48007803280AD1049D2BB2039D29
:101D40002AB2029D29B2019D28B201F0B1F909E041
:101D5000049D2BB2039D2AB2029D29B2019D28B297
:101D600001F076F913E02EA1114802F0A1FD104810
:101D7000FEF720FA85B229460D4802F0A1FB0C4877
:101D8000FEF718FA85B22946094802F079FC32219B
:101D90000848FEF704FA51E06661696C2C776469C3
:101DA000616D65746572206572726F72210D0A0033
:101DB000E2020020B00200206D70696400000000A3
:101DC0004D50494400000000140300202C20000066
:101DD00084000020880000208C00002053657420BF
:101DE0004D5049443A4F4B210D0A00006661696C21
:101DF0002C4D504944206572726F72210D0A00000B
:101E000075706C6F616400000400002073706400E2
:101E10005350440070776D0050574D0078000020FB
:101E20006661696C2C436F6D6D616E64206E6F74BA
:101E300020666F756E64210D0A0000003221024891
:101E4000FEF7ADF919B0F0BD1403002010B504463B
:101E5000242C0AD11C48007838B901201A4908708E
:101E600032211A48FEF79BF92DE017480078012827
:101E700029D1232C0DD10020134908701449087072
:101E8000322212491348FEF771F9012012490870F5
:101E900019E00F48007832280CDD00200A4908704C
:101EA0000B49087002200C49087032210748FEF7E0
:101EB00076F908E005480649097844540448007852
:101EC000401C0349087010BD660000207E020020FF
:101ED00065000020B00200206400002010B5044618
:101EE000207808282AD2DFE800F02904080F161D00
:101EF0002125607801F058FD21E0A178627841EA5F
:101F0000022001F027FD1AE0A178627841EA022060
:101F100001F02EFD13E0A178627841EA022001F081
:101F200035FD0CE0204601F051FD08E0204603F0AD
:101F3000A9F904E0204603F065F900E000BF00BF06
:101F400032212046FEF72BF910BD7047064909687B
:101F500001600649096841600549096881600549D1
:101F60000968C16070470000380000203C00002074
:101F7000400000204400002010B500F03BF900F0C4
:101F800075F800F003F800F0D3F810BD00B587B085
:101F90000121084601F0CAFB0121314800F006FD8D
:101FA0000121084601F0A2FB0121082001F0BEFB3F
:101FB0000820ADF8000004208DF803006946294888
:101FC00000F068FC0121042001F0B0FB4FF4004058
:101FD000ADF8000004208DF803006946224800F0A7
:101FE00059FC04A802F050FA0020ADF810004FF69A
:101FF000FF70ADF814000020ADF81600ADF8120027
:1020000004A94FF0804002F0EDF900231A460321A5
:102010004FF0804001F0E8FF01A802F06DF80A20BF
:10202000ADF80C0001A9400702F010F80121880763
:1020300001F0C4FE01221146900702F066F800216B
:102040004FF0804002F0A0F947F6FF704FF080415A
:1020500088840121880701F0B7FE07B000BD0000A9
:1020600000011800000C01400008014000B587B0D5
:102070000121022001F03AFB0121042001F056FB6E
:102080004020ADF8000004208DF803006946264882
:1020900000F000FC0121042001F048FB8020ADF895
:1020A000000004208DF8030069461F4800F0F2FB91
:1020B00004A802F0E9F90020ADF810004FF6FF7017
:1020C000ADF814000020ADF81600ADF8120004A918
:1020D000164802F087F900231A460321134801F03D
:1020E00083FF01A802F008F80A20ADF80C0001A94E
:1020F0000E4801F0ABFF01210C4801F05FFE012208
:1021000011460A4802F001F80021084802F03CF9A3
:1021100047F6FF700549243108800121034801F08A
:1021200053FE07B000BD000000080140000400405D
:1021300000B587B00121042001F0D8FA0121082060
:1021400001F0F4FA4020ADF8000004208DF80300FF
:102150006946264800F09EFB0121082001F0E6FABE
:102160008020ADF8000004208DF8030069461F4868
:1021700000F090FB04A802F087F90020ADF81000F1
:102180004FF6FF70ADF814000020ADF81600ADF862
:10219000120004A9164802F025F900231A4603216B
:1021A000134801F021FF01A801F0A6FF0A20ADF8B5
:1021B0000C0001A90E4801F049FF01210C4801F073
:1021C000FDFD012211460A4801F09FFF0021084849
:1021D00002F0DAF847F6FF70054924310880012142
:1021E000034801F0F1FD07B000BD0000000C014004
:1021F0000008004000B587B00121082001F076FA00
:102200000121042001F092FA0120ADF80000042021
:102210008DF803006946264800F03CFB01210420AC
:1022200001F084FA0220ADF8000004208DF80300CC
:1022300069461F4800F02EFB04A802F025F9002093
:10224000ADF810004FF6FF70ADF814000020ADF8A7
:102250001600ADF8120004A9164802F0C3F80023D6
:102260001A460321134801F0BFFE01A801F044FF04
:102270000A20ADF80C0001A90E4801F0E7FE01218B
:102280000C4801F09BFD012211460A4801F03DFF78
:102290000021084802F078F847F6FF70054924311C
:1022A00008800121034801F08FFD07B000BD000048
:1022B00000080140000C00400146002031B1012916
:1022C0000ED0022916D003292AD11FE0164A1288FF
:1022D00047F6FF739A1A10B21A46134B1A8020E081
:1022E000124A128847F6FF739A1A10B21A460F4B19
:1022F0001A8016E04FF08042928C47F6FF739A1ACC
:1023000010B21A464FF080439A840AE0084A1288B5
:1023100047F6FF739A1A10B21A46054B1A8000E06E
:1023200000BF00BF70470000240C004024040040A0
:102330002408004010B535480078022820D100203C
:10234000FFF7BAFF324909680844314908600120A3
:10235000FFF7B2FF2F49096808442E4908600220A0
:10236000FFF7AAFF2C49096808442B49086003209D
:10237000FFF7A2FF29490968081A2849086044E0C4
:1023800022480078032820D10020FFF795FF20493C
:10239000096808441E4908600120FFF78DFF1D49A8
:1023A000096808441B4908600220FFF785FF1A49A5
:1023B00009680844184908600320FFF77DFF1749A2
:1023C0000968081A154908601FE00020FFF774FF2C
:1023D0000F490968081A0E4908600120FFF76CFFD1
:1023E0000C490968081A0B4908600220FFF764FFCE
:1023F00009490968081A084908600320FFF75CFFCB
:102400000649096808440549086010BD78000020A5
:10241000380000203C000020400000204400002044
:10242000F8B505460C4602226946284600F0A6F893
:10243000009E2660F8BD38B505460C460094022281
:102440006946284600F034F938BD000070B50546ED
:10245000002445F6FF7000F015F90446C4B90D4894
:10246000006940F002000B490861084645610069B7
:1024700040F04000086145F6FF7000F003F90446A3
:10248000012C05D00348006920F0020001490861D1
:10249000204670BD002002400948C16801F00100DB
:1024A00008B10120704701F0040008B10220F9E7EB
:1024B00001F0100008B10320F4E70020F2E700006B
:1024C0000020024010B500F06FF84AF6552188420E
:1024D00001D000F077F800F00BF810BD0348006958
:1024E00040F0800001490861704700000020024070
:1024F00008B50020009001226946174800F03EF818
:10250000BDF8000015490870012215491248001D48
:1025100000F034F8012213490F48103000F02EF873
:10252000012211490C48203000F028F80F490A48D0
:102530004030FFF775FF0E4907487030FFF770FF16
:102540000C4905487630FFF76BFF0B490248823093
:10255000FFF766FF08BD0000104002087800002069
:102560007A0000207C0000207E00002080000020F7
:1025700084000020880000208C0000202DE9F0411C
:1025800007460D461646002407E0384600F009F8D5
:1025900025F81400BF1C601C84B2B442F5DBBDE812
:1025A000F08101460888704708B54FF6FF7000902B
:1025B000012269460248FFF7E1FFBDF8000008BDAF
:1025C0000240020808B500F00BF84AF655200090CA
:1025D00001226946014800F06BF808BD024002087C
:1025E0002DE9FF41012003904FF4C86002900B20B9
:1025F00001901E200090194C194D1A4E4FF07C5737
:10260000012203A9184800F053F8012202A9164834
:10261000001D00F04DF8012201A91348103000F010
:1026200047F8012269461048203000F041F8214661
:102630000D484030FFF7FFFE29460B487030FFF78A
:10264000FAFE314608487630FFF7F5FE394606486F
:102650008230FFF7F0FEBDE8FF81000000008642F7
:10266000CDCC4C3F8FC2753D104002080248034953
:1026700048600348486070472301674500200240D6
:10268000AB89EFCD70B5044600BFFFF705FF012809
:1026900000D009E0002501E0691CCDB20A2DFBDB6A
:1026A000611E8CB2002CF0D100BF04B9FF2070BDB8
:1026B0002DE9F05F80468A461746B8F1006F02D3D5
:1026C0003348804501D3BDE8F09FFFF7CFFFA8F165
:1026D000006B4FEADB25CBF34909C9F58064A742BB
:1026E00000DC3C464EE04FF0006101EBC5204A148F
:1026F0002849FFF743FF00260BE009EB06002549B8
:1027000031F810004FF6FF71884200D003E0701CD2
:1027100086B2A642F1DB00BFA6421BDA4FF0006191
:1027200001EBC520FFF792FE002608E03AF81600FC
:1027300006EB0901174A22F81100701C86B2A64266
:10274000F4DB4FF0006101EBC5204A14114900F0A1
:1027500059F804E022465146404600F053F8A7429B
:1027600000D110E06D1C4FF000090AEB440A08EBA1
:102770004408381B87B2B7F5806F02DD4FF48064E0
:1027800000E03C46AFE700BFFFF7A8FE00BF9AE7B6
:10279000000004087803002070B505460E46FF20AF
:1027A000FFF770FF044694B90A48006940F0010041
:1027B000084908612E80FF20FFF764FF0446012CC2
:1027C00005D00448006920F0010002490861204654
:1027D00070BD00000020024001B501226946024898
:1027E000FFF766FF08BD00001440020838B5044634
:1027F0000094012269460248FFF75AFF38BD0000E5
:10280000104002082DE9F04105460E461746002407
:1028100007E036F814102846FFF7BEFFAD1C601C19
:1028200084B2BC42F5DBBDE8F081000001B50122B5
:1028300069460248FFF73CFF08BD0000204002083F
:1028400001B5012269460248FFF732FF08BD0000CA
:102850003040020870B504460E461546214607482A
:10286000FFF7E9FD31460548801DFFF7E4FD2946E5
:1028700002481230FFF7DFFD70BD00008040020803
:1028800010B5044621460248FFF7D5FD10BD0000F3
:10289000504002082DE9F0410246002500260020A4
:1028A00000230024002791F803C00CF00F0591F8D5
:1028B00003C00CF0100CBCF1000F03D091F802C063
:1028C0004CEA050591F800C0BCF1000F31D0146846
:1028D00000202BE04FF0010C0CFA00F3B1F800C01F
:1028E0000CEA03069E4220D183004FF00F0C0CFA35
:1028F00003F7BC4305FA03FC4CEA040491F803C057
:10290000BCF1280F06D14FF0010C0CFA00FCC2F804
:1029100014C00AE091F803C0BCF1480F05D14FF094
:10292000010C0CFA00FCC2F810C0401C0828D1D3DE
:102930001460B1F800C0BCF1FF0F34DD5468002012
:102940002EE000F1080C4FF0010808FA0CF3B1F882
:1029500000C00CEA03069E4221D183004FF00F0C09
:102960000CFA03F7BC4305FA03FC4CEA040491F8A3
:1029700003C0BCF1280F05D100F1080C08FA0CF8CF
:10298000C2F8148091F803C0BCF1480F07D100F1E0
:10299000080C4FF0010808FA0CF8C2F81080401C2F
:1029A0000828CED35460BDE8F0810000F0B50A4697
:1029B000002300240021002500F00046B6F1004F5E
:1029C00002D11D4EF16901E01B4E7168C0F3034551
:1029D00083B200F44016B6F5401F08D121F07061B3
:1029E000154E766826F07066134F7E6012E000F494
:1029F0008016B6F5801F06D1032606FA05F4A1431A
:102A000041F0706106E0460D360103FA06F6B14367
:102A100041F0706122B1460D360103FA06F63143EA
:102A200000F00046B6F1004F02D1034EF16101E023
:102A3000014E7160F0BD00000000014010B500F0D3
:102A40000BF8044603492046FDF75BFC044620468C
:102A500010BD0000C3F5804070B50E20FEF71CFCD1
:102A600005462846FDF738FD06460349FDF749FCB3
:102A70000446204670BD00003333533A01480078C5
:102A8000704700006400002000BFFEE710B50C494D
:102A90000C4800F00BF930B109490A4800F066F81B
:102AA0000020094908704FF00121064800F0FEF8A7
:102AB00020B14FF00121034800F058F810BD00008C
:102AC00000040001005800405400002010B52248C6
:102AD00000F0FFF80446204800F0FBF81F4A811A76
:102AE000904231D009DC102823D0B0F1021F0AD067
:102AF000A0F50030403858BB0FE01948084420B119
:102B0000042825D100E024E000BF1649087802F02F
:102B1000CDFC0020144908701BE00F4800F066F956
:102B200011490A780978491C0F4B19700D498854CE
:102B30000FE00C48FFF7D2F90121074800F01CF81C
:102B400000200949087004E0034800F04FF900BF75
:102B500000BF00BF10BD000000580040440102004B
:102B6000C400FCFF8001002055000020002221F05D
:102B70007F42D3438382704721B1028842F0010231
:102B8000028004E002884FF6FE731A40028070470C
:102B900000B585B00121880500F0A8FD214800F0AE
:102BA00045F80020ADF808004BF6FF70ADF80A00BC
:102BB0004C20ADF80C004FF48060ADF80E00000121
:102BC000ADF810001848019001A9164800F098F8D7
:102BD00021208DF8000000208DF801008DF8020002
:102BE00001208DF80300684600F028FC22208DF8B3
:102BF000000001208DF8010000208DF80200012066
:102C00008DF80300684600F019FC01224FF4E061E2
:102C1000044800F06BF801210248FFF7ADFF05B052
:102C200000BD000000580040A086010010B5044619
:102C30000B48844209D10121480500F067FD0021BD
:102C40004FF4001000F062FD08E00121880500F05B
:102C50005DFD00214FF4800000F058FD10BD000024
:102C60000054004008B50121082000F05FFD4FF43A
:102C70008060ADF8000003208DF802001C208DF864
:102C8000030069460848FFF705FE4FF40060ADF801
:102C9000000003208DF802001C208DF80300694617
:102CA0000148FFF7F7FD08BD000C014030B50246B2
:102CB00000200023948801F0E06504EA154321F028
:102CC0007F41948A0C4014B10BB1012000E0002038
:102CD00030BD10B501460020002300228B8A0A8BEC
:102CE000120443EA020424F07F4010BD1AB1838825
:102CF0000B43838002E083888B438380704700000E
:102D00002DE9F04385B004460D460026B146042760
:102D1000DFF8CC80A6884FF6C0700640684600F009
:102D200025FDDDF808802F48B8FBF0F01FFA80F988
:102D300046EA0906A68020884FF6FE7108402080EA
:102D400000262949286888420CD828684000B8FB2A
:102D5000F0F087B2042F00DA04273E4309F10100A6
:102D6000208427E0E8884BF6FF71884206D1286866
:102D700000EB4000B8FBF0F087B209E0286800EBF8
:102D8000C00101EB0010B8FBF0F087B247F48047B8
:102D9000C7F30B0008B947F0010747F400400643AA
:102DA0004FF4967009FB00F04FF47A7190FBF1F04C
:102DB000401C2084A683208840F0010020802688C3
:102DC0004FF6F5300640A8886989084306432680F7
:102DD000A88929890843208105B0BDE8F083000057
:102DE00000127A0040420F00A08601000146088AC6
:102DF000C0B270470182704710B5FFF733FFFFF78D
:102E0000C7FE10BD08B50121102000F08FFC4FF463
:102E10000050ADF8000002208DF8020010208DF85F
:102E2000030069460148FFF735FD08BD0010014069
:102E300010B59AB06022164901A8FDF797F9002451
:102E40001FE004EB440101AA02EB81018868012123
:102E500000F06CFC04EB440001A901EB80008088C9
:102E6000ADF8640003208DF8660018208DF8670027
:102E700004EB440101AA52F8210019A9FFF70AFD49
:102E8000641C082CDDDB0F20024908701AB010BD4D
:102E9000C05900084800002000BFFEE710B50549F2
:102EA00005480068FDF72DFA0449086008460068E7
:102EB00010BD0000DA0F49408000002060000020B3
:102EC00010B5002405490988054A12885143880035
:102ED000FDF7F9FA0446204610BD00007E000020F0
:102EE0007C00002010B50D48FFF730F8002011E0FD
:102EF0000A4951F820100A4A52F82020891A094A32
:102F000042F82010054951F82010054A42F82010D7
:102F1000411CC8B20428EBDB10BD000004020020F5
:102F2000E4010020140200202DE9FF47814600241F
:102F300000200090019002900390FFF7AFFF06463B
:102F4000FFF7BEFF0746FFF7CDFF00BF17E01649AA
:102F500051F82410642201FB02F0FDF7B4FA804618
:102F60003146FDF7CEF905463946FDF7FCF94DF837
:102F700024005DF824000D4941F82400641C042C51
:102F8000E5DB0B48007860B1002405E05DF8240023
:102F9000084941F82400641C042CF7DB054800F0C4
:102FA0008FFABDE8FF87000014020020F401002022
:102FB00058000020240200202DE9F0412048FFF7AE
:102FC000B3FF20480078002838D01F480078032835
:102FD0001AD11E49C869FDF795FA04B21B498869E0
:102FE000FDF790FA05B219494869FDF78BFA06B268
:102FF00016490869FDF786FA07B223462A46314684
:10300000384600F055F819E01049C869FDF77AFA1A
:1030100004B20E498869FDF775FA05B20B49486993
:10302000FDF770FA06B209490869FDF76BFA07B2B5
:1030300023462A463146384600F00AF8BDE8F081BA
:103040005A000020580000207800002024020020B0
:103050002DE9F04104460F4615461E4614F5616FF2
:1030600006DBB4F5616F03DC2146002000F014F9A3
:1030700017F5616F06DBB7F5616F03DC3946012098
:1030800000F00AF915F5616F06DBB5F5616F03DC39
:103090002946022000F000F916F5616F06DBB6F54F
:1030A000616F03DC3146032000F0F6F8BDE8F081E3
:1030B0002DE9F04104460F4615461E4614F5616F92
:1030C00006DBB4F5616F03DC2146002000F04CF90B
:1030D00017F5616F06DBB7F5616F03DC3946012038
:1030E00000F042F915F5616F06DBB5F5616F03DCA1
:1030F0002946022000F038F916F5616F06DBB6F5B7
:10310000616F03DC3146032000F02EF9BDE8F08149
:103110002DE9FC5F05460E4691469A46012012496C
:103120000870124805844684A0F82490A0F826A0D0
:10313000002415E00D49203131F91400FDF7D1F9D3
:1031400000220B4BCDE90001FDF74BF90746FDF7D7
:1031500019FA83465946204600F0A0FA601CC4B212
:10316000042CE7DBBDE8FC9F58000020240200206F
:103170000000F03F0146002904DD074800880844AC
:1031800000B27047002904DA03480088081A00B228
:10319000F7E70020F5E700007A00002030B587B09F
:1031A00005460C4601214FF4205000F0BFFA0121E2
:1031B000084600F0BBFA01213448FFF7F7FB34481A
:1031C00000F01EFE334800F01BFEADF80040681E04
:1031D00080B2ADF804000020ADF80600ADF80200A2
:1031E00069462B4801F0FEF869462A4801F0FAF8D2
:1031F00003A801F0BFF86020ADF80C000120ADF885
:103200000E000020ADF81400ADF8120003A920480C
:1032100000F084FF03A91E4800F0CCFF03A91C485E
:1032200001F01AF803A91A4801F066F803A9194831
:1032300000F074FF03A9174801F05EF86020ADF8B4
:103240000C000020ADF80E000420ADF810000020A6
:10325000ADF81400ADF8120003A90E4800F0AAFF63
:1032600003A90C4800F0F8FF0121094800F0B8FD5F
:103270000121084800F0B4FD0121054800F0A4FD3B
:103280000121044800F0A0FD07B030BD4000160049
:1032900000340140002C014070B505460E46304612
:1032A000FFF768FF0446B4F5616F01DB4FF461641A
:1032B00014F5616F00DC294C35B1012D15D0022DBC
:1032C00024D0032D46D134E0604204B2002C05DB4B
:1032D000002023490880091D0C8005E06042204938
:1032E00008800020091D088035E0604204B2002CEF
:1032F00005DB00201B490880091D0C8005E06042A9
:10330000184908800020091D088024E0002C07DBF4
:10331000134908310C8000201149091F088007E07B
:1033200000200F490831088060420D49091F0880BC
:1033300011E0002C06DB00200A4908310880091D35
:103340000C8006E060420749083108800020091D12
:10335000088000E000BF00BF70BD0000F0F1FFFF7B
:10336000382C01403434014070B505460E463046D5
:10337000FFF700FF0446B4F5616F01DB4FF46164B1
:1033800014F5616F00DC294C35B1012D15D0022DEB
:1033900024D0032D46D134E0604204B2002C05DB7A
:1033A00023490C800020091D088005E000202049E9
:1033B00008806042091D088035E0604204B2002C9C
:1033C00005DB1C490C800020091D088005E0002059
:1033D000184908806042091D088024E0002C07DBA2
:1033E00000201349083108801149091F0C8007E0AB
:1033F00060420F490831088000200D49091F0880EC
:1034000011E0002C06DB0B4908310C800020091D5F
:10341000088006E000200749083108806042091D45
:10342000088000E000BF00BF70BD0000F0F1FFFFAA
:10343000382C0140343401407047000070B5002141
:1034400000230F22C47804B3154C246804F4E0640C
:10345000C4F5E064210AC1F10403CA40447804FAC7
:1034600003F184781440214309010E4C0678A155DC
:10347000047804F01F050124AC4005786D11AD00FF
:1034800005F1E025C5F8004109E0047804F01F05C6
:103490000124AC40044D0678761145F8264070BDF5
:1034A0000CED00E000E400E080E100E002490143AF
:1034B000024A1160704700000000FA050CED00E0C0
:1034C00070B5054600240DE055F8241004EB840285
:1034D000064B03EBC20000F051F805F1100141F872
:1034E0002400641C042CEFDB70BD0000E000002011
:1034F00010B5042800DD10BD042820D100211BE0F8
:10350000002201EB81031C4C04EBC3039A6001EB26
:10351000810304EBC3039A6101EB810304EBC30352
:10352000DA6101EB810304EBC3031A6201EB81034F
:1035300004EBC3035A62491C0429E1DB1AE00021B1
:1035400000EB80020C4B03EBC202916000EB8002A7
:1035500003EBC202916100EB800203EBC202D16176
:1035600000EB800203EBC202116200EB800203EB6E
:10357000C202516200BFBEE7E00000202DE9F05F0B
:1035800004460D4629462068FCF7B5FEA0614FF0C1
:103590008040216AFCF7B5FE8346A169FCF7AEFEC8
:1035A0008246E169FCF755FE81466169FCF7A9FE98
:1035B0000746A1692069FCF7A4FE8246216AA0693A
:1035C000FCF799FE8346E168FCF79BFE8146514675
:1035D000FCF73FFE80463946FCF73BFE0646A168F5
:1035E000FCF737FEA060206AE061A069206208490C
:1035F000A068FCF7EDFF01D20548A0600549A0686E
:10360000FCF7DCFF01D20348A060A068BDE8F09F92
:103610000000FA440000FAC4002034E0002100EB6E
:1036200080021A4B43F8321000EB800203EBC20217
:10363000916000EB800203EBC202916100EB80021B
:1036400003EBC202D16100EB800203EBC202116204
:1036500000EB800203EBC20251620D49096800EBE6
:10366000800203EBC202D1600A49096800EB8002C4
:1036700003EBC20211610849096800EB800203EB09
:10368000C2025161401C0428C8DB7047E0000020E2
:1036900084000020880000208C00002010B5042841
:1036A00000DD10BD04280AD1002205E002EB8203F0
:1036B000064C44F83310521C042AF7DB04E000EBFC
:1036C0008002024B43F8321000BFEAE7E00000201E
:1036D0007047000001460020034A506820F4404033
:1036E00008435060704700000010024029B1064AAC
:1036F000D2690243044BDA6104E0034AD26982438F
:10370000014BDA61704700000010024029B1064AFF
:1037100012690243044B1A6104E0034A12698243AE
:10372000014B1A61704700000010024029B1064A9F
:1037300092690243044B9A6104E0034A926982430E
:10374000014B9A61704700000010024029B1064AFF
:10375000D2680243044BDA6004E0034AD268824331
:10376000014BDA60704700000010024030B50021C4
:103770000022002400232D4D6D6805F00C0121B1BD
:10378000042905D0082923D105E0294D056022E050
:10379000274D05601FE0254D6D6805F47012234D1F
:1037A0006D6805F48034022505EB92421CB9214D69
:1037B000554305600BE01D4D6D6805F400351DB1E6
:1037C0001C4D5543056002E0194D5543056002E06C
:1037D000174D056000BF00BF144D6D6805F0F00186
:1037E0000909154D6B5C0568DD4045600F4D6D683E
:1037F00005F4E061090A104D6B5C4568DD408560A9
:103800000A4D6D6805F46051C90A0B4D6B5C456843
:10381000DD40C560054D6D6805F44041890B074DDD
:103820006B5CC568B5FBF3F5056130BD0010024067
:1038300000127A0000093D00200000203000002026
:1038400001490870704700006400002070470000C4
:1038500010B50446210A0448FFF7CCFAE1B2024849
:10386000FFF7C8FA10BD00000058004010B500F086
:1038700001F810BD0CB5002001900090334800689D
:1038800040F480303149086000BF3048006800F4DF
:10389000003000900198401C0190009818B90198E0
:1038A000B0F5A06FF1D12948006800F4003010B1E4
:1038B0000120009001E0002000900098012843D1F1
:1038C0002348006840F0100021490860084600685D
:1038D00020F0030008600846006840F0020008601D
:1038E0001A484068194948600846406848600846D8
:1038F000406840F4806048600846406820F47C10CE
:1039000048600846406840F4E8104860084600688F
:1039100040F08070086000BF0C48006800F0007044
:103920000028F9D00948406820F0030007494860A2
:103930000846406840F00200486000BF0348406805
:1039400000F00C000828F9D10CBD00000010024066
:103950000020024010B5044604480088844204D088
:103960002046FEF739FF0148048010BD7A00002090
:1039700010B5044604480088844204D02046FEF76F
:1039800055FF0148048010BD7C00002010B504469E
:1039900004480088844204D02046FEF751FF0148C5
:1039A000048010BD7E00002010B504460648007853
:1039B000844208D0052C06DA002C04DD2046FEF7F0
:1039C00015FF0148047010BD7800002038B504468A
:1039D00000200090002500BF05E0411C615C0DF84F
:1039E0000010411CC8B20428F7DB684601F0FBFB5D
:1039F0000546064801682846FCF7E0FD04D0284645
:103A0000FEF73EFF0148056038BD00008000002041
:103A1000042808D14FF0E021096941F004014FF07A
:103A2000E022116107E04FF0E021096921F0040173
:103A30004FF0E022116170477047000010B5134845
:103A4000006840F0010011490860084640681049CC
:103A500008400E494860084600680E4908400B4976
:103A600008600846006820F4802008600846406826
:103A700020F4FE0048604FF41F008860FFF7F6FE58
:103A80004FF000600449086010BD000000100240C3
:103A90000000FFF8FFFFF6FE08ED00E0F0B50C4671
:103AA000154600220021068C4FF6FE773E40068424
:103AB000028B018C4FF60C7632407E1C06EA031610
:103AC0002E433243104EB0420ED0104EB0420BD0B7
:103AD000B0F1804F08D00E4EB04205D00D4EB0422E
:103AE00002D00D4EB04206D14FF6FD76314044F083
:103AF0000106314305E04FF6F576314044F001060A
:103B0000314302830184F0BD002C014000340140A8
:103B10000004004000080040000C0040F0B50C46D6
:103B20001546002200210026078C4FF6EF7C07EA9D
:103B30000C070784028B018C4FF6FF7707EA041607
:103B400040F6FF473A404FF6FF7707EA03373A431C
:103B50004FF6FF7707EA05273A43114FB8420ED0D8
:103B6000104FB8420BD0B0F1804F08D00E4FB84282
:103B700005D00E4FB84202D00D4FB84206D14FF6D5
:103B8000DF77394046F01007394305E04FF65F779D
:103B9000394044F01007394302830184F0BD00002E
:103BA000002C0140003401400004004000080040A7
:103BB000000C0040F0B50C461546002200210026FE
:103BC000078C4FF6FF6C07EA0C070784828B018C89
:103BD0004FF6FF7707EA04264FF60C773A404FF688
:103BE000FF7707EA03172F433A43114FB8420ED02D
:103BF000104FB8420BD0B0F1804F08D00E4FB842F2
:103C000005D00E4FB84202D00D4FB84206D14FF644
:103C1000FF57394046F48077394305E04FF2FF57AC
:103C2000394044F48077394382830184F0BD000039
:103C3000002C014000340140000400400008004016
:103C4000000C0040F0B50C4615460022002100266D
:103C5000078C4EF6FF7C07EA0C070784828B018CE9
:103C60004FF6FF7707EA043640F6FF473A404FF633
:103C7000FF7707EA05273A434FF6FF7707EA03374E
:103C80003A43114FB8420ED0104FB8420BD0B0F1AA
:103C9000804F08D00E4FB84205D00E4FB84202D028
:103CA0000D4FB84206D14DF6FF77394046F48057A4
:103CB000394305E047F6FF57394044F4805739430C
:103CC00082830184F0BD0000002C014000340140DB
:103CD0000004004000080040000C004010B5012125
:103CE000184800F0A2F960B30121164800F069F805
:103CF00015480078042803D0FEF71CFBFFF75CF999
:103D00001248008838B9142010490880FEF796FE42
:103D10000F49086004E00D480088401E0B490880E8
:103D20000C48008830B905200A49088001200A495A
:103D3000087004E007480088401E06490880FDF727
:103D400011FB10BD00100040780000204C00002046
:103D5000000000204E000020500000201FB501216F
:103D60001020FFF7C3FC41F61F40ADF804006320AC
:103D7000ADF8080001A9104800F034FB01210E48FD
:103D800000F01CF8012211460B4800F0BEF9362065
:103D90008DF8000002208DF8010003208DF802004C
:103DA00001208DF803006846FFF748FB0121024817
:103DB00000F00AF81FBD000000100040CA43028254
:103DC0007047CA430282704721B1028842F0010263
:103DD000028004E002884FF6FE731A4002807047AA
:103DE00031B1B0F8442042F40042A0F8442005E08C
:103DF000B0F84420C2F30E02A0F84420704700003F
:103E000010B504466848844208D10121C014FFF768
:103E10009DFC0021E014FFF799FCC4E0B4F1804F51
:103E200008D101210846FFF771FC00210120FFF7AE
:103E30006DFCB8E05D48844208D101210220FFF703
:103E400065FC00210220FFF761FCACE05848844289
:103E500008D101210420FFF759FC00210420FFF7BD
:103E600055FCA0E05348844208D101210820FFF707
:103E70004DFC00210820FFF749FC94E04E488442A5
:103E800008D101211020FFF741FC00211020FFF78D
:103E90003DFC88E04948844208D101212020FFF7F9
:103EA00035FC00212020FFF731FC7CE044488442AF
:103EB00008D101214014FFF749FC00216014FFF7ED
:103EC00045FC70E03F48844209D10121C804FFF756
:103ED0003DFC00214FF40020FFF738FC63E03A4836
:103EE000844209D101210805FFF730FC00214FF47D
:103EF0008010FFF72BFC56E03448844209D10121A1
:103F00004805FFF723FC00214FF40010FFF71EFCCB
:103F100049E02F48844208D101214020FFF7F6FBF9
:103F200000214020FFF7F2FB3DE02A48844208D1FF
:103F300001218020FFF7EAFB00218020FFF7E6FB4C
:103F400031E02548844208D101218015FFF7DEFBCE
:103F50000021A015FFF7DAFB25E02048844209D1B3
:103F600001210804FFF7F2FB00214FF48030FFF736
:103F7000EDFB18E01A48844209D101214804FFF7FB
:103F8000E5FB00214FF40030FFF7E0FB0BE01548A4
:103F9000844208D101218804FFF7D8FB00214FF4A7
:103FA0008020FFF7D3FB10BD002C0140000400402F
:103FB00000080040000C00400010004000140040C9
:103FC00000340140004C01400050014000540140C9
:103FD00000180040001C004000200040004001404C
:103FE0000044014000480140F0B50C4615461E460D
:103FF0000021002200230189028B038C4FF6F87701
:10400000394021434FF6FC473A4040F201173A430A
:104010004FF6DD773B404FF6FF7707EA06172F4351
:104020003B43018102830384F0BD30B5024600208A
:1040300000230024158A05EA0103958905EA010495
:1040400013B10CB1012000E0002030BD70B5054671
:104050000C46244885420ED0234885420BD0B5F14A
:10406000804F08D02148854205D02148854202D0A2
:104070002048854200D100E000BF208850B9238944
:10408000A28861882846FFF709FDE188284600F0EC
:104090007DF925E0208804280AD12389A288618837
:1040A0002846FFF73BFDE188284600F078F917E045
:1040B000208808280AD12389A28861882846FFF72A
:1040C00079FDE188284600F077F909E02389A28884
:1040D00061882846FFF7B6FDE188284600F075F9AB
:1040E00070BD0000002C014000340140000400407D
:1040F00000080040000C00400021018041800121A7
:1041000081800021C180018170471AB183890B43EE
:10411000838102E083898B438381704770B50024DB
:1041200000220023058C4FF6FE7635400584028C74
:104130008388048B4FF68F752C40B51E2C400D885C
:104140002C43751E2A400D892A434D882A43144D5D
:10415000A8420BD0134DA84208D0134DA84205D059
:10416000124DA84202D0124DA84213D14FF6F77556
:104170002A404D892A434FF6FB752A408D882A43F1
:104180004FF6FF652B404FF6FF552B408D892B4393
:10419000CD892B4383800483CD888586028470BDBE
:1041A000002C014000340140004001400044014027
:1041B0000048014070B5002400220023058C4FF612
:1041C000EF7635400584028C8388048B48F6FF75B2
:1041D0002C404FF6FF452C400D884FF6FF7606EA3F
:1041E00005252C434FF6DF752A400D8906EA051593
:1041F0002A434D8806EA05152A43154DA84202D0E8
:10420000144DA8421DD14FF67F752A404D894FF6B7
:10421000FF7606EA05152A434FF6BF752A408D88BA
:1042200006EA05152A434FF6FF352B404FF2FF757E
:104230002B408D8906EA85052B43CD8906EA850545
:104240002B4383800483CD880587028470BD0000E2
:10425000002C01400034014070B5002400220023EE
:10426000058C4FF6FF6635400584028C8388848B6D
:104270004FF68F752C404FF6FC752C400D882C4363
:104280004FF6FF552A400D894FF6FF7606EA0525C1
:104290002A434D8806EA05252A43154DA84202D037
:1042A000144DA8421DD14FF2FF752A404D894FF69B
:1042B000FF7606EA05252A434FF6FF352A408D880A
:1042C00006EA05252A434EF6FF752B404DF6FF758D
:1042D0002B408D8906EA05152B43CD8906EA051585
:1042E0002B4383808483CD888587028470BD000042
:1042F000002C01400034014070B50022002300244E
:10430000058C4EF6FF7635400584038C8488828BBD
:1043100048F6FF752A404FF6FF452A400D884FF6B4
:10432000FF7606EA05252A434DF6FF752B400D89D9
:1043300006EA05352B434D8806EA05352B430B4D20
:10434000A84202D00A4DA84208D14BF6FF752C4076
:104350008D894FF6FF7606EA85152C43848082838B
:10436000CD88A0F84050038470BD0000002C0140AF
:10437000003401400021018041808180C1800181A1
:1043800041818181C181704781847047028B4FF6E2
:10439000F3731A400283028B0A4302837047028B35
:1043A0004FF2FF331A400283028B4FF6FF7303EA8A
:1043B00001231A4302837047828B4FF6F3731A402E
:1043C0008283828B0A4382837047828B4FF2FF3352
:1043D0001A408283828B4FF6FF7303EA01231A434C
:1043E00082837047002202881D4B98420ED01D4BDD
:1043F00098420BD0B0F1804F08D01B4B984205D0AB
:104400001A4B984202D01A4B984204D14FF68F7340
:104410001A404B881A43174B984207D0164B9842C4
:1044200004D04FF6FF431A40CB881A4302808B8892
:1044300083850B8803850A4B98420BD0094B984221
:1044400008D00E4B984205D00D4B984202D00D4B30
:10445000984201D10B7A03860123838270470000C2
:10446000002C0140003401400004004000080040DE
:10447000000C0040001000400014004000400140CB
:1044800000440140004801404FF6FF718180002147
:104490000180C180418001727047000010B5002486
:1044A00040F22551054800F02BF930B1034800F0E7
:1044B000E3F9C4B22046FDF7C9FC10BD0038014045
:1044C00070B504460D4603E0207800F007F8641C40
:1044D000281EA5F101018DB2F6D170BD10B50446BC
:1044E00000BF8021044800F0FEF80028F9D02146E2
:1044F000014800F0C6F910BD0038014010B586B083
:104500000446012144F20400FFF710F94FF4007053
:10451000ADF8140018208DF8170003208DF8160050
:1045200005A92248FEF7B6F94FF48060ADF81400F3
:1045300004208DF8170005A91C48FEF7ABF901947B
:104540000020ADF80800ADF80A00ADF80C00ADF899
:1045500010000C20ADF80E0001A9154800F020F95C
:10456000002240F22771124800F0F4F8012240F2D4
:1045700025510F4800F0EEF840210D4800F09EF85C
:1045800001210B4800F0A3F825208DF80000012040
:104590008DF8010003208DF8020001208DF8030042
:1045A0006846FEF74BFF06B010BD00000008014052
:1045B0000038014010B5002400BF2021064800F05B
:1045C00092F80028F9D0044800F056F9C4B2204609
:1045D000FDF73CFC10BD00000044004010B586B063
:1045E000044601210420FFF7A1F801214804FFF748
:1045F0007DF80420ADF8140018208DF81700032072
:104600008DF8160005A91C48FEF744F90820ADF8FE
:10461000140004208DF8170005A91748FEF73AF991
:1046200026208DF8000001208DF8010002208DF871
:10463000020001208DF803006846FEF7FFFE01949A
:104640000020ADF80800ADF80A00ADF80C00ADF898
:1046500010000C20ADF80E0001A9084800F0A0F8E9
:10466000012240F22551054800F074F80121034869
:1046700000F02DF806B010BD0008014000440040D5
:1046800070B504460D4603E0207800F007F8641C7E
:10469000281EA5F101018DB2F6D170BD10B50446FA
:1046A00000BF8021044800F01EF80028F9D0214600
:1046B000014800F0E6F810BD0044004001F400722B
:1046C000B2F5007F00D100BFCA430280704721B11C
:1046D000828942F40052828104E082894DF6FF73A0
:1046E0001A408281704702460020B1F5007F00D158
:1046F00000BF13880B400BB1012000E00020704781
:1047000070B50246002400230025002040F66A16FA
:10471000B14200D100BFC1F3421501F01F030126D1
:1047200006FA03F3012D02D19689334006E0022DEB
:1047300002D1168A334001E0968A33400C120126DA
:1047400006FA04F41688344013B10CB1012000E0DD
:10475000002070BDF0B5034600240026002500208F
:1047600040F66A17B94200D100BF1846C1F342149F
:1047700001F01F06012707FA06F5012C01D10C30C4
:1047800004E0022C01D1103000E014301AB10768A7
:104790002F43076002E00768AF430760F0BD0000E9
:1047A0002DE9F04786B005460E460024A24600BF1C
:1047B000A1460027B08900B100BF2F462C8A4CF6D5
:1047C000FF700440F08804432C82AC894EF6F3104D
:1047D0000440B08831890843718908430443AC819F
:1047E000AC8A4FF6FF400440B0890443AC8201A874
:1047F000FEF7BCFF1F48874202D1DDF810A001E0A0
:10480000DDF80CA0A88900F4004040B10AEBCA0012
:1048100000EB0A1031684900B0FBF1F807E00AEB41
:10482000CA0000EB0A1031688900B0FBF1F864207F
:10483000B8FBF0F004012009642101FB1089A8896C
:1048400000F4004040B1322000EBC900B0FBF1F0B1
:1048500000F00700044308E0322000EB0910642157
:10486000B0FBF1F000F00F0004432C8106B0BDE86E
:10487000F08700000038014001468888C0F3080036
:104880007047C1F308028280704700BFFEE7000056
:104890000FB4054B10B503A9044A029800F006F9BD
:1048A00010BC5DF814FB0000295300089C00002098
:1048B0000FB4084B10B504A902AA039800F0F6F84B
:1048C000044602A9002000F074FC204610BC5DF8EC
:1048D00014FB0000B351000800487047A8000020F6
:1048E0000148006870470000A800002002E008C8E6
:1048F000121F08C1002AFAD170477047002001E05A
:1049000001C1121F002AFBD1704700000149086055
:1049100070470000A80000202DE9FF5F82B0002151
:10492000DDE90430020DDDF840B0034318D044F651
:104930001050A2F2FF3242431514119801281FD0E3
:10494000A5EB0B00401C5FEA000A4FF000064E4F3B
:10495000DFF83891B046504615D5CAF1000413E08F
:10496000119801244AA3012801D16FEA0B01029892
:10497000119AC0E90031C0E9024206B0BDE8F09FDB
:10498000CBF10000DFE704460021404A491842EB22
:104990000450CDE9001012E0E00707D032463B4654
:1049A00040464946FBF71DFD8046894632463B4658
:1049B00010461946FBF715FD06460F466410002CFD
:1049C000EAD1DDE90401DDE90023BAF1000F06DADE
:1049D000FBF707FD42464B46FBF703FD05E0FCF7FE
:1049E0000AF842464B46FCF706F804460E460022FB
:1049F000284BFCF787F803D84FF0FF30014607E05B
:104A00000022254B20463146FBF74EFFFCF762F8AB
:104A1000102409E0002C0ADB0A220023FBF7F8FD32
:104A2000039B30321A55641E50EA0102F2D1641C15
:104A3000039AC4F111031444119A012A03D00122EC
:104A400008430DD10AE0084304D000204FF0110BB9
:104A5000119072E7A3EB0B056D1E0DE05B4504DDC5
:104A60004FF0000205F1010504E003DA4FF0000207
:104A7000A5F10105002AECD002981199C0E9023194
:104A8000C0E9004579E70000000014400000F03F55
:104A9000300000000000F0430000E03F30380A28FA
:104AA00001D2012070470020704700002DE9FF4F20
:104AB00095B09A46884606460025EEE1252877D12E
:104AC00000242746F94A0121039400E0044316F824
:104AD000013F203B01FA03F01042F7D130782A2839
:104AE00011D06FF02F033078A0F13002092A16D8C8
:104AF000039A44F0020402EB820203EB42021044E8
:104B0000761C0390EFE758F8042B0392002A03DA8F
:104B1000504244F40054039044F00204761C307870
:104B20002E2816D116F8010F44F004042A280DD0BF
:104B30006FF02F023078A0F13003092B09D807EB72
:104B4000870302EB4303C718761CF3E758F8047B8E
:104B5000761C30786C280FD006DC4C2817D06828DB
:104B60000DD06A2814D104E0742810D07A280FD10F
:104B70000DE044F400140AE044F4801401E044F42D
:104B800040147278824202D104F58014761C761C9F
:104B9000307866280BD013DC582877D009DC002841
:104BA00075D04528F6D04628F4D047281AD193E18D
:104BB00018E0632835D0642879D0652812D18BE1BC
:104BC000702873D008DC6728F1D069286FD06E2870
:104BD0000DD06F2806D1ACE073282CD0752874D086
:104BE000782853D05246179990476D1C54E1C4F36E
:104BF0000250022809D003280DD0D8F8001004284C
:104C00000DD00D6008F1040846E1D8F80010EA174D
:104C1000C1E90052F6E7D8F800100D80F2E70D70F8
:104C2000F0E718F8041B8DF8001000208DF8010043
:104C3000EB46012003E058F804BB4FF0FF3061075A
:104C40004FF0000102D40DE009F101018946B9429B
:104C50000FDA8145F8DB1BF809100029F4D108E0D0
:104C600009F1010189468142FADB1BF8091000298C
:104C7000F6D103985346A0EB090721463846179A08
:104C800000F080FA284400EB090507E044E008E161
:104C90000DE01BF8010B524617999047B9F1010935
:104CA000F7D2534621463846179AF2E039E00A21F6
:104CB000C4F302524FF0000B0091022A06D058F8BC
:104CC000040BC117032A09D00AE023E008F107000A
:104CD00020F00702F2E80201904605E000B2C11799
:104CE000042A01D140B2C117002906DA0A46002180
:104CF000404261EB02012D2202E0220504D52B2265
:104D00008DF80420012203E0E20701D02022F7E71A
:104D1000914657E00A2100E010214FF0000B00916E
:104D20000BE010214FF0000B44F004040827009121
:104D300003E008204FF0000B0090C4F30252022A57
:104D400005D058F8040B0021032A08D008E008F128
:104D5000070020F00702F2E80201904603E080B26B
:104D6000042A00D1C0B24FF0000922072AD53278B8
:104D7000702A07D0DDF800C08CF0100C5CEA0B0C38
:104D800005D00EE040228DF80420012208E050EA10
:104D9000010306D030238DF804308DF8052002225F
:104DA0009146009B83F0080353EA0B030AD150EAB3
:104DB000010201D1620705D530228DF804204FF0A1
:104DC00001097F1E3278582A04D039A20C920CAA0D
:104DD00002920BE03BA2F9E75B46009AFBF718FC56
:104DE0000C9B9B5C029A521E0292137050EA0102C5
:104DF000F2D1029804A9081A00F1200B600702D52D
:104E000024F4803400E001275F4502DDA7EB0B00AE
:104E100000E0002000EB0B01009003984944401A89
:104E20000390E00306D453462146179A039800F0F6
:104E3000A9F90544002706E001A85246C05D17996C
:104E400090476D1C7F1C4F45F6DBE0030CD55346A5
:104E50002146179A039800F095F9054404E03020A4
:104E60005246179990476D1C0099481E00900029E2
:104E7000F5DC08E00298029952460078491C02913C
:104E8000179990476D1CBBF10001ABF1010BF1DCF0
:104E90005BE100F065F90544761C307800287FF46A
:104EA0000DAE19B02846BDE8F08F000009280100BA
:104EB0003031323334353637383961626364656690
:104EC0000000000030313233343536373839414252
:104ED0004344454600000000600700D4062708F15F
:104EE000070020F00700F0E80223804603F0004CA2
:104EF0005FEA0C0001D097A009E0200501D596A03B
:104F000005E0E00701D095A001E0AFF24C0013905E
:104F1000307823F0004365280CD006DC452809D002
:104F200046281DD047287FD13BE0662818D0672847
:104F30007AD136E00021112F01DB112000E0781C2E
:104F4000CDE9000104A90CA8FFF7E6FCDDE90D019D
:104F50000C9A4FF0000B07F10109109200914EE0FE
:104F60004FF000400097CDE9011004A90CA8FFF70D
:104F7000D3FCDDE90D020C9B0F994FF0000B91461D
:104F80001093009211B9791C00EB0109B7EB0900ED
:104F900003D4C0F1FF3B07F10109A9EB0700019021
:104FA00042E0012F00DA01270021112F01DD11203D
:104FB00000E03846CDE9000104A90CA8FFF7ACFCDD
:104FC000DDE90D010C9A00914FF0000BB9461092EB
:104FD00021070FD4009A4A4503DA914601E0A9F16E
:104FE0000109B9F1010F05DD109AA9F10101515C28
:104FF0003029F4D0B84202DA10F1040F03DA0121AB
:10500000CDE9011010E0002803DC8344A9EB000186
:1050100002E0411C494500DD8946A0EB0B00401C25
:1050200001904FF000400290200705D401984845B8
:1050300002DB4FF0FF30019000208DF84B0002980A
:105040000DF14B07B0F1004F25D002200C902B2022
:105050000D90029800280CDA404202902D200D900D
:1050600007E00A210298FBF7BDFA3031029007F8F9
:10507000011D0C99481E0C900029F2DC02980028B2
:10508000EFD1791E0D980870307800F0200040F0C4
:10509000450007F8020D11A8C01BC01D029013980F
:1050A000007800B1012000EB0901019801EBE071EB
:1050B000029801440398401A401E0390E00306D46E
:1050C00053462146179A039800F05CF8054413985C
:1050D000007818B15246179990476D1CE00323D50C
:1050E00053462146179A039800F04CF805441BE0FC
:1050F000BBF1000F07DB0098584504DD10981799A5
:1051000010F80B0001E017993020524690470198A3
:105110000BF1010B401E05F10105019004D12E2079
:105120005246179990476D1CB9F10001A9F1010988
:10513000DEDC05E017F8010B5246179990476D1C0D
:105140000299481E02900029F4DC53462146179A22
:1051500003989EE62D0000002B00000020000000B8
:105160002DE9F041044600251E461746880404D464
:1051700005E039462020B0476D1C641EF9D528464D
:10518000BDE8F0812DE9F041044600251E46904619
:10519000C80301D5302700E02027880404D505E0A6
:1051A00041463846B0476D1C641EF9D52846BDE817
:1051B000F0810A68531C0B601070704730B583B0E3
:1051C0000446FFF78DFB05460020CDE900000246AE
:1051D00021466846FBF769FA2846FFF797FBDDE9A9
:1051E000000103B030BD70B50546042000F028F979
:1051F0000446286820602668204600F0A7F830465C
:1052000070BD000070B5044600F0F2FAA078617835
:1052100040EA012000B2194908802079E17840EA8B
:10522000012000B215494880A079617940EA012047
:1052300000B212498880207AE17940EA012000B268
:105240000E49C8800E48007803280BD10D46B5F9E9
:105250000630B5F90420B5F90210B5F90000FDF7E4
:1052600027FF0AE0054DB5F90630B5F90420B5F978
:105270000210B5F90000FDF7EBFE70BD70000020D4
:105280007800002070B50446A078617840EA0120DB
:1052900000B2114908802079E17840EA012000B28B
:1052A0000D494880A079617940EA012000B20A499D
:1052B0008880207AE17940EA012000B20649C8805E
:1052C0000D46B5F90630B5F90420B5F90210B5F967
:1052D0000000FDF71DFF70BD6800002010B50E48EE
:1052E00000680E49B0FBF1F0C4B26FF00400FEF7A5
:1052F0008FFBE11704EB5171C910094A1170104678
:10530000007800EB4001C1EBC0104FF6FF7101EADD
:10531000C0000449088010BD0C00002040420F006E
:10532000340000203600002070B504460D46E1B27E
:105330000548FFF7A6FA00BF80210348FFF7D3F91D
:105340000028F9D0204670BD0038014010B5002873
:1053500021D0114B0022001F196803E0814203D8BD
:105360000A4649680029F9D152B11368841A9C424F
:1053700004D1006818441060104602E0506000E05C
:10538000186039B102680B1A934203D10B681A44B2
:1053900002604968416010BDA0000020884200DA28
:1053A0000846904200DD104670470000FBF742FFC0
:1053B000164917A0FFF76CFA26E0FDF75FFB0228FD
:1053C00017D10020FEF73CFA16A11C48FFF770FA2F
:1053D0001A48FAF7EFFE84B221461848FFF770F832
:1053E0001648FAF7E7FE84B221461448FFF748F959
:1053F00008E0FDF743FB012804D10020FEF720FA66
:10540000FCF714F800F01EFAD7E7000005000020B2
:105410004D6F746F725F56657273696F6E3A257364
:105420000D0A00006661696C2C636F6D6D616E64BE
:10543000206973206C6F6E67210D0A00AC0000209C
:10544000F0B50B30154D20F007010024144A0FE091
:1054500003688B420BD38B4205D95E1A4318476809
:10546000C3E9006700E04368136002C004E0021D66
:1054700010680028ECD12046002802D1286808B125
:105480000020F0BD064A07481060074A121A22F0B1
:105490000702C0E9002401202860D7E7A40000200B
:1054A000A00000207C0B0020780D002070B5044681
:1054B0002046212C38D00EDC122820D006DC08280B
:1054C00065D010280FD011286ED112E013281CD0FF
:1054D000202869D11FE02238062865D2DFE800F0D5
:1054E0002A33394248513449098888B2FEF7B0F965
:1054F0005FE03149898888B2FEF7AAF959E02E4960
:10550000098988B2FEF7A4F953E02B49898988B24A
:10551000FEF79EF94DE0294909684FF6FF7202EA4D
:105520002140FEF795F944E02449098888B2FEF746
:105530008FF93EE0214949684FF6FF7202EA2140A7
:10554000FEF786F935E01D49898888B2FEF780F9B3
:105550002FE01A4989684FF6FF7202EA2140FEF7F0
:1055600077F926E01549098988B2FEF771F920E03C
:105570001249C9684FF6FF7202EA2140FEF768F946
:1055800017E00E49898988B2FEF762F911E00C49EB
:105590000C480068FAF7B5FE0646FAF7CCFFC5B22C
:1055A0002846FEF755F904E000210748FDF722FCE4
:1055B00000BF00BF70BD00001402002004020020E4
:1055C0000000204100000020005800402DE9FF4766
:1055D0005A4A5BA15F48FFF76BF95E48FAF7EAFDAC
:1055E00084B221465B48FEF76BFF5A48FAF7E2FDAA
:1055F00084B221465748FFF743F85748027857A12D
:105600005448FFF755F95348FAF7D4FD84B22146C0
:105610005048FEF755FF4F48FAF7CCFD84B22146BB
:105620004C48FFF72DF85148028851A14948FFF72F
:105630003FF94848FAF7BEFD84B221464548FEF7D7
:105640003FFF4448FAF7B6FD84B221464148FFF7D0
:1056500017F84B4802884BA13E48FFF729F93D480F
:10566000FAF7A8FD84B221463A48FEF729FF3948E7
:10567000FAF7A0FD84B221463648FFF701F8454805
:10568000028845A13348FFF713F93248FAF792FD33
:1056900084B221462F48FEF713FF2E48FAF78AFD01
:1056A00084B221462B48FEF7EBFF40480068FAF72A
:1056B00056FF044622460B463DA12648FFF7F8F860
:1056C0002448FAF777FD84B221462248FEF7F8FE17
:1056D0002048FAF76FFD84B221461E48FEF7D0FF3E
:1056E00039480068FAF73BFF04460D463748006822
:1056F000FAF735FF06460F4635480068FAF72FFFE0
:10570000804642460B4633A11248CDE90067CDE9F9
:105710000245FFF7CDF80F48FAF74CFD84B2214659
:105720000C48FEF7CDFE0B48FAF744FD84B2214643
:105730000848FEF7A5FFBDE8FF8700000500002030
:105740004D6F746F725F56657273696F6E3A257331
:105750000D0A000046030020780000204D6F746F92
:10576000725F747970653A25640D0A007A00002032
:10577000446561645F5A6F6E653A25640D0A0000E6
:105780007C00002050756C73655F4C696E653A252E
:10579000640D0A007E00002050756C73655F5068D0
:1057A0006173653A25640D0A000000008000002046
:1057B000776865656C5F6469616D657465723A25CB
:1057C0002E33660D0A0000008C00002088000020A7
:1057D00084000020503A252E33660920493A252EB0
:1057E00033660920443A252E336609200D0A00004D
:1057F00010B505480078012802D100200249087040
:105800000420FDF775FE10BD580000202DE9F04181
:1058100004460E46174639463046FAF7EBFC054675
:1058200025604FF0010808E039460020FAF7E2FC55
:10583000054644F8285008F10108002DF4D1BDE8D0
:10584000F08100002DE9F04F87B043480078C0F3A5
:105850008000E0B14148C06840498968CDE9001046
:105860003E4843683EA102684348FFF721F842489A
:10587000FAF7A0FC84B221463F48FEF721FE3E48DD
:10588000FAF798FC84B221463B48FEF7F9FE32480D
:105890000078C0F34000E0B13848C06837498968F3
:1058A000CDE900103548436835A102683248FEF75B
:1058B000FFFF3148FAF77EFC84B221462E48FEF7FE
:1058C000FFFD2D48FAF776FC84B221462A48FEF700
:1058D000D7FE2148007800F00100002839D02E487A
:1058E0000078012835D100202B4908702B49C86861
:1058F000FAF735FE04460D4628498868FAF72FFE68
:1059000006460F4625494868FAF729FE804689462B
:1059100022490868FAF723FE824652460B4620A128
:105920001548CDE90089CDE90267CDE90445FEF7C8
:10593000BFFF1148FAF73EFC84B221460E48FEF73D
:10594000BFFD0D48FAF736FC84B221460A48FEF73F
:1059500097FE07B0BDE8F08F04000020040200208D
:10596000244D416C6C3A25642C25642C25642C252F
:1059700064230D0A000000004C02002014020020E5
:10598000244D5445503A25642C25642C25642C253F
:1059900064230D0A0000000050000020F4010020E4
:1059A000244D5350443A252E32662C252E32662C37
:1059B000252E32662C252E3266230D0A00000000AB
:1059C000000C014001000000080000000010014030
:1059D0004000000010000000000801400008000026
:1059E0000400000000100140000100001000000051
:1059F000000C0140020000000800000000100140FF
:105A000080000000100000000008014000010000BC
:105A1000040000000010014000020000100000001F
:105A200000404040404040404040414141414140B1
:105A30004040404040404040404040404040404066
:105A400040050202020202020202020202020202F5
:105A500002202020202020202020200202020202FA
:105A60000202909090909090101010101010101052
:105A7000101010101010101010101010020202025E
:105A800002028888888888880808080808080808A2
:105A9000080808080808080808080808020202029E
:105AA00040000000215A0008C85A000800000020E9
:105AB000AC000000EC480008745B0008AC0000205B
:105AC000CC100000FC4800080000000000312E3718
:105AD0002E33000000A24A04000000000000000075
